{
  "contractName": "WFIL",
  "abi": [
    {
      "inputs": [
        {
          "internalType": "address",
          "name": "feeTo_",
          "type": "address"
        },
        {
          "internalType": "uint256",
          "name": "fee_",
          "type": "uint256"
        }
      ],
      "stateMutability": "nonpayable",
      "type": "constructor"
    },
    {
      "anonymous": false,
      "inputs": [
        {
          "indexed": true,
          "internalType": "address",
          "name": "owner",
          "type": "address"
        },
        {
          "indexed": true,
          "internalType": "address",
          "name": "spender",
          "type": "address"
        },
        {
          "indexed": false,
          "internalType": "uint256",
          "name": "value",
          "type": "uint256"
        }
      ],
      "name": "Approval",
      "type": "event"
    },
    {
      "anonymous": false,
      "inputs": [
        {
          "indexed": false,
          "internalType": "uint256",
          "name": "fee",
          "type": "uint256"
        }
      ],
      "name": "NewFee",
      "type": "event"
    },
    {
      "anonymous": false,
      "inputs": [
        {
          "indexed": false,
          "internalType": "address",
          "name": "feeTo",
          "type": "address"
        }
      ],
      "name": "NewFeeTo",
      "type": "event"
    },
    {
      "anonymous": false,
      "inputs": [
        {
          "indexed": true,
          "internalType": "address",
          "name": "previousOwner",
          "type": "address"
        },
        {
          "indexed": true,
          "internalType": "address",
          "name": "newOwner",
          "type": "address"
        }
      ],
      "name": "OwnershipTransferred",
      "type": "event"
    },
    {
      "anonymous": false,
      "inputs": [
        {
          "indexed": false,
          "internalType": "address",
          "name": "account",
          "type": "address"
        }
      ],
      "name": "Paused",
      "type": "event"
    },
    {
      "anonymous": false,
      "inputs": [
        {
          "indexed": true,
          "internalType": "bytes32",
          "name": "role",
          "type": "bytes32"
        },
        {
          "indexed": true,
          "internalType": "bytes32",
          "name": "previousAdminRole",
          "type": "bytes32"
        },
        {
          "indexed": true,
          "internalType": "bytes32",
          "name": "newAdminRole",
          "type": "bytes32"
        }
      ],
      "name": "RoleAdminChanged",
      "type": "event"
    },
    {
      "anonymous": false,
      "inputs": [
        {
          "indexed": true,
          "internalType": "bytes32",
          "name": "role",
          "type": "bytes32"
        },
        {
          "indexed": true,
          "internalType": "address",
          "name": "account",
          "type": "address"
        },
        {
          "indexed": true,
          "internalType": "address",
          "name": "sender",
          "type": "address"
        }
      ],
      "name": "RoleGranted",
      "type": "event"
    },
    {
      "anonymous": false,
      "inputs": [
        {
          "indexed": true,
          "internalType": "bytes32",
          "name": "role",
          "type": "bytes32"
        },
        {
          "indexed": true,
          "internalType": "address",
          "name": "account",
          "type": "address"
        },
        {
          "indexed": true,
          "internalType": "address",
          "name": "sender",
          "type": "address"
        }
      ],
      "name": "RoleRevoked",
      "type": "event"
    },
    {
      "anonymous": false,
      "inputs": [
        {
          "indexed": true,
          "internalType": "address",
          "name": "from",
          "type": "address"
        },
        {
          "indexed": true,
          "internalType": "address",
          "name": "to",
          "type": "address"
        },
        {
          "indexed": false,
          "internalType": "uint256",
          "name": "value",
          "type": "uint256"
        }
      ],
      "name": "Transfer",
      "type": "event"
    },
    {
      "anonymous": false,
      "inputs": [
        {
          "indexed": false,
          "internalType": "address",
          "name": "account",
          "type": "address"
        }
      ],
      "name": "Unpaused",
      "type": "event"
    },
    {
      "anonymous": false,
      "inputs": [
        {
          "indexed": false,
          "internalType": "string",
          "name": "filaddress",
          "type": "string"
        },
        {
          "indexed": false,
          "internalType": "uint256",
          "name": "unwrapOut",
          "type": "uint256"
        },
        {
          "indexed": false,
          "internalType": "uint256",
          "name": "unwrapFee",
          "type": "uint256"
        }
      ],
      "name": "Unwrapped",
      "type": "event"
    },
    {
      "anonymous": false,
      "inputs": [
        {
          "indexed": false,
          "internalType": "address",
          "name": "to",
          "type": "address"
        },
        {
          "indexed": false,
          "internalType": "uint256",
          "name": "wrapOut",
          "type": "uint256"
        },
        {
          "indexed": false,
          "internalType": "uint256",
          "name": "wrapFee",
          "type": "uint256"
        }
      ],
      "name": "Wrapped",
      "type": "event"
    },
    {
      "stateMutability": "nonpayable",
      "type": "fallback"
    },
    {
      "inputs": [],
      "name": "DEFAULT_ADMIN_ROLE",
      "outputs": [
        {
          "internalType": "bytes32",
          "name": "",
          "type": "bytes32"
        }
      ],
      "stateMutability": "view",
      "type": "function",
      "constant": true
    },
    {
      "inputs": [],
      "name": "FEE_SETTER_ROLE",
      "outputs": [
        {
          "internalType": "bytes32",
          "name": "",
          "type": "bytes32"
        }
      ],
      "stateMutability": "view",
      "type": "function",
      "constant": true
    },
    {
      "inputs": [],
      "name": "MINTER_ROLE",
      "outputs": [
        {
          "internalType": "bytes32",
          "name": "",
          "type": "bytes32"
        }
      ],
      "stateMutability": "view",
      "type": "function",
      "constant": true
    },
    {
      "inputs": [],
      "name": "PAUSER_ROLE",
      "outputs": [
        {
          "internalType": "bytes32",
          "name": "",
          "type": "bytes32"
        }
      ],
      "stateMutability": "view",
      "type": "function",
      "constant": true
    },
    {
      "inputs": [
        {
          "internalType": "address",
          "name": "owner",
          "type": "address"
        },
        {
          "internalType": "address",
          "name": "spender",
          "type": "address"
        }
      ],
      "name": "allowance",
      "outputs": [
        {
          "internalType": "uint256",
          "name": "",
          "type": "uint256"
        }
      ],
      "stateMutability": "view",
      "type": "function",
      "constant": true
    },
    {
      "inputs": [
        {
          "internalType": "address",
          "name": "spender",
          "type": "address"
        },
        {
          "internalType": "uint256",
          "name": "amount",
          "type": "uint256"
        }
      ],
      "name": "approve",
      "outputs": [
        {
          "internalType": "bool",
          "name": "",
          "type": "bool"
        }
      ],
      "stateMutability": "nonpayable",
      "type": "function"
    },
    {
      "inputs": [
        {
          "internalType": "address",
          "name": "account",
          "type": "address"
        }
      ],
      "name": "balanceOf",
      "outputs": [
        {
          "internalType": "uint256",
          "name": "",
          "type": "uint256"
        }
      ],
      "stateMutability": "view",
      "type": "function",
      "constant": true
    },
    {
      "inputs": [],
      "name": "decimals",
      "outputs": [
        {
          "internalType": "uint8",
          "name": "",
          "type": "uint8"
        }
      ],
      "stateMutability": "view",
      "type": "function",
      "constant": true
    },
    {
      "inputs": [
        {
          "internalType": "address",
          "name": "spender",
          "type": "address"
        },
        {
          "internalType": "uint256",
          "name": "subtractedValue",
          "type": "uint256"
        }
      ],
      "name": "decreaseAllowance",
      "outputs": [
        {
          "internalType": "bool",
          "name": "",
          "type": "bool"
        }
      ],
      "stateMutability": "nonpayable",
      "type": "function"
    },
    {
      "inputs": [
        {
          "internalType": "bytes32",
          "name": "role",
          "type": "bytes32"
        }
      ],
      "name": "getRoleAdmin",
      "outputs": [
        {
          "internalType": "bytes32",
          "name": "",
          "type": "bytes32"
        }
      ],
      "stateMutability": "view",
      "type": "function",
      "constant": true
    },
    {
      "inputs": [
        {
          "internalType": "bytes32",
          "name": "role",
          "type": "bytes32"
        },
        {
          "internalType": "uint256",
          "name": "index",
          "type": "uint256"
        }
      ],
      "name": "getRoleMember",
      "outputs": [
        {
          "internalType": "address",
          "name": "",
          "type": "address"
        }
      ],
      "stateMutability": "view",
      "type": "function",
      "constant": true
    },
    {
      "inputs": [
        {
          "internalType": "bytes32",
          "name": "role",
          "type": "bytes32"
        }
      ],
      "name": "getRoleMemberCount",
      "outputs": [
        {
          "internalType": "uint256",
          "name": "",
          "type": "uint256"
        }
      ],
      "stateMutability": "view",
      "type": "function",
      "constant": true
    },
    {
      "inputs": [
        {
          "internalType": "bytes32",
          "name": "role",
          "type": "bytes32"
        },
        {
          "internalType": "address",
          "name": "account",
          "type": "address"
        }
      ],
      "name": "grantRole",
      "outputs": [],
      "stateMutability": "nonpayable",
      "type": "function"
    },
    {
      "inputs": [
        {
          "internalType": "bytes32",
          "name": "role",
          "type": "bytes32"
        },
        {
          "internalType": "address",
          "name": "account",
          "type": "address"
        }
      ],
      "name": "hasRole",
      "outputs": [
        {
          "internalType": "bool",
          "name": "",
          "type": "bool"
        }
      ],
      "stateMutability": "view",
      "type": "function",
      "constant": true
    },
    {
      "inputs": [
        {
          "internalType": "address",
          "name": "spender",
          "type": "address"
        },
        {
          "internalType": "uint256",
          "name": "addedValue",
          "type": "uint256"
        }
      ],
      "name": "increaseAllowance",
      "outputs": [
        {
          "internalType": "bool",
          "name": "",
          "type": "bool"
        }
      ],
      "stateMutability": "nonpayable",
      "type": "function"
    },
    {
      "inputs": [],
      "name": "name",
      "outputs": [
        {
          "internalType": "string",
          "name": "",
          "type": "string"
        }
      ],
      "stateMutability": "view",
      "type": "function",
      "constant": true
    },
    {
      "inputs": [],
      "name": "owner",
      "outputs": [
        {
          "internalType": "address",
          "name": "",
          "type": "address"
        }
      ],
      "stateMutability": "view",
      "type": "function",
      "constant": true
    },
    {
      "inputs": [],
      "name": "paused",
      "outputs": [
        {
          "internalType": "bool",
          "name": "",
          "type": "bool"
        }
      ],
      "stateMutability": "view",
      "type": "function",
      "constant": true
    },
    {
      "inputs": [],
      "name": "renounceOwnership",
      "outputs": [],
      "stateMutability": "nonpayable",
      "type": "function"
    },
    {
      "inputs": [
        {
          "internalType": "bytes32",
          "name": "role",
          "type": "bytes32"
        },
        {
          "internalType": "address",
          "name": "account",
          "type": "address"
        }
      ],
      "name": "renounceRole",
      "outputs": [],
      "stateMutability": "nonpayable",
      "type": "function"
    },
    {
      "inputs": [
        {
          "internalType": "bytes32",
          "name": "role",
          "type": "bytes32"
        },
        {
          "internalType": "address",
          "name": "account",
          "type": "address"
        }
      ],
      "name": "revokeRole",
      "outputs": [],
      "stateMutability": "nonpayable",
      "type": "function"
    },
    {
      "inputs": [],
      "name": "symbol",
      "outputs": [
        {
          "internalType": "string",
          "name": "",
          "type": "string"
        }
      ],
      "stateMutability": "view",
      "type": "function",
      "constant": true
    },
    {
      "inputs": [],
      "name": "totalSupply",
      "outputs": [
        {
          "internalType": "uint256",
          "name": "",
          "type": "uint256"
        }
      ],
      "stateMutability": "view",
      "type": "function",
      "constant": true
    },
    {
      "inputs": [
        {
          "internalType": "address",
          "name": "recipient",
          "type": "address"
        },
        {
          "internalType": "uint256",
          "name": "amount",
          "type": "uint256"
        }
      ],
      "name": "transfer",
      "outputs": [
        {
          "internalType": "bool",
          "name": "",
          "type": "bool"
        }
      ],
      "stateMutability": "nonpayable",
      "type": "function"
    },
    {
      "inputs": [
        {
          "internalType": "address",
          "name": "sender",
          "type": "address"
        },
        {
          "internalType": "address",
          "name": "recipient",
          "type": "address"
        },
        {
          "internalType": "uint256",
          "name": "amount",
          "type": "uint256"
        }
      ],
      "name": "transferFrom",
      "outputs": [
        {
          "internalType": "bool",
          "name": "",
          "type": "bool"
        }
      ],
      "stateMutability": "nonpayable",
      "type": "function"
    },
    {
      "inputs": [
        {
          "internalType": "address",
          "name": "newOwner",
          "type": "address"
        }
      ],
      "name": "transferOwnership",
      "outputs": [],
      "stateMutability": "nonpayable",
      "type": "function"
    },
    {
      "inputs": [],
      "name": "fee",
      "outputs": [
        {
          "internalType": "uint256",
          "name": "",
          "type": "uint256"
        }
      ],
      "stateMutability": "view",
      "type": "function",
      "constant": true
    },
    {
      "inputs": [
        {
          "internalType": "uint256",
          "name": "wfilFee",
          "type": "uint256"
        }
      ],
      "name": "setFee",
      "outputs": [
        {
          "internalType": "bool",
          "name": "",
          "type": "bool"
        }
      ],
      "stateMutability": "nonpayable",
      "type": "function"
    },
    {
      "inputs": [
        {
          "internalType": "address",
          "name": "feeTo",
          "type": "address"
        }
      ],
      "name": "setFeeTo",
      "outputs": [
        {
          "internalType": "bool",
          "name": "",
          "type": "bool"
        }
      ],
      "stateMutability": "nonpayable",
      "type": "function"
    },
    {
      "inputs": [
        {
          "internalType": "address",
          "name": "to",
          "type": "address"
        },
        {
          "internalType": "uint256",
          "name": "amount",
          "type": "uint256"
        }
      ],
      "name": "wrap",
      "outputs": [
        {
          "internalType": "bool",
          "name": "",
          "type": "bool"
        }
      ],
      "stateMutability": "nonpayable",
      "type": "function"
    },
    {
      "inputs": [
        {
          "internalType": "string",
          "name": "filaddress",
          "type": "string"
        },
        {
          "internalType": "uint256",
          "name": "amount",
          "type": "uint256"
        }
      ],
      "name": "unwrap",
      "outputs": [
        {
          "internalType": "bool",
          "name": "",
          "type": "bool"
        }
      ],
      "stateMutability": "nonpayable",
      "type": "function"
    },
    {
      "inputs": [
        {
          "internalType": "address",
          "name": "account",
          "type": "address"
        }
      ],
      "name": "addMinter",
      "outputs": [
        {
          "internalType": "bool",
          "name": "",
          "type": "bool"
        }
      ],
      "stateMutability": "nonpayable",
      "type": "function"
    },
    {
      "inputs": [
        {
          "internalType": "address",
          "name": "account",
          "type": "address"
        }
      ],
      "name": "removeMinter",
      "outputs": [
        {
          "internalType": "bool",
          "name": "",
          "type": "bool"
        }
      ],
      "stateMutability": "nonpayable",
      "type": "function"
    },
    {
      "inputs": [],
      "name": "pause",
      "outputs": [],
      "stateMutability": "nonpayable",
      "type": "function"
    },
    {
      "inputs": [],
      "name": "unpause",
      "outputs": [],
      "stateMutability": "nonpayable",
      "type": "function"
    }
  ],
  "bytecode": "0x60806040523480156200001157600080fd5b5060405162003e0838038062003e08833981810160405260408110156200003757600080fd5b8101908080519060200190929190805190602001909291905050506040518060400160405280601081526020017f577261707065642046696c65636f696e000000000000000000000000000000008152506040518060400160405280600481526020017f5746494c000000000000000000000000000000000000000000000000000000008152506000620000d0620002ea60201b60201c565b9050806000806101000a81548173ffffffffffffffffffffffffffffffffffffffff021916908373ffffffffffffffffffffffffffffffffffffffff1602179055508073ffffffffffffffffffffffffffffffffffffffff16600073ffffffffffffffffffffffffffffffffffffffff167f8be0079c531659141344cd1fd0a4f28419497f9722a3daafe3b4186f6b6457e060405160405180910390a350816005908051906020019062000186929190620006c3565b5080600690805190602001906200019f929190620006c3565b506012600760006101000a81548160ff021916908360ff16021790555050506000600760016101000a81548160ff021916908315150217905550620001fd6000801b620001f1620002f260201b60201c565b6200031b60201b60201c565b6200023e7f9f2df0fed2c77648de5860a4cc508cd0818c85b8b8a1ab4ceeef8d981c8956a662000232620002f260201b60201c565b6200031b60201b60201c565b6200027f7f65d7a28e3265b37a6474929f336521b332c1681b933f6cb9f3376673440d862a62000273620002f260201b60201c565b6200031b60201b60201c565b620002c07fe6ad9a47fbda1dc18de1eb5eeb7d935e5e81b4748f3cfc61e233e64f88182060620002b4620002f260201b60201c565b6200031b60201b60201c565b620002d1816200033160201b60201c565b620002e2826200037260201b60201c565b505062000769565b600033905090565b60008060009054906101000a900473ffffffffffffffffffffffffffffffffffffffff16905090565b6200032d82826200054a60201b60201c565b5050565b806008819055507f63fe946ed58429ac3c5e64d4356ff92c26d7fa1e73586515df8ba9f059ab54a5816040518082815260200191505060405180910390a150565b600073ffffffffffffffffffffffffffffffffffffffff168173ffffffffffffffffffffffffffffffffffffffff16141562000416576040517f08c379a00000000000000000000000000000000000000000000000000000000081526004018080602001828103825260198152602001807f5746494c3a2073657420746f207a65726f20616464726573730000000000000081525060200191505060405180910390fd5b3073ffffffffffffffffffffffffffffffffffffffff168173ffffffffffffffffffffffffffffffffffffffff161415620004b9576040517f08c379a000000000000000000000000000000000000000000000000000000000815260040180806020018281038252601d8152602001807f5746494c3a2073657420746f20636f6e7472616374206164647265737300000081525060200191505060405180910390fd5b80600960006101000a81548173ffffffffffffffffffffffffffffffffffffffff021916908373ffffffffffffffffffffffffffffffffffffffff1602179055507fd7ecd1f497e38c39a3455e0704e1bddc382baa8059756b571ff24b92cab7ff5481604051808273ffffffffffffffffffffffffffffffffffffffff16815260200191505060405180910390a150565b620005798160016000858152602001908152602001600020600001620005ee60201b62001ebc1790919060201c565b15620005ea576200058f620002ea60201b60201c565b73ffffffffffffffffffffffffffffffffffffffff168173ffffffffffffffffffffffffffffffffffffffff16837f2f8788117e7eff1d82e926ec794901d17c78024a50270940304540a733656f0d60405160405180910390a45b5050565b60006200061e836000018373ffffffffffffffffffffffffffffffffffffffff1660001b6200062660201b60201c565b905092915050565b60006200063a8383620006a060201b60201c565b620006955782600001829080600181540180825580915050600190039060005260206000200160009091909190915055826000018054905083600101600084815260200190815260200160002081905550600190506200069a565b600090505b92915050565b600080836001016000848152602001908152602001600020541415905092915050565b828054600181600116156101000203166002900490600052602060002090601f016020900481019282601f106200070657805160ff191683800117855562000737565b8280016001018555821562000737579182015b828111156200073657825182559160200191906001019062000719565b5b5090506200074691906200074a565b5090565b5b80821115620007655760008160009055506001016200074b565b5090565b61368f80620007796000396000f3fe608060405234801561001057600080fd5b50600436106102155760003560e01c80638da5cb5b11610125578063ca15c873116100ad578063ddca3f431161007c578063ddca3f4314610b1b578063e63ab1e914610b39578063e934768314610b57578063f2fde38b14610b75578063f46901ed14610bb957610216565b8063ca15c873146109f5578063d539139314610a37578063d547741f14610a55578063dd62ed3e14610aa357610216565b8063983b2d56116100f4578063983b2d5614610851578063a217fddf146108ab578063a457c2d7146108c9578063a9059cbb1461092d578063bf376c7a1461099157610216565b80638da5cb5b146106d45780639010d07c1461070857806391d148541461076a57806395d89b41146107ce57610216565b806336568abe116101a857806369fe0e2d1161017757806369fe0e2d1461058b57806370a08231146105cf578063715018a6146106275780638456cb59146106315780638c70c3bd1461063b57610216565b806336568abe146104af57806339509351146104fd5780633f4ba83a146105615780635c975abb1461056b57610216565b8063248a9ca3116101e4578063248a9ca3146103a45780632f2ff15d146103e65780633092afd514610434578063313ce5671461048e57610216565b806306fdde031461021b578063095ea7b31461029e57806318160ddd1461030257806323b872dd1461032057610216565b5b600080fd5b610223610c13565b6040518080602001828103825283818151815260200191508051906020019080838360005b83811015610263578082015181840152602081019050610248565b50505050905090810190601f1680156102905780820380516001836020036101000a031916815260200191505b509250505060405180910390f35b6102ea600480360360408110156102b457600080fd5b81019080803573ffffffffffffffffffffffffffffffffffffffff16906020019092919080359060200190929190505050610cb5565b60405180821515815260200191505060405180910390f35b61030a610cd3565b6040518082815260200191505060405180910390f35b61038c6004803603606081101561033657600080fd5b81019080803573ffffffffffffffffffffffffffffffffffffffff169060200190929190803573ffffffffffffffffffffffffffffffffffffffff16906020019092919080359060200190929190505050610cdd565b60405180821515815260200191505060405180910390f35b6103d0600480360360208110156103ba57600080fd5b8101908080359060200190929190505050610db6565b6040518082815260200191505060405180910390f35b610432600480360360408110156103fc57600080fd5b8101908080359060200190929190803573ffffffffffffffffffffffffffffffffffffffff169060200190929190505050610dd6565b005b6104766004803603602081101561044a57600080fd5b81019080803573ffffffffffffffffffffffffffffffffffffffff169060200190929190505050610e60565b60405180821515815260200191505060405180910390f35b610496610fb0565b604051808260ff16815260200191505060405180910390f35b6104fb600480360360408110156104c557600080fd5b8101908080359060200190929190803573ffffffffffffffffffffffffffffffffffffffff169060200190929190505050610fc7565b005b6105496004803603604081101561051357600080fd5b81019080803573ffffffffffffffffffffffffffffffffffffffff16906020019092919080359060200190929190505050611060565b60405180821515815260200191505060405180910390f35b610569611113565b005b61057361119c565b60405180821515815260200191505060405180910390f35b6105b7600480360360208110156105a157600080fd5b81019080803590602001909291905050506111b3565b60405180821515815260200191505060405180910390f35b610611600480360360208110156105e557600080fd5b81019080803573ffffffffffffffffffffffffffffffffffffffff169060200190929190505050611246565b6040518082815260200191505060405180910390f35b61062f61128f565b005b610639611415565b005b6106bc6004803603604081101561065157600080fd5b810190808035906020019064010000000081111561066e57600080fd5b82018360208201111561068057600080fd5b803590602001918460018302840111640100000000831117156106a257600080fd5b90919293919293908035906020019092919050505061149e565b60405180821515815260200191505060405180910390f35b6106dc61159a565b604051808273ffffffffffffffffffffffffffffffffffffffff16815260200191505060405180910390f35b61073e6004803603604081101561071e57600080fd5b8101908080359060200190929190803590602001909291905050506115c3565b604051808273ffffffffffffffffffffffffffffffffffffffff16815260200191505060405180910390f35b6107b66004803603604081101561078057600080fd5b8101908080359060200190929190803573ffffffffffffffffffffffffffffffffffffffff1690602001909291905050506115f5565b60405180821515815260200191505060405180910390f35b6107d6611627565b6040518080602001828103825283818151815260200191508051906020019080838360005b838110156108165780820151818401526020810190506107fb565b50505050905090810190601f1680156108435780820380516001836020036101000a031916815260200191505b509250505060405180910390f35b6108936004803603602081101561086757600080fd5b81019080803573ffffffffffffffffffffffffffffffffffffffff1690602001909291905050506116c9565b60405180821515815260200191505060405180910390f35b6108b36117fd565b6040518082815260200191505060405180910390f35b610915600480360360408110156108df57600080fd5b81019080803573ffffffffffffffffffffffffffffffffffffffff16906020019092919080359060200190929190505050611804565b60405180821515815260200191505060405180910390f35b6109796004803603604081101561094357600080fd5b81019080803573ffffffffffffffffffffffffffffffffffffffff169060200190929190803590602001909291905050506118d1565b60405180821515815260200191505060405180910390f35b6109dd600480360360408110156109a757600080fd5b81019080803573ffffffffffffffffffffffffffffffffffffffff169060200190929190803590602001909291905050506118ef565b60405180821515815260200191505060405180910390f35b610a2160048036036020811015610a0b57600080fd5b8101908080359060200190929190505050611a70565b6040518082815260200191505060405180910390f35b610a3f611a97565b6040518082815260200191505060405180910390f35b610aa160048036036040811015610a6b57600080fd5b8101908080359060200190929190803573ffffffffffffffffffffffffffffffffffffffff169060200190929190505050611abb565b005b610b0560048036036040811015610ab957600080fd5b81019080803573ffffffffffffffffffffffffffffffffffffffff169060200190929190803573ffffffffffffffffffffffffffffffffffffffff169060200190929190505050611b45565b6040518082815260200191505060405180910390f35b610b23611bcc565b6040518082815260200191505060405180910390f35b610b41611bd6565b6040518082815260200191505060405180910390f35b610b5f611bfa565b6040518082815260200191505060405180910390f35b610bb760048036036020811015610b8b57600080fd5b81019080803573ffffffffffffffffffffffffffffffffffffffff169060200190929190505050611c1e565b005b610bfb60048036036020811015610bcf57600080fd5b81019080803573ffffffffffffffffffffffffffffffffffffffff169060200190929190505050611e29565b60405180821515815260200191505060405180910390f35b606060058054600181600116156101000203166002900480601f016020809104026020016040519081016040528092919081815260200182805460018160011615610100020316600290048015610cab5780601f10610c8057610100808354040283529160200191610cab565b820191906000526020600020905b815481529060010190602001808311610c8e57829003601f168201915b5050505050905090565b6000610cc9610cc2611eec565b8484611ef4565b6001905092915050565b6000600454905090565b6000610cea8484846120eb565b610dab84610cf6611eec565b610da6856040518060600160405280602881526020016134de60289139600360008b73ffffffffffffffffffffffffffffffffffffffff1673ffffffffffffffffffffffffffffffffffffffff1681526020019081526020016000206000610d5c611eec565b73ffffffffffffffffffffffffffffffffffffffff1673ffffffffffffffffffffffffffffffffffffffff168152602001908152602001600020546121809092919063ffffffff16565b611ef4565b600190509392505050565b600060016000838152602001908152602001600020600201549050919050565b610dfd6001600084815260200190815260200160002060020154610df8611eec565b6115f5565b610e52576040517f08c379a000000000000000000000000000000000000000000000000000000000815260040180806020018281038252602f815260200180613389602f913960400191505060405180910390fd5b610e5c8282612240565b5050565b6000610e6f6000801b336115f5565b610ee1576040517f08c379a000000000000000000000000000000000000000000000000000000000815260040180806020018281038252601c8152602001807f5746494c3a2063616c6c6572206973206e6f7420616e2061646d696e0000000081525060200191505060405180910390fd5b610f0b7f9f2df0fed2c77648de5860a4cc508cd0818c85b8b8a1ab4ceeef8d981c8956a6836115f5565b610f7d576040517f08c379a000000000000000000000000000000000000000000000000000000000815260040180806020018281038252601d8152602001807f5746494c3a206163636f756e74206973206e6f742061206d696e74657200000081525060200191505060405180910390fd5b610fa77f9f2df0fed2c77648de5860a4cc508cd0818c85b8b8a1ab4ceeef8d981c8956a683611abb565b60019050919050565b6000600760009054906101000a900460ff16905090565b610fcf611eec565b73ffffffffffffffffffffffffffffffffffffffff168173ffffffffffffffffffffffffffffffffffffffff1614611052576040517f08c379a000000000000000000000000000000000000000000000000000000000815260040180806020018281038252602f815260200180613601602f913960400191505060405180910390fd5b61105c82826122d4565b5050565b600061110961106d611eec565b84611104856003600061107e611eec565b73ffffffffffffffffffffffffffffffffffffffff1673ffffffffffffffffffffffffffffffffffffffff16815260200190815260200160002060008973ffffffffffffffffffffffffffffffffffffffff1673ffffffffffffffffffffffffffffffffffffffff1681526020019081526020016000205461236890919063ffffffff16565b611ef4565b6001905092915050565b61113d7f65d7a28e3265b37a6474929f336521b332c1681b933f6cb9f3376673440d862a336115f5565b611192576040517f08c379a00000000000000000000000000000000000000000000000000000000081526004018080602001828103825260268152602001806135066026913960400191505060405180910390fd5b61119a6123f0565b565b6000600760019054906101000a900460ff16905090565b60006111df7fe6ad9a47fbda1dc18de1eb5eeb7d935e5e81b4748f3cfc61e233e64f88182060336115f5565b611234576040517f08c379a000000000000000000000000000000000000000000000000000000000815260040180806020018281038252602281526020018061354d6022913960400191505060405180910390fd5b61123d826124e3565b60019050919050565b6000600260008373ffffffffffffffffffffffffffffffffffffffff1673ffffffffffffffffffffffffffffffffffffffff168152602001908152602001600020549050919050565b611297611eec565b73ffffffffffffffffffffffffffffffffffffffff1660008054906101000a900473ffffffffffffffffffffffffffffffffffffffff1673ffffffffffffffffffffffffffffffffffffffff1614611357576040517f08c379a00000000000000000000000000000000000000000000000000000000081526004018080602001828103825260208152602001807f4f776e61626c653a2063616c6c6572206973206e6f7420746865206f776e657281525060200191505060405180910390fd5b600073ffffffffffffffffffffffffffffffffffffffff1660008054906101000a900473ffffffffffffffffffffffffffffffffffffffff1673ffffffffffffffffffffffffffffffffffffffff167f8be0079c531659141344cd1fd0a4f28419497f9722a3daafe3b4186f6b6457e060405160405180910390a360008060006101000a81548173ffffffffffffffffffffffffffffffffffffffff021916908373ffffffffffffffffffffffffffffffffffffffff160217905550565b61143f7f65d7a28e3265b37a6474929f336521b332c1681b933f6cb9f3376673440d862a336115f5565b611494576040517f08c379a00000000000000000000000000000000000000000000000000000000081526004018080602001828103825260248152602001806135b86024913960400191505060405180910390fd5b61149c612524565b565b6000806114ca6103e86114bc6008548661261890919063ffffffff16565b61269e90919063ffffffff16565b905060006114e182856126e890919063ffffffff16565b905061151033600960009054906101000a900473ffffffffffffffffffffffffffffffffffffffff16846120eb565b61151a3382612732565b7feb7b16aba875d0a98bc0e68802e945774aed86b69f8e403aff8c7248ea12bf348686838560405180806020018481526020018381526020018281038252868682818152602001925080828437600081840152601f19601f8201169050808301925050509550505050505060405180910390a16001925050509392505050565b60008060009054906101000a900473ffffffffffffffffffffffffffffffffffffffff16905090565b60006115ed82600160008681526020019081526020016000206000016128f890919063ffffffff16565b905092915050565b600061161f826001600086815260200190815260200160002060000161291290919063ffffffff16565b905092915050565b606060068054600181600116156101000203166002900480601f0160208091040260200160405190810160405280929190818152602001828054600181600116156101000203166002900480156116bf5780601f10611694576101008083540402835291602001916116bf565b820191906000526020600020905b8154815290600101906020018083116116a257829003601f168201915b5050505050905090565b60006116d86000801b336115f5565b61174a576040517f08c379a000000000000000000000000000000000000000000000000000000000815260040180806020018281038252601c8152602001807f5746494c3a2063616c6c6572206973206e6f7420616e2061646d696e0000000081525060200191505060405180910390fd5b6117747f9f2df0fed2c77648de5860a4cc508cd0818c85b8b8a1ab4ceeef8d981c8956a6836115f5565b156117ca576040517f08c379a00000000000000000000000000000000000000000000000000000000081526004018080602001828103825260218152602001806134786021913960400191505060405180910390fd5b6117f47f9f2df0fed2c77648de5860a4cc508cd0818c85b8b8a1ab4ceeef8d981c8956a683610dd6565b60019050919050565b6000801b81565b60006118c7611811611eec565b846118c2856040518060600160405280602581526020016135dc602591396003600061183b611eec565b73ffffffffffffffffffffffffffffffffffffffff1673ffffffffffffffffffffffffffffffffffffffff16815260200190815260200160002060008a73ffffffffffffffffffffffffffffffffffffffff1673ffffffffffffffffffffffffffffffffffffffff168152602001908152602001600020546121809092919063ffffffff16565b611ef4565b6001905092915050565b60006118e56118de611eec565b84846120eb565b6001905092915050565b600061191b7f9f2df0fed2c77648de5860a4cc508cd0818c85b8b8a1ab4ceeef8d981c8956a6336115f5565b61198d576040517f08c379a000000000000000000000000000000000000000000000000000000000815260040180806020018281038252601c8152602001807f5746494c3a2063616c6c6572206973206e6f742061206d696e7465720000000081525060200191505060405180910390fd5b60006119b86103e86119aa6008548661261890919063ffffffff16565b61269e90919063ffffffff16565b905060006119cf82856126e890919063ffffffff16565b90506119fd600960009054906101000a900473ffffffffffffffffffffffffffffffffffffffff1683612942565b611a078582612942565b7f727200b48f3c812bfb404b578574e1c03694edb122d80fa6dcb352a9e4f8a938858284604051808473ffffffffffffffffffffffffffffffffffffffff168152602001838152602001828152602001935050505060405180910390a160019250505092915050565b6000611a9060016000848152602001908152602001600020600001612b0b565b9050919050565b7f9f2df0fed2c77648de5860a4cc508cd0818c85b8b8a1ab4ceeef8d981c8956a681565b611ae26001600084815260200190815260200160002060020154611add611eec565b6115f5565b611b37576040517f08c379a00000000000000000000000000000000000000000000000000000000081526004018080602001828103825260308152602001806134486030913960400191505060405180910390fd5b611b4182826122d4565b5050565b6000600360008473ffffffffffffffffffffffffffffffffffffffff1673ffffffffffffffffffffffffffffffffffffffff16815260200190815260200160002060008373ffffffffffffffffffffffffffffffffffffffff1673ffffffffffffffffffffffffffffffffffffffff16815260200190815260200160002054905092915050565b6000600854905090565b7f65d7a28e3265b37a6474929f336521b332c1681b933f6cb9f3376673440d862a81565b7fe6ad9a47fbda1dc18de1eb5eeb7d935e5e81b4748f3cfc61e233e64f8818206081565b611c26611eec565b73ffffffffffffffffffffffffffffffffffffffff1660008054906101000a900473ffffffffffffffffffffffffffffffffffffffff1673ffffffffffffffffffffffffffffffffffffffff1614611ce6576040517f08c379a00000000000000000000000000000000000000000000000000000000081526004018080602001828103825260208152602001807f4f776e61626c653a2063616c6c6572206973206e6f7420746865206f776e657281525060200191505060405180910390fd5b600073ffffffffffffffffffffffffffffffffffffffff168173ffffffffffffffffffffffffffffffffffffffff161415611d6c576040517f08c379a00000000000000000000000000000000000000000000000000000000081526004018080602001828103825260268152602001806133da6026913960400191505060405180910390fd5b8073ffffffffffffffffffffffffffffffffffffffff1660008054906101000a900473ffffffffffffffffffffffffffffffffffffffff1673ffffffffffffffffffffffffffffffffffffffff167f8be0079c531659141344cd1fd0a4f28419497f9722a3daafe3b4186f6b6457e060405160405180910390a3806000806101000a81548173ffffffffffffffffffffffffffffffffffffffff021916908373ffffffffffffffffffffffffffffffffffffffff16021790555050565b6000611e557fe6ad9a47fbda1dc18de1eb5eeb7d935e5e81b4748f3cfc61e233e64f88182060336115f5565b611eaa576040517f08c379a000000000000000000000000000000000000000000000000000000000815260040180806020018281038252602281526020018061354d6022913960400191505060405180910390fd5b611eb382612b20565b60019050919050565b6000611ee4836000018373ffffffffffffffffffffffffffffffffffffffff1660001b612cf6565b905092915050565b600033905090565b600073ffffffffffffffffffffffffffffffffffffffff168373ffffffffffffffffffffffffffffffffffffffff161415611f7a576040517f08c379a00000000000000000000000000000000000000000000000000000000081526004018080602001828103825260248152602001806135946024913960400191505060405180910390fd5b600073ffffffffffffffffffffffffffffffffffffffff168273ffffffffffffffffffffffffffffffffffffffff161415612000576040517f08c379a00000000000000000000000000000000000000000000000000000000081526004018080602001828103825260228152602001806134006022913960400191505060405180910390fd5b80600360008573ffffffffffffffffffffffffffffffffffffffff1673ffffffffffffffffffffffffffffffffffffffff16815260200190815260200160002060008473ffffffffffffffffffffffffffffffffffffffff1673ffffffffffffffffffffffffffffffffffffffff168152602001908152602001600020819055508173ffffffffffffffffffffffffffffffffffffffff168373ffffffffffffffffffffffffffffffffffffffff167f8c5be1e5ebec7d5bd14f71427d1e84f3dd0314c0f7b2291e5b200ac8c7c3b925836040518082815260200191505060405180910390a3505050565b3073ffffffffffffffffffffffffffffffffffffffff168273ffffffffffffffffffffffffffffffffffffffff161415612170576040517f08c379a00000000000000000000000000000000000000000000000000000000081526004018080602001828103825260248152602001806134ba6024913960400191505060405180910390fd5b61217b838383612d66565b505050565b600083831115829061222d576040517f08c379a00000000000000000000000000000000000000000000000000000000081526004018080602001828103825283818151815260200191508051906020019080838360005b838110156121f25780820151818401526020810190506121d7565b50505050905090810190601f16801561221f5780820380516001836020036101000a031916815260200191505b509250505060405180910390fd5b5060008385039050809150509392505050565b6122688160016000858152602001908152602001600020600001611ebc90919063ffffffff16565b156122d057612275611eec565b73ffffffffffffffffffffffffffffffffffffffff168173ffffffffffffffffffffffffffffffffffffffff16837f2f8788117e7eff1d82e926ec794901d17c78024a50270940304540a733656f0d60405160405180910390a45b5050565b6122fc816001600085815260200190815260200160002060000161302b90919063ffffffff16565b1561236457612309611eec565b73ffffffffffffffffffffffffffffffffffffffff168173ffffffffffffffffffffffffffffffffffffffff16837ff6391f5c32d9c69d2a47ea670b442974b53935d1edc7fd64eb21e047a839171b60405160405180910390a45b5050565b6000808284019050838110156123e6576040517f08c379a000000000000000000000000000000000000000000000000000000000815260040180806020018281038252601b8152602001807f536166654d6174683a206164646974696f6e206f766572666c6f77000000000081525060200191505060405180910390fd5b8091505092915050565b600760019054906101000a900460ff16612472576040517f08c379a00000000000000000000000000000000000000000000000000000000081526004018080602001828103825260148152602001807f5061757361626c653a206e6f742070617573656400000000000000000000000081525060200191505060405180910390fd5b6000600760016101000a81548160ff0219169083151502179055507f5db9ee0a495bf2e6ff9c91a7834c1ba4fdd244a5e8aa4e537bd38aeae4b073aa6124b6611eec565b604051808273ffffffffffffffffffffffffffffffffffffffff16815260200191505060405180910390a1565b806008819055507f63fe946ed58429ac3c5e64d4356ff92c26d7fa1e73586515df8ba9f059ab54a5816040518082815260200191505060405180910390a150565b600760019054906101000a900460ff16156125a7576040517f08c379a00000000000000000000000000000000000000000000000000000000081526004018080602001828103825260108152602001807f5061757361626c653a207061757365640000000000000000000000000000000081525060200191505060405180910390fd5b6001600760016101000a81548160ff0219169083151502179055507f62e78cea01bee320cd4e420270b5ea74000d11b0c9f74754ebdbfc544b05a2586125eb611eec565b604051808273ffffffffffffffffffffffffffffffffffffffff16815260200191505060405180910390a1565b60008083141561262b5760009050612698565b600082840290508284828161263c57fe5b0414612693576040517f08c379a00000000000000000000000000000000000000000000000000000000081526004018080602001828103825260218152602001806134996021913960400191505060405180910390fd5b809150505b92915050565b60006126e083836040518060400160405280601a81526020017f536166654d6174683a206469766973696f6e206279207a65726f00000000000081525061305b565b905092915050565b600061272a83836040518060400160405280601e81526020017f536166654d6174683a207375627472616374696f6e206f766572666c6f770000815250612180565b905092915050565b600073ffffffffffffffffffffffffffffffffffffffff168273ffffffffffffffffffffffffffffffffffffffff1614156127b8576040517f08c379a000000000000000000000000000000000000000000000000000000000815260040180806020018281038252602181526020018061352c6021913960400191505060405180910390fd5b6127c482600083613121565b612830816040518060600160405280602281526020016133b860229139600260008673ffffffffffffffffffffffffffffffffffffffff1673ffffffffffffffffffffffffffffffffffffffff168152602001908152602001600020546121809092919063ffffffff16565b600260008473ffffffffffffffffffffffffffffffffffffffff1673ffffffffffffffffffffffffffffffffffffffff16815260200190815260200160002081905550612888816004546126e890919063ffffffff16565b600481905550600073ffffffffffffffffffffffffffffffffffffffff168273ffffffffffffffffffffffffffffffffffffffff167fddf252ad1be2c89b69c2b068fc378daa952ba7f163c4a11628f55a4df523b3ef836040518082815260200191505060405180910390a35050565b60006129078360000183613131565b60001c905092915050565b600061293a836000018373ffffffffffffffffffffffffffffffffffffffff1660001b6131b4565b905092915050565b600073ffffffffffffffffffffffffffffffffffffffff168273ffffffffffffffffffffffffffffffffffffffff1614156129e5576040517f08c379a000000000000000000000000000000000000000000000000000000000815260040180806020018281038252601f8152602001807f45524332303a206d696e7420746f20746865207a65726f20616464726573730081525060200191505060405180910390fd5b6129f160008383613121565b612a068160045461236890919063ffffffff16565b600481905550612a5e81600260008573ffffffffffffffffffffffffffffffffffffffff1673ffffffffffffffffffffffffffffffffffffffff1681526020019081526020016000205461236890919063ffffffff16565b600260008473ffffffffffffffffffffffffffffffffffffffff1673ffffffffffffffffffffffffffffffffffffffff168152602001908152602001600020819055508173ffffffffffffffffffffffffffffffffffffffff16600073ffffffffffffffffffffffffffffffffffffffff167fddf252ad1be2c89b69c2b068fc378daa952ba7f163c4a11628f55a4df523b3ef836040518082815260200191505060405180910390a35050565b6000612b19826000016131d7565b9050919050565b600073ffffffffffffffffffffffffffffffffffffffff168173ffffffffffffffffffffffffffffffffffffffff161415612bc3576040517f08c379a00000000000000000000000000000000000000000000000000000000081526004018080602001828103825260198152602001807f5746494c3a2073657420746f207a65726f20616464726573730000000000000081525060200191505060405180910390fd5b3073ffffffffffffffffffffffffffffffffffffffff168173ffffffffffffffffffffffffffffffffffffffff161415612c65576040517f08c379a000000000000000000000000000000000000000000000000000000000815260040180806020018281038252601d8152602001807f5746494c3a2073657420746f20636f6e7472616374206164647265737300000081525060200191505060405180910390fd5b80600960006101000a81548173ffffffffffffffffffffffffffffffffffffffff021916908373ffffffffffffffffffffffffffffffffffffffff1602179055507fd7ecd1f497e38c39a3455e0704e1bddc382baa8059756b571ff24b92cab7ff5481604051808273ffffffffffffffffffffffffffffffffffffffff16815260200191505060405180910390a150565b6000612d0283836131b4565b612d5b578260000182908060018154018082558091505060019003906000526020600020016000909190919091505582600001805490508360010160008481526020019081526020016000208190555060019050612d60565b600090505b92915050565b600073ffffffffffffffffffffffffffffffffffffffff168373ffffffffffffffffffffffffffffffffffffffff161415612dec576040517f08c379a000000000000000000000000000000000000000000000000000000000815260040180806020018281038252602581526020018061356f6025913960400191505060405180910390fd5b600073ffffffffffffffffffffffffffffffffffffffff168273ffffffffffffffffffffffffffffffffffffffff161415612e72576040517f08c379a00000000000000000000000000000000000000000000000000000000081526004018080602001828103825260238152602001806133666023913960400191505060405180910390fd5b612e7d838383613121565b612ee98160405180606001604052806026815260200161342260269139600260008773ffffffffffffffffffffffffffffffffffffffff1673ffffffffffffffffffffffffffffffffffffffff168152602001908152602001600020546121809092919063ffffffff16565b600260008573ffffffffffffffffffffffffffffffffffffffff1673ffffffffffffffffffffffffffffffffffffffff16815260200190815260200160002081905550612f7e81600260008573ffffffffffffffffffffffffffffffffffffffff1673ffffffffffffffffffffffffffffffffffffffff1681526020019081526020016000205461236890919063ffffffff16565b600260008473ffffffffffffffffffffffffffffffffffffffff1673ffffffffffffffffffffffffffffffffffffffff168152602001908152602001600020819055508173ffffffffffffffffffffffffffffffffffffffff168373ffffffffffffffffffffffffffffffffffffffff167fddf252ad1be2c89b69c2b068fc378daa952ba7f163c4a11628f55a4df523b3ef836040518082815260200191505060405180910390a3505050565b6000613053836000018373ffffffffffffffffffffffffffffffffffffffff1660001b6131e8565b905092915050565b60008083118290613107576040517f08c379a00000000000000000000000000000000000000000000000000000000081526004018080602001828103825283818151815260200191508051906020019080838360005b838110156130cc5780820151818401526020810190506130b1565b50505050905090810190601f1680156130f95780820380516001836020036101000a031916815260200191505b509250505060405180910390fd5b50600083858161311357fe5b049050809150509392505050565b61312c8383836132d0565b505050565b600081836000018054905011613192576040517f08c379a00000000000000000000000000000000000000000000000000000000081526004018080602001828103825260228152602001806133446022913960400191505060405180910390fd5b8260000182815481106131a157fe5b9060005260206000200154905092915050565b600080836001016000848152602001908152602001600020541415905092915050565b600081600001805490509050919050565b600080836001016000848152602001908152602001600020549050600081146132c4576000600182039050600060018660000180549050039050600086600001828154811061323357fe5b906000526020600020015490508087600001848154811061325057fe5b906000526020600020018190555060018301876001016000838152602001908152602001600020819055508660000180548061328857fe5b600190038181906000526020600020016000905590558660010160008781526020019081526020016000206000905560019450505050506132ca565b60009150505b92915050565b6132db83838361333e565b6132e361119c565b15613339576040517f08c379a000000000000000000000000000000000000000000000000000000000815260040180806020018281038252602a815260200180613630602a913960400191505060405180910390fd5b505050565b50505056fe456e756d657261626c655365743a20696e646578206f7574206f6620626f756e647345524332303a207472616e7366657220746f20746865207a65726f2061646472657373416363657373436f6e74726f6c3a2073656e646572206d75737420626520616e2061646d696e20746f206772616e7445524332303a206275726e20616d6f756e7420657863656564732062616c616e63654f776e61626c653a206e6577206f776e657220697320746865207a65726f206164647265737345524332303a20617070726f766520746f20746865207a65726f206164647265737345524332303a207472616e7366657220616d6f756e7420657863656564732062616c616e6365416363657373436f6e74726f6c3a2073656e646572206d75737420626520616e2061646d696e20746f207265766f6b655746494c3a206163636f756e7420697320616c72656164792061206d696e746572536166654d6174683a206d756c7469706c69636174696f6e206f766572666c6f775746494c3a207472616e7366657220746f2074686520746f6b656e20636f6e747261637445524332303a207472616e7366657220616d6f756e74206578636565647320616c6c6f77616e63655746494c3a206d75737420686176652070617573657220726f6c6520746f20756e706175736545524332303a206275726e2066726f6d20746865207a65726f20616464726573735746494c3a2063616c6c6572206973206e6f7420746865206665652073657474657245524332303a207472616e736665722066726f6d20746865207a65726f206164647265737345524332303a20617070726f76652066726f6d20746865207a65726f20616464726573735746494c3a206d75737420686176652070617573657220726f6c6520746f20706175736545524332303a2064656372656173656420616c6c6f77616e63652062656c6f77207a65726f416363657373436f6e74726f6c3a2063616e206f6e6c792072656e6f756e636520726f6c657320666f722073656c6645524332305061757361626c653a20746f6b656e207472616e73666572207768696c6520706175736564a26469706673582212205132c64e49d8396c3e02ff4faffefa9c99f790230d278f0e27e5ad047fd6a9be64736f6c634300060c0033",
  "immutableReferences": {},
  "source": "/// SPDX-License-Identifier: AGPL-3.0-or-later\npragma solidity 0.6.12;\n\n/// @title WFIL\n/// @author Nazzareno Massari @naszam\n/// @notice Wrapped Filecoin\n/// @dev All function calls are currently implemented without side effects through TDD approach\n/// @dev OpenZeppelin library is used for secure contract development\n\n/*\n    \n    \n    \n  \n      \n*/\n\nimport \"@openzeppelin/contracts/access/Ownable.sol\";\nimport \"@openzeppelin/contracts/access/AccessControl.sol\";\nimport \"@openzeppelin/contracts/token/ERC20/ERC20.sol\";\nimport \"@openzeppelin/contracts/token/ERC20/ERC20Pausable.sol\";\n\ncontract WFIL is Ownable, AccessControl, ERC20, ERC20Pausable {\n\n    /// @dev Libraries\n    using SafeMath for uint;\n\n    /// @dev Roles\n    bytes32 public constant MINTER_ROLE = keccak256(\"MINTER_ROLE\");\n    bytes32 public constant FEE_SETTER_ROLE = keccak256(\"FEE_SETTER_ROLE\");\n    bytes32 public constant PAUSER_ROLE = keccak256(\"PAUSER_ROLE\");\n\n    /// @dev Data\n    uint private _fee;\n    address private _feeTo;\n\n    /// @dev Events\n    event Wrapped(address to, uint wrapOut, uint wrapFee);\n    event Unwrapped(string filaddress, uint unwrapOut, uint unwrapFee);\n    event NewFee(uint fee);\n    event NewFeeTo(address feeTo);\n\n    constructor(address feeTo_, uint fee_)\n        public\n        ERC20(\"Wrapped Filecoin\", \"WFIL\")\n    {\n        _setupRole(DEFAULT_ADMIN_ROLE, owner());\n\n        _setupRole(MINTER_ROLE, owner());\n        _setupRole(PAUSER_ROLE, owner());\n        _setupRole(FEE_SETTER_ROLE, owner());\n\n        _setFee(fee_);\n        _setFeeTo(feeTo_);\n    }\n\n    /// @notice Fallback function\n    /// @dev Added not payable to revert transactions not matching any other function which send value\n    fallback() external {\n        revert();\n    }\n\n    /// @dev Modifiers\n    modifier onlyAdmin() {\n        require(hasRole(DEFAULT_ADMIN_ROLE, msg.sender), \"WFIL: caller is not an admin\");\n       _;\n    }\n\n    /// @notice Getter function for the wrap/unwrap fee\n    /// @return _fee current fee\n    function fee() external view returns (uint) {\n        return _fee;\n    }\n\n    /// @notice Set a new fee\n    /// @dev Access restricted only for Fee Setters\n    /// @dev Call internal function _setFee()\n    /// @param wfilFee fee to set\n    /// @return True if wfilFee is successfully set\n    function setFee(uint wfilFee) external returns (bool) {\n        require(hasRole(FEE_SETTER_ROLE, msg.sender), \"WFIL: caller is not the fee setter\");\n        _setFee(wfilFee);\n        return true;\n    }\n\n    /// @notice Set a new feeTo address\n    /// @dev Access restricted only for Fee Setters\n    /// @dev Call internal function _setFeeTo()\n    /// @param feeTo address to set\n    /// @return True if feeTo is successfully set\n    function setFeeTo(address feeTo) external returns (bool) {\n        require(hasRole(FEE_SETTER_ROLE, msg.sender), \"WFIL: caller is not the fee setter\");\n        _setFeeTo(feeTo);\n        return true;\n    }\n\n    /// @notice Wrap WFIL, mint amount (wrapFee + wrapOut)\n    /// @dev Access restricted only for Minters\n    /// @param to Address of the recipient\n    /// @param amount Amount of WFIL issued\n    /// @return True if WFIL is successfully wrapped\n    function wrap(address to, uint amount) external returns (bool) {\n        require(hasRole(MINTER_ROLE, msg.sender), \"WFIL: caller is not a minter\");\n        uint wrapFee = amount.mul(_fee).div(1000);\n        uint wrapOut = amount.sub(wrapFee);\n        _mint(_feeTo, wrapFee);\n        _mint(to, wrapOut);\n        emit Wrapped(to, wrapOut, wrapFee);\n        return true;\n    }\n\n    /// @notice Unwrap WFIL, transfer unwrapFee + burn uwnrapOut\n    /// @dev Emit an event with the Filecoin Address to UI\n    /// @param filaddress The Filecoin Address to uwrap WFIL\n    /// @param amount The amount of WFIL to unwrap\n    /// @return True if WFIL is successfully unwrapped\n    function unwrap(string calldata filaddress, uint amount) external returns (bool) {\n        uint unwrapFee = amount.mul(_fee).div(1000);\n        uint unwrapOut = amount.sub(unwrapFee);\n        _transfer(msg.sender, _feeTo, unwrapFee);\n        _burn(msg.sender, unwrapOut);\n        emit Unwrapped(filaddress, unwrapOut, unwrapFee);\n        return true;\n    }\n\n    /// @notice Add a new Minter\n    /// @dev Access restricted only for Admins\n    /// @param account Address of the new Minter\n    /// @return True if the account address is added as Minter\n    function addMinter(address account) external onlyAdmin returns (bool) {\n        require(!hasRole(MINTER_ROLE, account), \"WFIL: account is already a minter\");\n        grantRole(MINTER_ROLE, account);\n        return true;\n    }\n\n    /// @notice Remove a Minter\n    /// @dev Access restricted only for Admins\n    /// @param account Address of the Minter\n    /// @return True if the account address is removed as Minter\n    function removeMinter(address account) external onlyAdmin returns (bool) {\n        require(hasRole(MINTER_ROLE, account), \"WFIL: account is not a minter\");\n        revokeRole(MINTER_ROLE, account);\n        return true;\n    }\n\n    /// @notice Pause all the functions\n    /// @dev the caller must have the 'PAUSER_ROLE'\n    function pause() external {\n        require(hasRole(PAUSER_ROLE, msg.sender), \"WFIL: must have pauser role to pause\");\n        _pause();\n    }\n\n    /// @notice Unpause all the functions\n    /// @dev the caller must have the 'PAUSER_ROLE'\n    function unpause() external {\n        require(hasRole(PAUSER_ROLE, msg.sender), \"WFIL: must have pauser role to unpause\");\n        _unpause();\n    }\n\n    /// @notice Prevent transfer to the token contract\n    /// @dev Override ERC20 _transfer()\n    /// @param sender Sender address\n    /// @param recipient Recipient address\n    /// @param amount Token amount\n    function _transfer(address sender, address recipient, uint amount) internal override {\n         require(recipient != address(this), \"WFIL: transfer to the token contract\");\n         super._transfer(sender, recipient, amount);\n    }\n\n    /// @notice Hook to pause _mint(), _transfer() and _burn()\n    /// @dev Override ERC20 and ERC20Pausable Hooks\n    /// @param from Sender address\n    /// @param to Recipient address\n    /// @param amount Token amount\n    function _beforeTokenTransfer(address from, address to, uint amount) internal override(ERC20, ERC20Pausable) {\n        super._beforeTokenTransfer(from, to, amount);\n    }\n\n    /// @notice Internal function to set fee\n    /// @dev set function visibility to private\n    /// @param wfilFee fee to set\n    function _setFee(uint wfilFee) private {\n        _fee = wfilFee;\n        emit NewFee(wfilFee);\n    }\n\n    /// @notice Internal function to set feeTo address\n    /// @dev set function visibility to private\n    /// @param feeTo address to set\n    function _setFeeTo(address feeTo) private {\n        require(feeTo != address(0), \"WFIL: set to zero address\");\n        require(feeTo != address(this), \"WFIL: set to contract address\");\n        _feeTo = feeTo;\n        emit NewFeeTo(feeTo);\n    }\n}\n",
  "sourcePath": "/home/hackfs/wfil/contracts/WFIL.sol",
  "compiler": {
    "name": "solc",
    "version": "0.6.12+commit.27d51765.Emscripten.clang"
  },
  "schemaVersion": "3.3.1",
  "updatedAt": "2020-10-16T15:46:07.252Z",
  "networkType": "ethereum",
  "devdoc": {
    "events": {
      "Wrapped(address,uint256,uint256)": {
        "details": "Events"
      }
    },
    "kind": "dev",
    "methods": {
      "addMinter(address)": {
        "details": "Access restricted only for Admins",
        "params": {
          "account": "Address of the new Minter"
        },
        "returns": {
          "_0": "True if the account address is added as Minter"
        }
      },
      "allowance(address,address)": {
        "details": "See {IERC20-allowance}."
      },
      "approve(address,uint256)": {
        "details": "See {IERC20-approve}. Requirements: - `spender` cannot be the zero address."
      },
      "balanceOf(address)": {
        "details": "See {IERC20-balanceOf}."
      },
      "decimals()": {
        "details": "Returns the number of decimals used to get its user representation. For example, if `decimals` equals `2`, a balance of `505` tokens should be displayed to a user as `5,05` (`505 / 10 ** 2`). Tokens usually opt for a value of 18, imitating the relationship between Ether and Wei. This is the value {ERC20} uses, unless {_setupDecimals} is called. NOTE: This information is only used for _display_ purposes: it in no way affects any of the arithmetic of the contract, including {IERC20-balanceOf} and {IERC20-transfer}."
      },
      "decreaseAllowance(address,uint256)": {
        "details": "Atomically decreases the allowance granted to `spender` by the caller. This is an alternative to {approve} that can be used as a mitigation for problems described in {IERC20-approve}. Emits an {Approval} event indicating the updated allowance. Requirements: - `spender` cannot be the zero address. - `spender` must have allowance for the caller of at least `subtractedValue`."
      },
      "fee()": {
        "returns": {
          "_0": "_fee current fee"
        }
      },
      "getRoleAdmin(bytes32)": {
        "details": "Returns the admin role that controls `role`. See {grantRole} and {revokeRole}. To change a role's admin, use {_setRoleAdmin}."
      },
      "getRoleMember(bytes32,uint256)": {
        "details": "Returns one of the accounts that have `role`. `index` must be a value between 0 and {getRoleMemberCount}, non-inclusive. Role bearers are not sorted in any particular way, and their ordering may change at any point. WARNING: When using {getRoleMember} and {getRoleMemberCount}, make sure you perform all queries on the same block. See the following https://forum.openzeppelin.com/t/iterating-over-elements-on-enumerableset-in-openzeppelin-contracts/2296[forum post] for more information."
      },
      "getRoleMemberCount(bytes32)": {
        "details": "Returns the number of accounts that have `role`. Can be used together with {getRoleMember} to enumerate all bearers of a role."
      },
      "grantRole(bytes32,address)": {
        "details": "Grants `role` to `account`. If `account` had not been already granted `role`, emits a {RoleGranted} event. Requirements: - the caller must have ``role``'s admin role."
      },
      "hasRole(bytes32,address)": {
        "details": "Returns `true` if `account` has been granted `role`."
      },
      "increaseAllowance(address,uint256)": {
        "details": "Atomically increases the allowance granted to `spender` by the caller. This is an alternative to {approve} that can be used as a mitigation for problems described in {IERC20-approve}. Emits an {Approval} event indicating the updated allowance. Requirements: - `spender` cannot be the zero address."
      },
      "name()": {
        "details": "Returns the name of the token."
      },
      "owner()": {
        "details": "Returns the address of the current owner."
      },
      "pause()": {
        "details": "the caller must have the 'PAUSER_ROLE'"
      },
      "paused()": {
        "details": "Returns true if the contract is paused, and false otherwise."
      },
      "removeMinter(address)": {
        "details": "Access restricted only for Admins",
        "params": {
          "account": "Address of the Minter"
        },
        "returns": {
          "_0": "True if the account address is removed as Minter"
        }
      },
      "renounceOwnership()": {
        "details": "Leaves the contract without owner. It will not be possible to call `onlyOwner` functions anymore. Can only be called by the current owner. NOTE: Renouncing ownership will leave the contract without an owner, thereby removing any functionality that is only available to the owner."
      },
      "renounceRole(bytes32,address)": {
        "details": "Revokes `role` from the calling account. Roles are often managed via {grantRole} and {revokeRole}: this function's purpose is to provide a mechanism for accounts to lose their privileges if they are compromised (such as when a trusted device is misplaced). If the calling account had been granted `role`, emits a {RoleRevoked} event. Requirements: - the caller must be `account`."
      },
      "revokeRole(bytes32,address)": {
        "details": "Revokes `role` from `account`. If `account` had been granted `role`, emits a {RoleRevoked} event. Requirements: - the caller must have ``role``'s admin role."
      },
      "setFee(uint256)": {
        "details": "Access restricted only for Fee SettersCall internal function _setFee()",
        "params": {
          "wfilFee": "fee to set"
        },
        "returns": {
          "_0": "True if wfilFee is successfully set"
        }
      },
      "setFeeTo(address)": {
        "details": "Access restricted only for Fee SettersCall internal function _setFeeTo()",
        "params": {
          "feeTo": "address to set"
        },
        "returns": {
          "_0": "True if feeTo is successfully set"
        }
      },
      "symbol()": {
        "details": "Returns the symbol of the token, usually a shorter version of the name."
      },
      "totalSupply()": {
        "details": "See {IERC20-totalSupply}."
      },
      "transfer(address,uint256)": {
        "details": "See {IERC20-transfer}. Requirements: - `recipient` cannot be the zero address. - the caller must have a balance of at least `amount`."
      },
      "transferFrom(address,address,uint256)": {
        "details": "See {IERC20-transferFrom}. Emits an {Approval} event indicating the updated allowance. This is not required by the EIP. See the note at the beginning of {ERC20}; Requirements: - `sender` and `recipient` cannot be the zero address. - `sender` must have a balance of at least `amount`. - the caller must have allowance for ``sender``'s tokens of at least `amount`."
      },
      "transferOwnership(address)": {
        "details": "Transfers ownership of the contract to a new account (`newOwner`). Can only be called by the current owner."
      },
      "unpause()": {
        "details": "the caller must have the 'PAUSER_ROLE'"
      },
      "unwrap(string,uint256)": {
        "details": "Emit an event with the Filecoin Address to UI",
        "params": {
          "amount": "The amount of WFIL to unwrap",
          "filaddress": "The Filecoin Address to uwrap WFIL"
        },
        "returns": {
          "_0": "True if WFIL is successfully unwrapped"
        }
      },
      "wrap(address,uint256)": {
        "details": "Access restricted only for Minters",
        "params": {
          "amount": "Amount of WFIL issued",
          "to": "Address of the recipient"
        },
        "returns": {
          "_0": "True if WFIL is successfully wrapped"
        }
      }
    },
    "stateVariables": {
      "MINTER_ROLE": {
        "details": "Roles"
      },
      "_fee": {
        "details": "Data"
      }
    },
    "version": 1
  },
  "userdoc": {
    "kind": "user",
    "methods": {
      "addMinter(address)": {
        "notice": "Add a new Minter"
      },
      "fee()": {
        "notice": "Getter function for the wrap/unwrap fee"
      },
      "pause()": {
        "notice": "Pause all the functions"
      },
      "removeMinter(address)": {
        "notice": "Remove a Minter"
      },
      "setFee(uint256)": {
        "notice": "Set a new fee"
      },
      "setFeeTo(address)": {
        "notice": "Set a new feeTo address"
      },
      "unpause()": {
        "notice": "Unpause all the functions"
      },
      "unwrap(string,uint256)": {
        "notice": "Unwrap WFIL, transfer unwrapFee + burn uwnrapOut"
      },
      "wrap(address,uint256)": {
        "notice": "Wrap WFIL, mint amount (wrapFee + wrapOut)"
      }
    },
    "version": 1
  }
}