{
  "contractName": "WFIL",
  "abi": [
    {
      "inputs": [],
      "stateMutability": "nonpayable",
      "type": "constructor"
    },
    {
      "anonymous": false,
      "inputs": [
        {
          "indexed": true,
          "internalType": "address",
          "name": "owner",
          "type": "address"
        },
        {
          "indexed": true,
          "internalType": "address",
          "name": "spender",
          "type": "address"
        },
        {
          "indexed": false,
          "internalType": "uint256",
          "name": "value",
          "type": "uint256"
        }
      ],
      "name": "Approval",
      "type": "event"
    },
    {
      "anonymous": false,
      "inputs": [
        {
          "indexed": true,
          "internalType": "address",
          "name": "previousOwner",
          "type": "address"
        },
        {
          "indexed": true,
          "internalType": "address",
          "name": "newOwner",
          "type": "address"
        }
      ],
      "name": "OwnershipTransferred",
      "type": "event"
    },
    {
      "anonymous": false,
      "inputs": [
        {
          "indexed": false,
          "internalType": "address",
          "name": "account",
          "type": "address"
        }
      ],
      "name": "Paused",
      "type": "event"
    },
    {
      "anonymous": false,
      "inputs": [
        {
          "indexed": true,
          "internalType": "bytes32",
          "name": "role",
          "type": "bytes32"
        },
        {
          "indexed": true,
          "internalType": "bytes32",
          "name": "previousAdminRole",
          "type": "bytes32"
        },
        {
          "indexed": true,
          "internalType": "bytes32",
          "name": "newAdminRole",
          "type": "bytes32"
        }
      ],
      "name": "RoleAdminChanged",
      "type": "event"
    },
    {
      "anonymous": false,
      "inputs": [
        {
          "indexed": true,
          "internalType": "bytes32",
          "name": "role",
          "type": "bytes32"
        },
        {
          "indexed": true,
          "internalType": "address",
          "name": "account",
          "type": "address"
        },
        {
          "indexed": true,
          "internalType": "address",
          "name": "sender",
          "type": "address"
        }
      ],
      "name": "RoleGranted",
      "type": "event"
    },
    {
      "anonymous": false,
      "inputs": [
        {
          "indexed": true,
          "internalType": "bytes32",
          "name": "role",
          "type": "bytes32"
        },
        {
          "indexed": true,
          "internalType": "address",
          "name": "account",
          "type": "address"
        },
        {
          "indexed": true,
          "internalType": "address",
          "name": "sender",
          "type": "address"
        }
      ],
      "name": "RoleRevoked",
      "type": "event"
    },
    {
      "anonymous": false,
      "inputs": [
        {
          "indexed": true,
          "internalType": "address",
          "name": "from",
          "type": "address"
        },
        {
          "indexed": true,
          "internalType": "address",
          "name": "to",
          "type": "address"
        },
        {
          "indexed": false,
          "internalType": "uint256",
          "name": "value",
          "type": "uint256"
        }
      ],
      "name": "Transfer",
      "type": "event"
    },
    {
      "anonymous": false,
      "inputs": [
        {
          "indexed": false,
          "internalType": "address",
          "name": "account",
          "type": "address"
        }
      ],
      "name": "Unpaused",
      "type": "event"
    },
    {
      "anonymous": false,
      "inputs": [
        {
          "indexed": false,
          "internalType": "string",
          "name": "filaddress",
          "type": "string"
        },
        {
          "indexed": false,
          "internalType": "uint256",
          "name": "amount",
          "type": "uint256"
        }
      ],
      "name": "Unwrapped",
      "type": "event"
    },
    {
      "inputs": [],
      "name": "DEFAULT_ADMIN_ROLE",
      "outputs": [
        {
          "internalType": "bytes32",
          "name": "",
          "type": "bytes32"
        }
      ],
      "stateMutability": "view",
      "type": "function",
      "constant": true
    },
    {
      "inputs": [],
      "name": "MINTER_ROLE",
      "outputs": [
        {
          "internalType": "bytes32",
          "name": "",
          "type": "bytes32"
        }
      ],
      "stateMutability": "view",
      "type": "function",
      "constant": true
    },
    {
      "inputs": [],
      "name": "PAUSER_ROLE",
      "outputs": [
        {
          "internalType": "bytes32",
          "name": "",
          "type": "bytes32"
        }
      ],
      "stateMutability": "view",
      "type": "function",
      "constant": true
    },
    {
      "inputs": [
        {
          "internalType": "address",
          "name": "owner",
          "type": "address"
        },
        {
          "internalType": "address",
          "name": "spender",
          "type": "address"
        }
      ],
      "name": "allowance",
      "outputs": [
        {
          "internalType": "uint256",
          "name": "",
          "type": "uint256"
        }
      ],
      "stateMutability": "view",
      "type": "function",
      "constant": true
    },
    {
      "inputs": [
        {
          "internalType": "address",
          "name": "spender",
          "type": "address"
        },
        {
          "internalType": "uint256",
          "name": "amount",
          "type": "uint256"
        }
      ],
      "name": "approve",
      "outputs": [
        {
          "internalType": "bool",
          "name": "",
          "type": "bool"
        }
      ],
      "stateMutability": "nonpayable",
      "type": "function"
    },
    {
      "inputs": [
        {
          "internalType": "address",
          "name": "account",
          "type": "address"
        }
      ],
      "name": "balanceOf",
      "outputs": [
        {
          "internalType": "uint256",
          "name": "",
          "type": "uint256"
        }
      ],
      "stateMutability": "view",
      "type": "function",
      "constant": true
    },
    {
      "inputs": [
        {
          "internalType": "uint256",
          "name": "amount",
          "type": "uint256"
        }
      ],
      "name": "burn",
      "outputs": [],
      "stateMutability": "nonpayable",
      "type": "function"
    },
    {
      "inputs": [
        {
          "internalType": "address",
          "name": "account",
          "type": "address"
        },
        {
          "internalType": "uint256",
          "name": "amount",
          "type": "uint256"
        }
      ],
      "name": "burnFrom",
      "outputs": [],
      "stateMutability": "nonpayable",
      "type": "function"
    },
    {
      "inputs": [],
      "name": "decimals",
      "outputs": [
        {
          "internalType": "uint8",
          "name": "",
          "type": "uint8"
        }
      ],
      "stateMutability": "view",
      "type": "function",
      "constant": true
    },
    {
      "inputs": [
        {
          "internalType": "address",
          "name": "spender",
          "type": "address"
        },
        {
          "internalType": "uint256",
          "name": "subtractedValue",
          "type": "uint256"
        }
      ],
      "name": "decreaseAllowance",
      "outputs": [
        {
          "internalType": "bool",
          "name": "",
          "type": "bool"
        }
      ],
      "stateMutability": "nonpayable",
      "type": "function"
    },
    {
      "inputs": [
        {
          "internalType": "bytes32",
          "name": "role",
          "type": "bytes32"
        }
      ],
      "name": "getRoleAdmin",
      "outputs": [
        {
          "internalType": "bytes32",
          "name": "",
          "type": "bytes32"
        }
      ],
      "stateMutability": "view",
      "type": "function",
      "constant": true
    },
    {
      "inputs": [
        {
          "internalType": "bytes32",
          "name": "role",
          "type": "bytes32"
        },
        {
          "internalType": "uint256",
          "name": "index",
          "type": "uint256"
        }
      ],
      "name": "getRoleMember",
      "outputs": [
        {
          "internalType": "address",
          "name": "",
          "type": "address"
        }
      ],
      "stateMutability": "view",
      "type": "function",
      "constant": true
    },
    {
      "inputs": [
        {
          "internalType": "bytes32",
          "name": "role",
          "type": "bytes32"
        }
      ],
      "name": "getRoleMemberCount",
      "outputs": [
        {
          "internalType": "uint256",
          "name": "",
          "type": "uint256"
        }
      ],
      "stateMutability": "view",
      "type": "function",
      "constant": true
    },
    {
      "inputs": [
        {
          "internalType": "bytes32",
          "name": "role",
          "type": "bytes32"
        },
        {
          "internalType": "address",
          "name": "account",
          "type": "address"
        }
      ],
      "name": "grantRole",
      "outputs": [],
      "stateMutability": "nonpayable",
      "type": "function"
    },
    {
      "inputs": [
        {
          "internalType": "bytes32",
          "name": "role",
          "type": "bytes32"
        },
        {
          "internalType": "address",
          "name": "account",
          "type": "address"
        }
      ],
      "name": "hasRole",
      "outputs": [
        {
          "internalType": "bool",
          "name": "",
          "type": "bool"
        }
      ],
      "stateMutability": "view",
      "type": "function",
      "constant": true
    },
    {
      "inputs": [
        {
          "internalType": "address",
          "name": "spender",
          "type": "address"
        },
        {
          "internalType": "uint256",
          "name": "addedValue",
          "type": "uint256"
        }
      ],
      "name": "increaseAllowance",
      "outputs": [
        {
          "internalType": "bool",
          "name": "",
          "type": "bool"
        }
      ],
      "stateMutability": "nonpayable",
      "type": "function"
    },
    {
      "inputs": [],
      "name": "name",
      "outputs": [
        {
          "internalType": "string",
          "name": "",
          "type": "string"
        }
      ],
      "stateMutability": "view",
      "type": "function",
      "constant": true
    },
    {
      "inputs": [],
      "name": "owner",
      "outputs": [
        {
          "internalType": "address",
          "name": "",
          "type": "address"
        }
      ],
      "stateMutability": "view",
      "type": "function",
      "constant": true
    },
    {
      "inputs": [],
      "name": "paused",
      "outputs": [
        {
          "internalType": "bool",
          "name": "",
          "type": "bool"
        }
      ],
      "stateMutability": "view",
      "type": "function",
      "constant": true
    },
    {
      "inputs": [],
      "name": "renounceOwnership",
      "outputs": [],
      "stateMutability": "nonpayable",
      "type": "function"
    },
    {
      "inputs": [
        {
          "internalType": "bytes32",
          "name": "role",
          "type": "bytes32"
        },
        {
          "internalType": "address",
          "name": "account",
          "type": "address"
        }
      ],
      "name": "renounceRole",
      "outputs": [],
      "stateMutability": "nonpayable",
      "type": "function"
    },
    {
      "inputs": [
        {
          "internalType": "bytes32",
          "name": "role",
          "type": "bytes32"
        },
        {
          "internalType": "address",
          "name": "account",
          "type": "address"
        }
      ],
      "name": "revokeRole",
      "outputs": [],
      "stateMutability": "nonpayable",
      "type": "function"
    },
    {
      "inputs": [],
      "name": "symbol",
      "outputs": [
        {
          "internalType": "string",
          "name": "",
          "type": "string"
        }
      ],
      "stateMutability": "view",
      "type": "function",
      "constant": true
    },
    {
      "inputs": [],
      "name": "totalSupply",
      "outputs": [
        {
          "internalType": "uint256",
          "name": "",
          "type": "uint256"
        }
      ],
      "stateMutability": "view",
      "type": "function",
      "constant": true
    },
    {
      "inputs": [
        {
          "internalType": "address",
          "name": "recipient",
          "type": "address"
        },
        {
          "internalType": "uint256",
          "name": "amount",
          "type": "uint256"
        }
      ],
      "name": "transfer",
      "outputs": [
        {
          "internalType": "bool",
          "name": "",
          "type": "bool"
        }
      ],
      "stateMutability": "nonpayable",
      "type": "function"
    },
    {
      "inputs": [
        {
          "internalType": "address",
          "name": "sender",
          "type": "address"
        },
        {
          "internalType": "address",
          "name": "recipient",
          "type": "address"
        },
        {
          "internalType": "uint256",
          "name": "amount",
          "type": "uint256"
        }
      ],
      "name": "transferFrom",
      "outputs": [
        {
          "internalType": "bool",
          "name": "",
          "type": "bool"
        }
      ],
      "stateMutability": "nonpayable",
      "type": "function"
    },
    {
      "inputs": [
        {
          "internalType": "address",
          "name": "newOwner",
          "type": "address"
        }
      ],
      "name": "transferOwnership",
      "outputs": [],
      "stateMutability": "nonpayable",
      "type": "function"
    },
    {
      "inputs": [
        {
          "internalType": "address",
          "name": "to",
          "type": "address"
        },
        {
          "internalType": "uint256",
          "name": "amount",
          "type": "uint256"
        }
      ],
      "name": "mint",
      "outputs": [
        {
          "internalType": "bool",
          "name": "",
          "type": "bool"
        }
      ],
      "stateMutability": "nonpayable",
      "type": "function"
    },
    {
      "inputs": [
        {
          "internalType": "string",
          "name": "filaddress",
          "type": "string"
        },
        {
          "internalType": "uint256",
          "name": "amount",
          "type": "uint256"
        }
      ],
      "name": "unwrap",
      "outputs": [
        {
          "internalType": "bool",
          "name": "",
          "type": "bool"
        }
      ],
      "stateMutability": "nonpayable",
      "type": "function"
    },
    {
      "inputs": [
        {
          "internalType": "address",
          "name": "account",
          "type": "address"
        }
      ],
      "name": "addMinter",
      "outputs": [
        {
          "internalType": "bool",
          "name": "",
          "type": "bool"
        }
      ],
      "stateMutability": "nonpayable",
      "type": "function"
    },
    {
      "inputs": [
        {
          "internalType": "address",
          "name": "account",
          "type": "address"
        }
      ],
      "name": "removeMinter",
      "outputs": [
        {
          "internalType": "bool",
          "name": "",
          "type": "bool"
        }
      ],
      "stateMutability": "nonpayable",
      "type": "function"
    },
    {
      "inputs": [],
      "name": "pause",
      "outputs": [],
      "stateMutability": "nonpayable",
      "type": "function"
    },
    {
      "inputs": [],
      "name": "unpause",
      "outputs": [],
      "stateMutability": "nonpayable",
      "type": "function"
    }
  ],
  "bytecode": "0x60806040523480156200001157600080fd5b506040518060400160405280601081526020017f577261707065642046696c65636f696e000000000000000000000000000000008152506040518060400160405280600481526020017f5746494c000000000000000000000000000000000000000000000000000000008152506000620000906200024560201b60201c565b9050806000806101000a81548173ffffffffffffffffffffffffffffffffffffffff021916908373ffffffffffffffffffffffffffffffffffffffff1602179055508073ffffffffffffffffffffffffffffffffffffffff16600073ffffffffffffffffffffffffffffffffffffffff167f8be0079c531659141344cd1fd0a4f28419497f9722a3daafe3b4186f6b6457e060405160405180910390a35081600590805190602001906200014692919062000405565b5080600690805190602001906200015f92919062000405565b506012600760006101000a81548160ff021916908360ff16021790555050506000600760016101000a81548160ff021916908315150217905550620001bd6000801b620001b16200024d60201b60201c565b6200027660201b60201c565b620001fe7f9f2df0fed2c77648de5860a4cc508cd0818c85b8b8a1ab4ceeef8d981c8956a6620001f26200024d60201b60201c565b6200027660201b60201c565b6200023f7f65d7a28e3265b37a6474929f336521b332c1681b933f6cb9f3376673440d862a620002336200024d60201b60201c565b6200027660201b60201c565b620004ab565b600033905090565b60008060009054906101000a900473ffffffffffffffffffffffffffffffffffffffff16905090565b6200028882826200028c60201b60201c565b5050565b620002bb81600160008581526020019081526020016000206000016200033060201b62001c381790919060201c565b156200032c57620002d16200024560201b60201c565b73ffffffffffffffffffffffffffffffffffffffff168173ffffffffffffffffffffffffffffffffffffffff16837f2f8788117e7eff1d82e926ec794901d17c78024a50270940304540a733656f0d60405160405180910390a45b5050565b600062000360836000018373ffffffffffffffffffffffffffffffffffffffff1660001b6200036860201b60201c565b905092915050565b60006200037c8383620003e260201b60201c565b620003d7578260000182908060018154018082558091505060019003906000526020600020016000909190919091505582600001805490508360010160008481526020019081526020016000208190555060019050620003dc565b600090505b92915050565b600080836001016000848152602001908152602001600020541415905092915050565b828054600181600116156101000203166002900490600052602060002090601f016020900481019282601f106200044857805160ff191683800117855562000479565b8280016001018555821562000479579182015b82811115620004785782518255916020019190600101906200045b565b5b5090506200048891906200048c565b5090565b5b80821115620004a75760008160009055506001016200048d565b5090565b612f6580620004bb6000396000f3fe608060405234801561001057600080fd5b50600436106101fb5760003560e01c806379cc67901161011a578063a217fddf116100ad578063d53913931161007c578063d539139314610a54578063d547741f14610a72578063dd62ed3e14610ac0578063e63ab1e914610b38578063f2fde38b14610b56576101fb565b8063a217fddf1461092c578063a457c2d71461094a578063a9059cbb146109ae578063ca15c87314610a12576101fb565b80639010d07c116100e95780639010d07c1461078957806391d14854146107eb57806395d89b411461084f578063983b2d56146108d2576101fb565b806379cc6790146106645780638456cb59146106b25780638c70c3bd146106bc5780638da5cb5b14610755576101fb565b806336568abe1161019257806342966c681161016157806342966c68146105b45780635c975abb146105e257806370a0823114610602578063715018a61461065a576101fb565b806336568abe1461049457806339509351146104e25780633f4ba83a1461054657806340c10f1914610550576101fb565b8063248a9ca3116101ce578063248a9ca3146103895780632f2ff15d146103cb5780633092afd514610419578063313ce56714610473576101fb565b806306fdde0314610200578063095ea7b31461028357806318160ddd146102e757806323b872dd14610305575b600080fd5b610208610b9a565b6040518080602001828103825283818151815260200191508051906020019080838360005b8381101561024857808201518184015260208101905061022d565b50505050905090810190601f1680156102755780820380516001836020036101000a031916815260200191505b509250505060405180910390f35b6102cf6004803603604081101561029957600080fd5b81019080803573ffffffffffffffffffffffffffffffffffffffff16906020019092919080359060200190929190505050610c3c565b60405180821515815260200191505060405180910390f35b6102ef610c5a565b6040518082815260200191505060405180910390f35b6103716004803603606081101561031b57600080fd5b81019080803573ffffffffffffffffffffffffffffffffffffffff169060200190929190803573ffffffffffffffffffffffffffffffffffffffff16906020019092919080359060200190929190505050610c64565b60405180821515815260200191505060405180910390f35b6103b56004803603602081101561039f57600080fd5b8101908080359060200190929190505050610d3d565b6040518082815260200191505060405180910390f35b610417600480360360408110156103e157600080fd5b8101908080359060200190929190803573ffffffffffffffffffffffffffffffffffffffff169060200190929190505050610d5d565b005b61045b6004803603602081101561042f57600080fd5b81019080803573ffffffffffffffffffffffffffffffffffffffff169060200190929190505050610de7565b60405180821515815260200191505060405180910390f35b61047b610f37565b604051808260ff16815260200191505060405180910390f35b6104e0600480360360408110156104aa57600080fd5b8101908080359060200190929190803573ffffffffffffffffffffffffffffffffffffffff169060200190929190505050610f4e565b005b61052e600480360360408110156104f857600080fd5b81019080803573ffffffffffffffffffffffffffffffffffffffff16906020019092919080359060200190929190505050610fe7565b60405180821515815260200191505060405180910390f35b61054e61109a565b005b61059c6004803603604081101561056657600080fd5b81019080803573ffffffffffffffffffffffffffffffffffffffff16906020019092919080359060200190929190505050611123565b60405180821515815260200191505060405180910390f35b6105e0600480360360208110156105ca57600080fd5b81019080803590602001909291905050506111d5565b005b6105ea6111e9565b60405180821515815260200191505060405180910390f35b6106446004803603602081101561061857600080fd5b81019080803573ffffffffffffffffffffffffffffffffffffffff169060200190929190505050611200565b6040518082815260200191505060405180910390f35b610662611249565b005b6106b06004803603604081101561067a57600080fd5b81019080803573ffffffffffffffffffffffffffffffffffffffff169060200190929190803590602001909291905050506113cf565b005b6106ba611431565b005b61073d600480360360408110156106d257600080fd5b81019080803590602001906401000000008111156106ef57600080fd5b82018360208201111561070157600080fd5b8035906020019184600183028401116401000000008311171561072357600080fd5b9091929391929390803590602001909291905050506114ba565b60405180821515815260200191505060405180910390f35b61075d61153b565b604051808273ffffffffffffffffffffffffffffffffffffffff16815260200191505060405180910390f35b6107bf6004803603604081101561079f57600080fd5b810190808035906020019092919080359060200190929190505050611564565b604051808273ffffffffffffffffffffffffffffffffffffffff16815260200191505060405180910390f35b6108376004803603604081101561080157600080fd5b8101908080359060200190929190803573ffffffffffffffffffffffffffffffffffffffff169060200190929190505050611596565b60405180821515815260200191505060405180910390f35b6108576115c8565b6040518080602001828103825283818151815260200191508051906020019080838360005b8381101561089757808201518184015260208101905061087c565b50505050905090810190601f1680156108c45780820380516001836020036101000a031916815260200191505b509250505060405180910390f35b610914600480360360208110156108e857600080fd5b81019080803573ffffffffffffffffffffffffffffffffffffffff16906020019092919050505061166a565b60405180821515815260200191505060405180910390f35b6109346117bb565b6040518082815260200191505060405180910390f35b6109966004803603604081101561096057600080fd5b81019080803573ffffffffffffffffffffffffffffffffffffffff169060200190929190803590602001909291905050506117c2565b60405180821515815260200191505060405180910390f35b6109fa600480360360408110156109c457600080fd5b81019080803573ffffffffffffffffffffffffffffffffffffffff1690602001909291908035906020019092919050505061188f565b60405180821515815260200191505060405180910390f35b610a3e60048036036020811015610a2857600080fd5b81019080803590602001909291905050506118ad565b6040518082815260200191505060405180910390f35b610a5c6118d4565b6040518082815260200191505060405180910390f35b610abe60048036036040811015610a8857600080fd5b8101908080359060200190929190803573ffffffffffffffffffffffffffffffffffffffff1690602001909291905050506118f8565b005b610b2260048036036040811015610ad657600080fd5b81019080803573ffffffffffffffffffffffffffffffffffffffff169060200190929190803573ffffffffffffffffffffffffffffffffffffffff169060200190929190505050611982565b6040518082815260200191505060405180910390f35b610b40611a09565b6040518082815260200191505060405180910390f35b610b9860048036036020811015610b6c57600080fd5b81019080803573ffffffffffffffffffffffffffffffffffffffff169060200190929190505050611a2d565b005b606060058054600181600116156101000203166002900480601f016020809104026020016040519081016040528092919081815260200182805460018160011615610100020316600290048015610c325780601f10610c0757610100808354040283529160200191610c32565b820191906000526020600020905b815481529060010190602001808311610c1557829003601f168201915b5050505050905090565b6000610c50610c49611c68565b8484611c70565b6001905092915050565b6000600454905090565b6000610c71848484611e67565b610d3284610c7d611c68565b610d2d85604051806060016040528060288152602001612db260289139600360008b73ffffffffffffffffffffffffffffffffffffffff1673ffffffffffffffffffffffffffffffffffffffff1681526020019081526020016000206000610ce3611c68565b73ffffffffffffffffffffffffffffffffffffffff1673ffffffffffffffffffffffffffffffffffffffff1681526020019081526020016000205461212c9092919063ffffffff16565b611c70565b600190509392505050565b600060016000838152602001908152602001600020600201549050919050565b610d846001600084815260200190815260200160002060020154610d7f611c68565b611596565b610dd9576040517f08c379a000000000000000000000000000000000000000000000000000000000815260040180806020018281038252602f815260200180612cc3602f913960400191505060405180910390fd5b610de382826121ec565b5050565b6000610df66000801b33611596565b610e68576040517f08c379a00000000000000000000000000000000000000000000000000000000081526004018080602001828103825260168152602001807f43616c6c6572206973206e6f7420616e2061646d696e0000000000000000000081525060200191505060405180910390fd5b610e927f9f2df0fed2c77648de5860a4cc508cd0818c85b8b8a1ab4ceeef8d981c8956a683611596565b610f04576040517f08c379a00000000000000000000000000000000000000000000000000000000081526004018080602001828103825260178152602001807f4163636f756e74206973206e6f742061206d696e74657200000000000000000081525060200191505060405180910390fd5b610f2e7f9f2df0fed2c77648de5860a4cc508cd0818c85b8b8a1ab4ceeef8d981c8956a6836118f8565b60019050919050565b6000600760009054906101000a900460ff16905090565b610f56611c68565b73ffffffffffffffffffffffffffffffffffffffff168173ffffffffffffffffffffffffffffffffffffffff1614610fd9576040517f08c379a000000000000000000000000000000000000000000000000000000000815260040180806020018281038252602f815260200180612ed7602f913960400191505060405180910390fd5b610fe38282612280565b5050565b6000611090610ff4611c68565b8461108b8560036000611005611c68565b73ffffffffffffffffffffffffffffffffffffffff1673ffffffffffffffffffffffffffffffffffffffff16815260200190815260200160002060008973ffffffffffffffffffffffffffffffffffffffff1673ffffffffffffffffffffffffffffffffffffffff1681526020019081526020016000205461231490919063ffffffff16565b611c70565b6001905092915050565b6110c47f65d7a28e3265b37a6474929f336521b332c1681b933f6cb9f3376673440d862a33611596565b611119576040517f08c379a0000000000000000000000000000000000000000000000000000000008152600401808060200182810382526026815260200180612dda6026913960400191505060405180910390fd5b61112161239c565b565b600061114f7f9f2df0fed2c77648de5860a4cc508cd0818c85b8b8a1ab4ceeef8d981c8956a633611596565b6111c1576040517f08c379a00000000000000000000000000000000000000000000000000000000081526004018080602001828103825260168152602001807f43616c6c6572206973206e6f742061206d696e7465720000000000000000000081525060200191505060405180910390fd5b6111cb838361248f565b6001905092915050565b6111e66111e0611c68565b82612658565b50565b6000600760019054906101000a900460ff16905090565b6000600260008373ffffffffffffffffffffffffffffffffffffffff1673ffffffffffffffffffffffffffffffffffffffff168152602001908152602001600020549050919050565b611251611c68565b73ffffffffffffffffffffffffffffffffffffffff1660008054906101000a900473ffffffffffffffffffffffffffffffffffffffff1673ffffffffffffffffffffffffffffffffffffffff1614611311576040517f08c379a00000000000000000000000000000000000000000000000000000000081526004018080602001828103825260208152602001807f4f776e61626c653a2063616c6c6572206973206e6f7420746865206f776e657281525060200191505060405180910390fd5b600073ffffffffffffffffffffffffffffffffffffffff1660008054906101000a900473ffffffffffffffffffffffffffffffffffffffff1673ffffffffffffffffffffffffffffffffffffffff167f8be0079c531659141344cd1fd0a4f28419497f9722a3daafe3b4186f6b6457e060405160405180910390a360008060006101000a81548173ffffffffffffffffffffffffffffffffffffffff021916908373ffffffffffffffffffffffffffffffffffffffff160217905550565b600061140e82604051806060016040528060248152602001612e00602491396113ff866113fa611c68565b611982565b61212c9092919063ffffffff16565b90506114228361141c611c68565b83611c70565b61142c8383612658565b505050565b61145b7f65d7a28e3265b37a6474929f336521b332c1681b933f6cb9f3376673440d862a33611596565b6114b0576040517f08c379a0000000000000000000000000000000000000000000000000000000008152600401808060200182810382526024815260200180612e8e6024913960400191505060405180910390fd5b6114b861281e565b565b60006114c5826111d5565b7f678514b7cf79bf9491f36a8d5a3730345aef40128ab2a0c5c8dd3757655f9f0284848460405180806020018381526020018281038252858582818152602001925080828437600081840152601f19601f82011690508083019250505094505050505060405180910390a1600190509392505050565b60008060009054906101000a900473ffffffffffffffffffffffffffffffffffffffff16905090565b600061158e826001600086815260200190815260200160002060000161291290919063ffffffff16565b905092915050565b60006115c0826001600086815260200190815260200160002060000161292c90919063ffffffff16565b905092915050565b606060068054600181600116156101000203166002900480601f0160208091040260200160405190810160405280929190818152602001828054600181600116156101000203166002900480156116605780601f1061163557610100808354040283529160200191611660565b820191906000526020600020905b81548152906001019060200180831161164357829003601f168201915b5050505050905090565b60006116796000801b33611596565b6116eb576040517f08c379a00000000000000000000000000000000000000000000000000000000081526004018080602001828103825260168152602001807f43616c6c6572206973206e6f7420616e2061646d696e0000000000000000000081525060200191505060405180910390fd5b6117157f9f2df0fed2c77648de5860a4cc508cd0818c85b8b8a1ab4ceeef8d981c8956a683611596565b15611788576040517f08c379a000000000000000000000000000000000000000000000000000000000815260040180806020018281038252601b8152602001807f4163636f756e7420697320616c72656164792061206d696e746572000000000081525060200191505060405180910390fd5b6117b27f9f2df0fed2c77648de5860a4cc508cd0818c85b8b8a1ab4ceeef8d981c8956a683610d5d565b60019050919050565b6000801b81565b60006118856117cf611c68565b8461188085604051806060016040528060258152602001612eb260259139600360006117f9611c68565b73ffffffffffffffffffffffffffffffffffffffff1673ffffffffffffffffffffffffffffffffffffffff16815260200190815260200160002060008a73ffffffffffffffffffffffffffffffffffffffff1673ffffffffffffffffffffffffffffffffffffffff1681526020019081526020016000205461212c9092919063ffffffff16565b611c70565b6001905092915050565b60006118a361189c611c68565b8484611e67565b6001905092915050565b60006118cd6001600084815260200190815260200160002060000161295c565b9050919050565b7f9f2df0fed2c77648de5860a4cc508cd0818c85b8b8a1ab4ceeef8d981c8956a681565b61191f600160008481526020019081526020016000206002015461191a611c68565b611596565b611974576040517f08c379a0000000000000000000000000000000000000000000000000000000008152600401808060200182810382526030815260200180612d826030913960400191505060405180910390fd5b61197e8282612280565b5050565b6000600360008473ffffffffffffffffffffffffffffffffffffffff1673ffffffffffffffffffffffffffffffffffffffff16815260200190815260200160002060008373ffffffffffffffffffffffffffffffffffffffff1673ffffffffffffffffffffffffffffffffffffffff16815260200190815260200160002054905092915050565b7f65d7a28e3265b37a6474929f336521b332c1681b933f6cb9f3376673440d862a81565b611a35611c68565b73ffffffffffffffffffffffffffffffffffffffff1660008054906101000a900473ffffffffffffffffffffffffffffffffffffffff1673ffffffffffffffffffffffffffffffffffffffff1614611af5576040517f08c379a00000000000000000000000000000000000000000000000000000000081526004018080602001828103825260208152602001807f4f776e61626c653a2063616c6c6572206973206e6f7420746865206f776e657281525060200191505060405180910390fd5b600073ffffffffffffffffffffffffffffffffffffffff168173ffffffffffffffffffffffffffffffffffffffff161415611b7b576040517f08c379a0000000000000000000000000000000000000000000000000000000008152600401808060200182810382526026815260200180612d146026913960400191505060405180910390fd5b8073ffffffffffffffffffffffffffffffffffffffff1660008054906101000a900473ffffffffffffffffffffffffffffffffffffffff1673ffffffffffffffffffffffffffffffffffffffff167f8be0079c531659141344cd1fd0a4f28419497f9722a3daafe3b4186f6b6457e060405160405180910390a3806000806101000a81548173ffffffffffffffffffffffffffffffffffffffff021916908373ffffffffffffffffffffffffffffffffffffffff16021790555050565b6000611c60836000018373ffffffffffffffffffffffffffffffffffffffff1660001b612971565b905092915050565b600033905090565b600073ffffffffffffffffffffffffffffffffffffffff168373ffffffffffffffffffffffffffffffffffffffff161415611cf6576040517f08c379a0000000000000000000000000000000000000000000000000000000008152600401808060200182810382526024815260200180612e6a6024913960400191505060405180910390fd5b600073ffffffffffffffffffffffffffffffffffffffff168273ffffffffffffffffffffffffffffffffffffffff161415611d7c576040517f08c379a0000000000000000000000000000000000000000000000000000000008152600401808060200182810382526022815260200180612d3a6022913960400191505060405180910390fd5b80600360008573ffffffffffffffffffffffffffffffffffffffff1673ffffffffffffffffffffffffffffffffffffffff16815260200190815260200160002060008473ffffffffffffffffffffffffffffffffffffffff1673ffffffffffffffffffffffffffffffffffffffff168152602001908152602001600020819055508173ffffffffffffffffffffffffffffffffffffffff168373ffffffffffffffffffffffffffffffffffffffff167f8c5be1e5ebec7d5bd14f71427d1e84f3dd0314c0f7b2291e5b200ac8c7c3b925836040518082815260200191505060405180910390a3505050565b600073ffffffffffffffffffffffffffffffffffffffff168373ffffffffffffffffffffffffffffffffffffffff161415611eed576040517f08c379a0000000000000000000000000000000000000000000000000000000008152600401808060200182810382526025815260200180612e456025913960400191505060405180910390fd5b600073ffffffffffffffffffffffffffffffffffffffff168273ffffffffffffffffffffffffffffffffffffffff161415611f73576040517f08c379a0000000000000000000000000000000000000000000000000000000008152600401808060200182810382526023815260200180612ca06023913960400191505060405180910390fd5b611f7e8383836129e1565b611fea81604051806060016040528060268152602001612d5c60269139600260008773ffffffffffffffffffffffffffffffffffffffff1673ffffffffffffffffffffffffffffffffffffffff1681526020019081526020016000205461212c9092919063ffffffff16565b600260008573ffffffffffffffffffffffffffffffffffffffff1673ffffffffffffffffffffffffffffffffffffffff1681526020019081526020016000208190555061207f81600260008573ffffffffffffffffffffffffffffffffffffffff1673ffffffffffffffffffffffffffffffffffffffff1681526020019081526020016000205461231490919063ffffffff16565b600260008473ffffffffffffffffffffffffffffffffffffffff1673ffffffffffffffffffffffffffffffffffffffff168152602001908152602001600020819055508173ffffffffffffffffffffffffffffffffffffffff168373ffffffffffffffffffffffffffffffffffffffff167fddf252ad1be2c89b69c2b068fc378daa952ba7f163c4a11628f55a4df523b3ef836040518082815260200191505060405180910390a3505050565b60008383111582906121d9576040517f08c379a00000000000000000000000000000000000000000000000000000000081526004018080602001828103825283818151815260200191508051906020019080838360005b8381101561219e578082015181840152602081019050612183565b50505050905090810190601f1680156121cb5780820380516001836020036101000a031916815260200191505b509250505060405180910390fd5b5060008385039050809150509392505050565b6122148160016000858152602001908152602001600020600001611c3890919063ffffffff16565b1561227c57612221611c68565b73ffffffffffffffffffffffffffffffffffffffff168173ffffffffffffffffffffffffffffffffffffffff16837f2f8788117e7eff1d82e926ec794901d17c78024a50270940304540a733656f0d60405160405180910390a45b5050565b6122a881600160008581526020019081526020016000206000016129f190919063ffffffff16565b15612310576122b5611c68565b73ffffffffffffffffffffffffffffffffffffffff168173ffffffffffffffffffffffffffffffffffffffff16837ff6391f5c32d9c69d2a47ea670b442974b53935d1edc7fd64eb21e047a839171b60405160405180910390a45b5050565b600080828401905083811015612392576040517f08c379a000000000000000000000000000000000000000000000000000000000815260040180806020018281038252601b8152602001807f536166654d6174683a206164646974696f6e206f766572666c6f77000000000081525060200191505060405180910390fd5b8091505092915050565b600760019054906101000a900460ff1661241e576040517f08c379a00000000000000000000000000000000000000000000000000000000081526004018080602001828103825260148152602001807f5061757361626c653a206e6f742070617573656400000000000000000000000081525060200191505060405180910390fd5b6000600760016101000a81548160ff0219169083151502179055507f5db9ee0a495bf2e6ff9c91a7834c1ba4fdd244a5e8aa4e537bd38aeae4b073aa612462611c68565b604051808273ffffffffffffffffffffffffffffffffffffffff16815260200191505060405180910390a1565b600073ffffffffffffffffffffffffffffffffffffffff168273ffffffffffffffffffffffffffffffffffffffff161415612532576040517f08c379a000000000000000000000000000000000000000000000000000000000815260040180806020018281038252601f8152602001807f45524332303a206d696e7420746f20746865207a65726f20616464726573730081525060200191505060405180910390fd5b61253e600083836129e1565b6125538160045461231490919063ffffffff16565b6004819055506125ab81600260008573ffffffffffffffffffffffffffffffffffffffff1673ffffffffffffffffffffffffffffffffffffffff1681526020019081526020016000205461231490919063ffffffff16565b600260008473ffffffffffffffffffffffffffffffffffffffff1673ffffffffffffffffffffffffffffffffffffffff168152602001908152602001600020819055508173ffffffffffffffffffffffffffffffffffffffff16600073ffffffffffffffffffffffffffffffffffffffff167fddf252ad1be2c89b69c2b068fc378daa952ba7f163c4a11628f55a4df523b3ef836040518082815260200191505060405180910390a35050565b600073ffffffffffffffffffffffffffffffffffffffff168273ffffffffffffffffffffffffffffffffffffffff1614156126de576040517f08c379a0000000000000000000000000000000000000000000000000000000008152600401808060200182810382526021815260200180612e246021913960400191505060405180910390fd5b6126ea826000836129e1565b61275681604051806060016040528060228152602001612cf260229139600260008673ffffffffffffffffffffffffffffffffffffffff1673ffffffffffffffffffffffffffffffffffffffff1681526020019081526020016000205461212c9092919063ffffffff16565b600260008473ffffffffffffffffffffffffffffffffffffffff1673ffffffffffffffffffffffffffffffffffffffff168152602001908152602001600020819055506127ae81600454612a2190919063ffffffff16565b600481905550600073ffffffffffffffffffffffffffffffffffffffff168273ffffffffffffffffffffffffffffffffffffffff167fddf252ad1be2c89b69c2b068fc378daa952ba7f163c4a11628f55a4df523b3ef836040518082815260200191505060405180910390a35050565b600760019054906101000a900460ff16156128a1576040517f08c379a00000000000000000000000000000000000000000000000000000000081526004018080602001828103825260108152602001807f5061757361626c653a207061757365640000000000000000000000000000000081525060200191505060405180910390fd5b6001600760016101000a81548160ff0219169083151502179055507f62e78cea01bee320cd4e420270b5ea74000d11b0c9f74754ebdbfc544b05a2586128e5611c68565b604051808273ffffffffffffffffffffffffffffffffffffffff16815260200191505060405180910390a1565b60006129218360000183612a6b565b60001c905092915050565b6000612954836000018373ffffffffffffffffffffffffffffffffffffffff1660001b612aee565b905092915050565b600061296a82600001612b11565b9050919050565b600061297d8383612aee565b6129d65782600001829080600181540180825580915050600190039060005260206000200160009091909190915055826000018054905083600101600084815260200190815260200160002081905550600190506129db565b600090505b92915050565b6129ec838383612b22565b505050565b6000612a19836000018373ffffffffffffffffffffffffffffffffffffffff1660001b612b90565b905092915050565b6000612a6383836040518060400160405280601e81526020017f536166654d6174683a207375627472616374696f6e206f766572666c6f77000081525061212c565b905092915050565b600081836000018054905011612acc576040517f08c379a0000000000000000000000000000000000000000000000000000000008152600401808060200182810382526022815260200180612c7e6022913960400191505060405180910390fd5b826000018281548110612adb57fe5b9060005260206000200154905092915050565b600080836001016000848152602001908152602001600020541415905092915050565b600081600001805490509050919050565b612b2d838383612c78565b612b356111e9565b15612b8b576040517f08c379a000000000000000000000000000000000000000000000000000000000815260040180806020018281038252602a815260200180612f06602a913960400191505060405180910390fd5b505050565b60008083600101600084815260200190815260200160002054905060008114612c6c5760006001820390506000600186600001805490500390506000866000018281548110612bdb57fe5b9060005260206000200154905080876000018481548110612bf857fe5b9060005260206000200181905550600183018760010160008381526020019081526020016000208190555086600001805480612c3057fe5b60019003818190600052602060002001600090559055866001016000878152602001908152602001600020600090556001945050505050612c72565b60009150505b92915050565b50505056fe456e756d657261626c655365743a20696e646578206f7574206f6620626f756e647345524332303a207472616e7366657220746f20746865207a65726f2061646472657373416363657373436f6e74726f6c3a2073656e646572206d75737420626520616e2061646d696e20746f206772616e7445524332303a206275726e20616d6f756e7420657863656564732062616c616e63654f776e61626c653a206e6577206f776e657220697320746865207a65726f206164647265737345524332303a20617070726f766520746f20746865207a65726f206164647265737345524332303a207472616e7366657220616d6f756e7420657863656564732062616c616e6365416363657373436f6e74726f6c3a2073656e646572206d75737420626520616e2061646d696e20746f207265766f6b6545524332303a207472616e7366657220616d6f756e74206578636565647320616c6c6f77616e63655746494c3a206d75737420686176652070617573657220726f6c6520746f20756e706175736545524332303a206275726e20616d6f756e74206578636565647320616c6c6f77616e636545524332303a206275726e2066726f6d20746865207a65726f206164647265737345524332303a207472616e736665722066726f6d20746865207a65726f206164647265737345524332303a20617070726f76652066726f6d20746865207a65726f20616464726573735746494c3a206d75737420686176652070617573657220726f6c6520746f20706175736545524332303a2064656372656173656420616c6c6f77616e63652062656c6f77207a65726f416363657373436f6e74726f6c3a2063616e206f6e6c792072656e6f756e636520726f6c657320666f722073656c6645524332305061757361626c653a20746f6b656e207472616e73666572207768696c6520706175736564a26469706673582212200c26408dcb40b675eaeee9d1cd40c73a06db8f71b4049d1f383f67eeb3cca73c64736f6c634300060c0033",
  "immutableReferences": {},
  "source": "/// SPDX-License-Identifier: GPL-3.0\npragma solidity 0.6.12;\n\n/// @title WFIL\n/// @author Nazzareno Massari @naszam\n/// @notice Wrapped Filecoin\n/// @dev All function calls are currently implemented without side effects through TDD approach\n/// @dev OpenZeppelin library is used for secure contract development\n\n/*\n    \n    \n    \n  \n      \n*/\n\n\nimport \"@openzeppelin/contracts/access/Ownable.sol\";\nimport \"@openzeppelin/contracts/access/AccessControl.sol\";\nimport \"@openzeppelin/contracts/token/ERC20/ERC20.sol\";\nimport \"@openzeppelin/contracts/token/ERC20/ERC20Burnable.sol\";\nimport \"@openzeppelin/contracts/token/ERC20/ERC20Pausable.sol\";\n\n\n\ncontract WFIL is Ownable, AccessControl, ERC20Burnable, ERC20Pausable {\n\n  bytes32 public constant MINTER_ROLE = keccak256(\"MINTER_ROLE\");\n  bytes32 public constant PAUSER_ROLE = keccak256(\"PAUSER_ROLE\");\n\n\n  event Unwrapped(string filaddress, uint amount);\n\n  constructor() public ERC20(\"Wrapped Filecoin\", \"WFIL\"){\n    _setupRole(DEFAULT_ADMIN_ROLE, owner());\n\n    _setupRole(MINTER_ROLE, owner());\n    _setupRole(PAUSER_ROLE, owner());\n\n  }\n\n  /// @dev Modifiers\n  modifier onlyAdmin() {\n     require(hasRole(DEFAULT_ADMIN_ROLE, msg.sender), \"Caller is not an admin\");\n     _;\n  }\n\n  modifier onlyMinter() {\n      require(hasRole(MINTER_ROLE, msg.sender), \"Caller is not a minter\");\n      _;\n  }\n\n  /// @notice Mint new WFIL\n  /// @dev Access restricted only for Minters\n  /// @param to Address of the recipient\n  /// @param amount Amount of WFIL issued\n  /// @return True if WFIL is successfully minted\n  function mint(address to, uint256 amount) external onlyMinter returns (bool) {\n      _mint(to, amount);\n      return true;\n  }\n\n  /// @notice Burn WFIL\n  /// @dev Emit an event with the Filecoin Address and amount to UI\n  /// @param filaddress The Filecoin Address to uwrap WFIL\n  /// @param amount The amount of WFIL to unwrap\n  /// @return True if WFIL is successfully unwrapped\n  function unwrap(string calldata filaddress, uint amount) external returns (bool) {\n    burn(amount);\n    emit Unwrapped(filaddress, amount);\n    return true;\n  }\n\n  /// @notice Add a new Minter\n  /// @dev Access restricted only for Admins\n  /// @param account Address of the new Minter\n  /// @return True if the account address is added as Minter\n  function addMinter(address account) external onlyAdmin returns (bool) {\n    require(!hasRole(MINTER_ROLE, account), \"Account is already a minter\");\n    grantRole(MINTER_ROLE, account);\n    return true;\n  }\n\n  /// @notice Remove a Minter\n  /// @dev Access restricted only for Admins\n  /// @param account Address of the Minter\n  /// @return True if the account address is removed as Minter\n  function removeMinter(address account) external onlyAdmin returns (bool) {\n    require(hasRole(MINTER_ROLE, account), \"Account is not a minter\");\n    revokeRole(MINTER_ROLE, account);\n    return true;\n  }\n\n  /// @notice Pause all the functions\n  /// @dev the caller must have the 'PAUSER_ROLE'\n  function pause() external {\n      require(hasRole(PAUSER_ROLE, msg.sender), \"WFIL: must have pauser role to pause\");\n      _pause();\n  }\n\n  /// @notice Unpause all the functions\n  /// @dev the caller must have the 'PAUSER_ROLE'\n  function unpause() external {\n      require(hasRole(PAUSER_ROLE, msg.sender), \"WFIL: must have pauser role to unpause\");\n      _unpause();\n  }\n\n  /// @notice Hook to pause _mint(), _transfer() and _burn()\n  /// @dev Override ERC20 and ERC20Pausable Hooks\n  /// @param from Sender address\n  /// @param to Recipient address\n  /// @param amount Token amount \n  function _beforeTokenTransfer(address from, address to, uint256 amount) internal override(ERC20, ERC20Pausable) {\n      super._beforeTokenTransfer(from, to, amount);\n  }\n\n}\n",
  "sourcePath": "/home/hackfs/wfil/contracts/WFIL.sol",
  "compiler": {
    "name": "solc",
    "version": "0.6.12+commit.27d51765.Emscripten.clang"
  },
  "schemaVersion": "3.2.3",
  "updatedAt": "2020-07-30T11:45:04.286Z",
  "networkType": "ethereum",
  "devdoc": {
    "kind": "dev",
    "methods": {
      "addMinter(address)": {
        "details": "Access restricted only for Admins",
        "params": {
          "account": "Address of the new Minter"
        },
        "returns": {
          "_0": "True if the account address is added as Minter"
        }
      },
      "allowance(address,address)": {
        "details": "See {IERC20-allowance}."
      },
      "approve(address,uint256)": {
        "details": "See {IERC20-approve}. Requirements: - `spender` cannot be the zero address."
      },
      "balanceOf(address)": {
        "details": "See {IERC20-balanceOf}."
      },
      "burn(uint256)": {
        "details": "Destroys `amount` tokens from the caller. See {ERC20-_burn}."
      },
      "burnFrom(address,uint256)": {
        "details": "Destroys `amount` tokens from `account`, deducting from the caller's allowance. See {ERC20-_burn} and {ERC20-allowance}. Requirements: - the caller must have allowance for ``accounts``'s tokens of at least `amount`."
      },
      "decimals()": {
        "details": "Returns the number of decimals used to get its user representation. For example, if `decimals` equals `2`, a balance of `505` tokens should be displayed to a user as `5,05` (`505 / 10 ** 2`). Tokens usually opt for a value of 18, imitating the relationship between Ether and Wei. This is the value {ERC20} uses, unless {_setupDecimals} is called. NOTE: This information is only used for _display_ purposes: it in no way affects any of the arithmetic of the contract, including {IERC20-balanceOf} and {IERC20-transfer}."
      },
      "decreaseAllowance(address,uint256)": {
        "details": "Atomically decreases the allowance granted to `spender` by the caller. This is an alternative to {approve} that can be used as a mitigation for problems described in {IERC20-approve}. Emits an {Approval} event indicating the updated allowance. Requirements: - `spender` cannot be the zero address. - `spender` must have allowance for the caller of at least `subtractedValue`."
      },
      "getRoleAdmin(bytes32)": {
        "details": "Returns the admin role that controls `role`. See {grantRole} and {revokeRole}. To change a role's admin, use {_setRoleAdmin}."
      },
      "getRoleMember(bytes32,uint256)": {
        "details": "Returns one of the accounts that have `role`. `index` must be a value between 0 and {getRoleMemberCount}, non-inclusive. Role bearers are not sorted in any particular way, and their ordering may change at any point. WARNING: When using {getRoleMember} and {getRoleMemberCount}, make sure you perform all queries on the same block. See the following https://forum.openzeppelin.com/t/iterating-over-elements-on-enumerableset-in-openzeppelin-contracts/2296[forum post] for more information."
      },
      "getRoleMemberCount(bytes32)": {
        "details": "Returns the number of accounts that have `role`. Can be used together with {getRoleMember} to enumerate all bearers of a role."
      },
      "grantRole(bytes32,address)": {
        "details": "Grants `role` to `account`. If `account` had not been already granted `role`, emits a {RoleGranted} event. Requirements: - the caller must have ``role``'s admin role."
      },
      "hasRole(bytes32,address)": {
        "details": "Returns `true` if `account` has been granted `role`."
      },
      "increaseAllowance(address,uint256)": {
        "details": "Atomically increases the allowance granted to `spender` by the caller. This is an alternative to {approve} that can be used as a mitigation for problems described in {IERC20-approve}. Emits an {Approval} event indicating the updated allowance. Requirements: - `spender` cannot be the zero address."
      },
      "mint(address,uint256)": {
        "details": "Access restricted only for Minters",
        "params": {
          "amount": "Amount of WFIL issued",
          "to": "Address of the recipient"
        },
        "returns": {
          "_0": "True if WFIL is successfully minted"
        }
      },
      "name()": {
        "details": "Returns the name of the token."
      },
      "owner()": {
        "details": "Returns the address of the current owner."
      },
      "pause()": {
        "details": "the caller must have the 'PAUSER_ROLE'"
      },
      "paused()": {
        "details": "Returns true if the contract is paused, and false otherwise."
      },
      "removeMinter(address)": {
        "details": "Access restricted only for Admins",
        "params": {
          "account": "Address of the Minter"
        },
        "returns": {
          "_0": "True if the account address is removed as Minter"
        }
      },
      "renounceOwnership()": {
        "details": "Leaves the contract without owner. It will not be possible to call `onlyOwner` functions anymore. Can only be called by the current owner. NOTE: Renouncing ownership will leave the contract without an owner, thereby removing any functionality that is only available to the owner."
      },
      "renounceRole(bytes32,address)": {
        "details": "Revokes `role` from the calling account. Roles are often managed via {grantRole} and {revokeRole}: this function's purpose is to provide a mechanism for accounts to lose their privileges if they are compromised (such as when a trusted device is misplaced). If the calling account had been granted `role`, emits a {RoleRevoked} event. Requirements: - the caller must be `account`."
      },
      "revokeRole(bytes32,address)": {
        "details": "Revokes `role` from `account`. If `account` had been granted `role`, emits a {RoleRevoked} event. Requirements: - the caller must have ``role``'s admin role."
      },
      "symbol()": {
        "details": "Returns the symbol of the token, usually a shorter version of the name."
      },
      "totalSupply()": {
        "details": "See {IERC20-totalSupply}."
      },
      "transfer(address,uint256)": {
        "details": "See {IERC20-transfer}. Requirements: - `recipient` cannot be the zero address. - the caller must have a balance of at least `amount`."
      },
      "transferFrom(address,address,uint256)": {
        "details": "See {IERC20-transferFrom}. Emits an {Approval} event indicating the updated allowance. This is not required by the EIP. See the note at the beginning of {ERC20}; Requirements: - `sender` and `recipient` cannot be the zero address. - `sender` must have a balance of at least `amount`. - the caller must have allowance for ``sender``'s tokens of at least `amount`."
      },
      "transferOwnership(address)": {
        "details": "Transfers ownership of the contract to a new account (`newOwner`). Can only be called by the current owner."
      },
      "unpause()": {
        "details": "the caller must have the 'PAUSER_ROLE'"
      },
      "unwrap(string,uint256)": {
        "details": "Emit an event with the Filecoin Address and amount to UI",
        "params": {
          "amount": "The amount of WFIL to unwrap",
          "filaddress": "The Filecoin Address to uwrap WFIL"
        },
        "returns": {
          "_0": "True if WFIL is successfully unwrapped"
        }
      }
    },
    "version": 1
  },
  "userdoc": {
    "kind": "user",
    "methods": {
      "addMinter(address)": {
        "notice": "Add a new Minter"
      },
      "mint(address,uint256)": {
        "notice": "Mint new WFIL"
      },
      "pause()": {
        "notice": "Pause all the functions"
      },
      "removeMinter(address)": {
        "notice": "Remove a Minter"
      },
      "unpause()": {
        "notice": "Unpause all the functions"
      },
      "unwrap(string,uint256)": {
        "notice": "Burn WFIL"
      }
    },
    "version": 1
  }
}