{
  "contractName": "WFIL",
  "abi": [
    {
      "inputs": [
        {
          "internalType": "address",
          "name": "feeTo_",
          "type": "address"
        },
        {
          "internalType": "uint256",
          "name": "fee_",
          "type": "uint256"
        }
      ],
      "stateMutability": "nonpayable",
      "type": "constructor"
    },
    {
      "anonymous": false,
      "inputs": [
        {
          "indexed": true,
          "internalType": "address",
          "name": "owner",
          "type": "address"
        },
        {
          "indexed": true,
          "internalType": "address",
          "name": "spender",
          "type": "address"
        },
        {
          "indexed": false,
          "internalType": "uint256",
          "name": "value",
          "type": "uint256"
        }
      ],
      "name": "Approval",
      "type": "event"
    },
    {
      "anonymous": false,
      "inputs": [
        {
          "indexed": false,
          "internalType": "uint256",
          "name": "fee",
          "type": "uint256"
        }
      ],
      "name": "NewFee",
      "type": "event"
    },
    {
      "anonymous": false,
      "inputs": [
        {
          "indexed": false,
          "internalType": "address",
          "name": "feeTo",
          "type": "address"
        }
      ],
      "name": "NewFeeTo",
      "type": "event"
    },
    {
      "anonymous": false,
      "inputs": [
        {
          "indexed": false,
          "internalType": "address",
          "name": "account",
          "type": "address"
        }
      ],
      "name": "Paused",
      "type": "event"
    },
    {
      "anonymous": false,
      "inputs": [
        {
          "indexed": true,
          "internalType": "bytes32",
          "name": "role",
          "type": "bytes32"
        },
        {
          "indexed": true,
          "internalType": "bytes32",
          "name": "previousAdminRole",
          "type": "bytes32"
        },
        {
          "indexed": true,
          "internalType": "bytes32",
          "name": "newAdminRole",
          "type": "bytes32"
        }
      ],
      "name": "RoleAdminChanged",
      "type": "event"
    },
    {
      "anonymous": false,
      "inputs": [
        {
          "indexed": true,
          "internalType": "bytes32",
          "name": "role",
          "type": "bytes32"
        },
        {
          "indexed": true,
          "internalType": "address",
          "name": "account",
          "type": "address"
        },
        {
          "indexed": true,
          "internalType": "address",
          "name": "sender",
          "type": "address"
        }
      ],
      "name": "RoleGranted",
      "type": "event"
    },
    {
      "anonymous": false,
      "inputs": [
        {
          "indexed": true,
          "internalType": "bytes32",
          "name": "role",
          "type": "bytes32"
        },
        {
          "indexed": true,
          "internalType": "address",
          "name": "account",
          "type": "address"
        },
        {
          "indexed": true,
          "internalType": "address",
          "name": "sender",
          "type": "address"
        }
      ],
      "name": "RoleRevoked",
      "type": "event"
    },
    {
      "anonymous": false,
      "inputs": [
        {
          "indexed": true,
          "internalType": "address",
          "name": "from",
          "type": "address"
        },
        {
          "indexed": true,
          "internalType": "address",
          "name": "to",
          "type": "address"
        },
        {
          "indexed": false,
          "internalType": "uint256",
          "name": "value",
          "type": "uint256"
        }
      ],
      "name": "Transfer",
      "type": "event"
    },
    {
      "anonymous": false,
      "inputs": [
        {
          "indexed": false,
          "internalType": "address",
          "name": "account",
          "type": "address"
        }
      ],
      "name": "Unpaused",
      "type": "event"
    },
    {
      "anonymous": false,
      "inputs": [
        {
          "indexed": false,
          "internalType": "string",
          "name": "filaddress",
          "type": "string"
        },
        {
          "indexed": false,
          "internalType": "uint256",
          "name": "unwrapOut",
          "type": "uint256"
        },
        {
          "indexed": false,
          "internalType": "uint256",
          "name": "unwrapFee",
          "type": "uint256"
        }
      ],
      "name": "Unwrapped",
      "type": "event"
    },
    {
      "anonymous": false,
      "inputs": [
        {
          "indexed": false,
          "internalType": "address",
          "name": "to",
          "type": "address"
        },
        {
          "indexed": false,
          "internalType": "uint256",
          "name": "wrapOut",
          "type": "uint256"
        },
        {
          "indexed": false,
          "internalType": "uint256",
          "name": "wrapFee",
          "type": "uint256"
        }
      ],
      "name": "Wrapped",
      "type": "event"
    },
    {
      "stateMutability": "nonpayable",
      "type": "fallback"
    },
    {
      "inputs": [],
      "name": "DEFAULT_ADMIN_ROLE",
      "outputs": [
        {
          "internalType": "bytes32",
          "name": "",
          "type": "bytes32"
        }
      ],
      "stateMutability": "view",
      "type": "function",
      "constant": true
    },
    {
      "inputs": [],
      "name": "FEE_SETTER_ROLE",
      "outputs": [
        {
          "internalType": "bytes32",
          "name": "",
          "type": "bytes32"
        }
      ],
      "stateMutability": "view",
      "type": "function",
      "constant": true
    },
    {
      "inputs": [],
      "name": "MINTER_ROLE",
      "outputs": [
        {
          "internalType": "bytes32",
          "name": "",
          "type": "bytes32"
        }
      ],
      "stateMutability": "view",
      "type": "function",
      "constant": true
    },
    {
      "inputs": [],
      "name": "PAUSER_ROLE",
      "outputs": [
        {
          "internalType": "bytes32",
          "name": "",
          "type": "bytes32"
        }
      ],
      "stateMutability": "view",
      "type": "function",
      "constant": true
    },
    {
      "inputs": [
        {
          "internalType": "address",
          "name": "owner",
          "type": "address"
        },
        {
          "internalType": "address",
          "name": "spender",
          "type": "address"
        }
      ],
      "name": "allowance",
      "outputs": [
        {
          "internalType": "uint256",
          "name": "",
          "type": "uint256"
        }
      ],
      "stateMutability": "view",
      "type": "function",
      "constant": true
    },
    {
      "inputs": [
        {
          "internalType": "address",
          "name": "spender",
          "type": "address"
        },
        {
          "internalType": "uint256",
          "name": "amount",
          "type": "uint256"
        }
      ],
      "name": "approve",
      "outputs": [
        {
          "internalType": "bool",
          "name": "",
          "type": "bool"
        }
      ],
      "stateMutability": "nonpayable",
      "type": "function"
    },
    {
      "inputs": [
        {
          "internalType": "address",
          "name": "account",
          "type": "address"
        }
      ],
      "name": "balanceOf",
      "outputs": [
        {
          "internalType": "uint256",
          "name": "",
          "type": "uint256"
        }
      ],
      "stateMutability": "view",
      "type": "function",
      "constant": true
    },
    {
      "inputs": [],
      "name": "decimals",
      "outputs": [
        {
          "internalType": "uint8",
          "name": "",
          "type": "uint8"
        }
      ],
      "stateMutability": "view",
      "type": "function",
      "constant": true
    },
    {
      "inputs": [
        {
          "internalType": "address",
          "name": "spender",
          "type": "address"
        },
        {
          "internalType": "uint256",
          "name": "subtractedValue",
          "type": "uint256"
        }
      ],
      "name": "decreaseAllowance",
      "outputs": [
        {
          "internalType": "bool",
          "name": "",
          "type": "bool"
        }
      ],
      "stateMutability": "nonpayable",
      "type": "function"
    },
    {
      "inputs": [
        {
          "internalType": "bytes32",
          "name": "role",
          "type": "bytes32"
        }
      ],
      "name": "getRoleAdmin",
      "outputs": [
        {
          "internalType": "bytes32",
          "name": "",
          "type": "bytes32"
        }
      ],
      "stateMutability": "view",
      "type": "function",
      "constant": true
    },
    {
      "inputs": [
        {
          "internalType": "bytes32",
          "name": "role",
          "type": "bytes32"
        },
        {
          "internalType": "uint256",
          "name": "index",
          "type": "uint256"
        }
      ],
      "name": "getRoleMember",
      "outputs": [
        {
          "internalType": "address",
          "name": "",
          "type": "address"
        }
      ],
      "stateMutability": "view",
      "type": "function",
      "constant": true
    },
    {
      "inputs": [
        {
          "internalType": "bytes32",
          "name": "role",
          "type": "bytes32"
        }
      ],
      "name": "getRoleMemberCount",
      "outputs": [
        {
          "internalType": "uint256",
          "name": "",
          "type": "uint256"
        }
      ],
      "stateMutability": "view",
      "type": "function",
      "constant": true
    },
    {
      "inputs": [
        {
          "internalType": "bytes32",
          "name": "role",
          "type": "bytes32"
        },
        {
          "internalType": "address",
          "name": "account",
          "type": "address"
        }
      ],
      "name": "grantRole",
      "outputs": [],
      "stateMutability": "nonpayable",
      "type": "function"
    },
    {
      "inputs": [
        {
          "internalType": "bytes32",
          "name": "role",
          "type": "bytes32"
        },
        {
          "internalType": "address",
          "name": "account",
          "type": "address"
        }
      ],
      "name": "hasRole",
      "outputs": [
        {
          "internalType": "bool",
          "name": "",
          "type": "bool"
        }
      ],
      "stateMutability": "view",
      "type": "function",
      "constant": true
    },
    {
      "inputs": [
        {
          "internalType": "address",
          "name": "spender",
          "type": "address"
        },
        {
          "internalType": "uint256",
          "name": "addedValue",
          "type": "uint256"
        }
      ],
      "name": "increaseAllowance",
      "outputs": [
        {
          "internalType": "bool",
          "name": "",
          "type": "bool"
        }
      ],
      "stateMutability": "nonpayable",
      "type": "function"
    },
    {
      "inputs": [],
      "name": "name",
      "outputs": [
        {
          "internalType": "string",
          "name": "",
          "type": "string"
        }
      ],
      "stateMutability": "view",
      "type": "function",
      "constant": true
    },
    {
      "inputs": [],
      "name": "paused",
      "outputs": [
        {
          "internalType": "bool",
          "name": "",
          "type": "bool"
        }
      ],
      "stateMutability": "view",
      "type": "function",
      "constant": true
    },
    {
      "inputs": [
        {
          "internalType": "bytes32",
          "name": "role",
          "type": "bytes32"
        },
        {
          "internalType": "address",
          "name": "account",
          "type": "address"
        }
      ],
      "name": "renounceRole",
      "outputs": [],
      "stateMutability": "nonpayable",
      "type": "function"
    },
    {
      "inputs": [
        {
          "internalType": "bytes32",
          "name": "role",
          "type": "bytes32"
        },
        {
          "internalType": "address",
          "name": "account",
          "type": "address"
        }
      ],
      "name": "revokeRole",
      "outputs": [],
      "stateMutability": "nonpayable",
      "type": "function"
    },
    {
      "inputs": [],
      "name": "symbol",
      "outputs": [
        {
          "internalType": "string",
          "name": "",
          "type": "string"
        }
      ],
      "stateMutability": "view",
      "type": "function",
      "constant": true
    },
    {
      "inputs": [],
      "name": "totalSupply",
      "outputs": [
        {
          "internalType": "uint256",
          "name": "",
          "type": "uint256"
        }
      ],
      "stateMutability": "view",
      "type": "function",
      "constant": true
    },
    {
      "inputs": [
        {
          "internalType": "address",
          "name": "recipient",
          "type": "address"
        },
        {
          "internalType": "uint256",
          "name": "amount",
          "type": "uint256"
        }
      ],
      "name": "transfer",
      "outputs": [
        {
          "internalType": "bool",
          "name": "",
          "type": "bool"
        }
      ],
      "stateMutability": "nonpayable",
      "type": "function"
    },
    {
      "inputs": [
        {
          "internalType": "address",
          "name": "sender",
          "type": "address"
        },
        {
          "internalType": "address",
          "name": "recipient",
          "type": "address"
        },
        {
          "internalType": "uint256",
          "name": "amount",
          "type": "uint256"
        }
      ],
      "name": "transferFrom",
      "outputs": [
        {
          "internalType": "bool",
          "name": "",
          "type": "bool"
        }
      ],
      "stateMutability": "nonpayable",
      "type": "function"
    },
    {
      "inputs": [],
      "name": "fee",
      "outputs": [
        {
          "internalType": "uint256",
          "name": "",
          "type": "uint256"
        }
      ],
      "stateMutability": "view",
      "type": "function",
      "constant": true
    },
    {
      "inputs": [
        {
          "internalType": "uint256",
          "name": "wfilFee",
          "type": "uint256"
        }
      ],
      "name": "setFee",
      "outputs": [
        {
          "internalType": "bool",
          "name": "",
          "type": "bool"
        }
      ],
      "stateMutability": "nonpayable",
      "type": "function"
    },
    {
      "inputs": [
        {
          "internalType": "address",
          "name": "feeTo",
          "type": "address"
        }
      ],
      "name": "setFeeTo",
      "outputs": [
        {
          "internalType": "bool",
          "name": "",
          "type": "bool"
        }
      ],
      "stateMutability": "nonpayable",
      "type": "function"
    },
    {
      "inputs": [
        {
          "internalType": "address",
          "name": "to",
          "type": "address"
        },
        {
          "internalType": "uint256",
          "name": "amount",
          "type": "uint256"
        }
      ],
      "name": "wrap",
      "outputs": [
        {
          "internalType": "bool",
          "name": "",
          "type": "bool"
        }
      ],
      "stateMutability": "nonpayable",
      "type": "function"
    },
    {
      "inputs": [
        {
          "internalType": "string",
          "name": "filaddress",
          "type": "string"
        },
        {
          "internalType": "uint256",
          "name": "amount",
          "type": "uint256"
        }
      ],
      "name": "unwrap",
      "outputs": [
        {
          "internalType": "bool",
          "name": "",
          "type": "bool"
        }
      ],
      "stateMutability": "nonpayable",
      "type": "function"
    },
    {
      "inputs": [],
      "name": "pause",
      "outputs": [],
      "stateMutability": "nonpayable",
      "type": "function"
    },
    {
      "inputs": [],
      "name": "unpause",
      "outputs": [],
      "stateMutability": "nonpayable",
      "type": "function"
    }
  ],
  "bytecode": "0x60806040523480156200001157600080fd5b506040516200350938038062003509833981810160405260408110156200003757600080fd5b8101908080519060200190929190805190602001909291905050506040518060400160405280601081526020017f577261707065642046696c65636f696e000000000000000000000000000000008152506040518060400160405280600481526020017f5746494c000000000000000000000000000000000000000000000000000000008152508160049080519060200190620000d6929190620005ad565b508060059080519060200190620000ef929190620005ad565b506012600660006101000a81548160ff021916908360ff16021790555050506000600660016101000a81548160ff0219169083151502179055506200013e6000801b33620001fe60201b60201c565b620001707f9f2df0fed2c77648de5860a4cc508cd0818c85b8b8a1ab4ceeef8d981c8956a633620001fe60201b60201c565b620001a27f65d7a28e3265b37a6474929f336521b332c1681b933f6cb9f3376673440d862a33620001fe60201b60201c565b620001d47fe6ad9a47fbda1dc18de1eb5eeb7d935e5e81b4748f3cfc61e233e64f8818206033620001fe60201b60201c565b620001e5816200021460201b60201c565b620001f6826200025560201b60201c565b505062000653565b6200021082826200042d60201b60201c565b5050565b806007819055507f63fe946ed58429ac3c5e64d4356ff92c26d7fa1e73586515df8ba9f059ab54a5816040518082815260200191505060405180910390a150565b600073ffffffffffffffffffffffffffffffffffffffff168173ffffffffffffffffffffffffffffffffffffffff161415620002f9576040517f08c379a00000000000000000000000000000000000000000000000000000000081526004018080602001828103825260128152602001807f5746494c3a2073657420746f207a65726f20000000000000000000000000000081525060200191505060405180910390fd5b3073ffffffffffffffffffffffffffffffffffffffff168173ffffffffffffffffffffffffffffffffffffffff1614156200039c576040517f08c379a000000000000000000000000000000000000000000000000000000000815260040180806020018281038252601d8152602001807f5746494c3a2073657420746f20636f6e7472616374206164647265737300000081525060200191505060405180910390fd5b80600860006101000a81548173ffffffffffffffffffffffffffffffffffffffff021916908373ffffffffffffffffffffffffffffffffffffffff1602179055507fd7ecd1f497e38c39a3455e0704e1bddc382baa8059756b571ff24b92cab7ff5481604051808273ffffffffffffffffffffffffffffffffffffffff16815260200191505060405180910390a150565b6200045b81600080858152602001908152602001600020600001620004d060201b620017451790919060201c565b15620004cc57620004716200050860201b60201c565b73ffffffffffffffffffffffffffffffffffffffff168173ffffffffffffffffffffffffffffffffffffffff16837f2f8788117e7eff1d82e926ec794901d17c78024a50270940304540a733656f0d60405160405180910390a45b5050565b600062000500836000018373ffffffffffffffffffffffffffffffffffffffff1660001b6200051060201b60201c565b905092915050565b600033905090565b60006200052483836200058a60201b60201c565b6200057f57826000018290806001815401808255809150506001900390600052602060002001600090919091909150558260000180549050836001016000848152602001908152602001600020819055506001905062000584565b600090505b92915050565b600080836001016000848152602001908152602001600020541415905092915050565b828054600181600116156101000203166002900490600052602060002090601f016020900481019282601f10620005f057805160ff191683800117855562000621565b8280016001018555821562000621579182015b828111156200062057825182559160200191906001019062000603565b5b50905062000630919062000634565b5090565b5b808211156200064f57600081600090555060010162000635565b5090565b612ea680620006636000396000f3fe608060405234801561001057600080fd5b50600436106101de5760003560e01c80639010d07c11610104578063ca15c873116100a2578063ddca3f4311610071578063ddca3f43146109f2578063e63ab1e914610a10578063e934768314610a2e578063f46901ed14610a4c576101df565b8063ca15c873146108cc578063d53913931461090e578063d547741f1461092c578063dd62ed3e1461097a576101df565b8063a217fddf116100de578063a217fddf14610782578063a457c2d7146107a0578063a9059cbb14610804578063bf376c7a14610868576101df565b80639010d07c1461063957806391d148541461069b57806395d89b41146106ff576101df565b806336568abe1161017c57806369fe0e2d1161014b57806369fe0e2d146104fa57806370a082311461053e5780638456cb59146105965780638c70c3bd146105a0576101df565b806336568abe1461041e578063395093511461046c5780633f4ba83a146104d05780635c975abb146104da576101df565b806323b872dd116101b857806323b872dd146102e9578063248a9ca31461036d5780632f2ff15d146103af578063313ce567146103fd576101df565b806306fdde03146101e4578063095ea7b31461026757806318160ddd146102cb576101df565b5b600080fd5b6101ec610aa6565b6040518080602001828103825283818151815260200191508051906020019080838360005b8381101561022c578082015181840152602081019050610211565b50505050905090810190601f1680156102595780820380516001836020036101000a031916815260200191505b509250505060405180910390f35b6102b36004803603604081101561027d57600080fd5b81019080803573ffffffffffffffffffffffffffffffffffffffff16906020019092919080359060200190929190505050610b48565b60405180821515815260200191505060405180910390f35b6102d3610b66565b6040518082815260200191505060405180910390f35b610355600480360360608110156102ff57600080fd5b81019080803573ffffffffffffffffffffffffffffffffffffffff169060200190929190803573ffffffffffffffffffffffffffffffffffffffff16906020019092919080359060200190929190505050610b70565b60405180821515815260200191505060405180910390f35b6103996004803603602081101561038357600080fd5b8101908080359060200190929190505050610c49565b6040518082815260200191505060405180910390f35b6103fb600480360360408110156103c557600080fd5b8101908080359060200190929190803573ffffffffffffffffffffffffffffffffffffffff169060200190929190505050610c68565b005b610405610cf1565b604051808260ff16815260200191505060405180910390f35b61046a6004803603604081101561043457600080fd5b8101908080359060200190929190803573ffffffffffffffffffffffffffffffffffffffff169060200190929190505050610d08565b005b6104b86004803603604081101561048257600080fd5b81019080803573ffffffffffffffffffffffffffffffffffffffff16906020019092919080359060200190929190505050610da1565b60405180821515815260200191505060405180910390f35b6104d8610e54565b005b6104e2610edd565b60405180821515815260200191505060405180910390f35b6105266004803603602081101561051057600080fd5b8101908080359060200190929190505050610ef4565b60405180821515815260200191505060405180910390f35b6105806004803603602081101561055457600080fd5b81019080803573ffffffffffffffffffffffffffffffffffffffff169060200190929190505050610fa4565b6040518082815260200191505060405180910390f35b61059e610fed565b005b610621600480360360408110156105b657600080fd5b81019080803590602001906401000000008111156105d357600080fd5b8201836020820111156105e557600080fd5b8035906020019184600183028401116401000000008311171561060757600080fd5b909192939192939080359060200190929190505050611076565b60405180821515815260200191505060405180910390f35b61066f6004803603604081101561064f57600080fd5b810190808035906020019092919080359060200190929190505050611172565b604051808273ffffffffffffffffffffffffffffffffffffffff16815260200191505060405180910390f35b6106e7600480360360408110156106b157600080fd5b8101908080359060200190929190803573ffffffffffffffffffffffffffffffffffffffff1690602001909291905050506111a3565b60405180821515815260200191505060405180910390f35b6107076111d4565b6040518080602001828103825283818151815260200191508051906020019080838360005b8381101561074757808201518184015260208101905061072c565b50505050905090810190601f1680156107745780820380516001836020036101000a031916815260200191505b509250505060405180910390f35b61078a611276565b6040518082815260200191505060405180910390f35b6107ec600480360360408110156107b657600080fd5b81019080803573ffffffffffffffffffffffffffffffffffffffff1690602001909291908035906020019092919050505061127d565b60405180821515815260200191505060405180910390f35b6108506004803603604081101561081a57600080fd5b81019080803573ffffffffffffffffffffffffffffffffffffffff1690602001909291908035906020019092919050505061134a565b60405180821515815260200191505060405180910390f35b6108b46004803603604081101561087e57600080fd5b81019080803573ffffffffffffffffffffffffffffffffffffffff16906020019092919080359060200190929190505050611368565b60405180821515815260200191505060405180910390f35b6108f8600480360360208110156108e257600080fd5b81019080803590602001909291905050506114e9565b6040518082815260200191505060405180910390f35b61091661150f565b6040518082815260200191505060405180910390f35b6109786004803603604081101561094257600080fd5b8101908080359060200190929190803573ffffffffffffffffffffffffffffffffffffffff169060200190929190505050611533565b005b6109dc6004803603604081101561099057600080fd5b81019080803573ffffffffffffffffffffffffffffffffffffffff169060200190929190803573ffffffffffffffffffffffffffffffffffffffff1690602001909291905050506115bc565b6040518082815260200191505060405180910390f35b6109fa611643565b6040518082815260200191505060405180910390f35b610a1861164d565b6040518082815260200191505060405180910390f35b610a36611671565b6040518082815260200191505060405180910390f35b610a8e60048036036020811015610a6257600080fd5b81019080803573ffffffffffffffffffffffffffffffffffffffff169060200190929190505050611695565b60405180821515815260200191505060405180910390f35b606060048054600181600116156101000203166002900480601f016020809104026020016040519081016040528092919081815260200182805460018160011615610100020316600290048015610b3e5780601f10610b1357610100808354040283529160200191610b3e565b820191906000526020600020905b815481529060010190602001808311610b2157829003601f168201915b5050505050905090565b6000610b5c610b55611775565b848461177d565b6001905092915050565b6000600354905090565b6000610b7d848484611974565b610c3e84610b89611775565b610c3985604051806060016040528060288152602001612d1760289139600260008b73ffffffffffffffffffffffffffffffffffffffff1673ffffffffffffffffffffffffffffffffffffffff1681526020019081526020016000206000610bef611775565b73ffffffffffffffffffffffffffffffffffffffff1673ffffffffffffffffffffffffffffffffffffffff16815260200190815260200160002054611a269092919063ffffffff16565b61177d565b600190509392505050565b6000806000838152602001908152602001600020600201549050919050565b610c8e60008084815260200190815260200160002060020154610c89611775565b6111a3565b610ce3576040517f08c379a000000000000000000000000000000000000000000000000000000000815260040180806020018281038252602f815260200180612c2d602f913960400191505060405180910390fd5b610ced8282611ae6565b5050565b6000600660009054906101000a900460ff16905090565b610d10611775565b73ffffffffffffffffffffffffffffffffffffffff168173ffffffffffffffffffffffffffffffffffffffff1614610d93576040517f08c379a000000000000000000000000000000000000000000000000000000000815260040180806020018281038252602f815260200180612e18602f913960400191505060405180910390fd5b610d9d8282611b79565b5050565b6000610e4a610dae611775565b84610e458560026000610dbf611775565b73ffffffffffffffffffffffffffffffffffffffff1673ffffffffffffffffffffffffffffffffffffffff16815260200190815260200160002060008973ffffffffffffffffffffffffffffffffffffffff1673ffffffffffffffffffffffffffffffffffffffff16815260200190815260200160002054611c0c90919063ffffffff16565b61177d565b6001905092915050565b610e7e7f65d7a28e3265b37a6474929f336521b332c1681b933f6cb9f3376673440d862a336111a3565b610ed3576040517f08c379a0000000000000000000000000000000000000000000000000000000008152600401808060200182810382526026815260200180612d3f6026913960400191505060405180910390fd5b610edb611c94565b565b6000600660019054906101000a900460ff16905090565b6000610f207fe6ad9a47fbda1dc18de1eb5eeb7d935e5e81b4748f3cfc61e233e64f88182060336111a3565b610f92576040517f08c379a00000000000000000000000000000000000000000000000000000000081526004018080602001828103825260208152602001807f5746494c3a2063616c6c6572206973206e6f742061206665652073657474657281525060200191505060405180910390fd5b610f9b82611d87565b60019050919050565b6000600160008373ffffffffffffffffffffffffffffffffffffffff1673ffffffffffffffffffffffffffffffffffffffff168152602001908152602001600020549050919050565b6110177f65d7a28e3265b37a6474929f336521b332c1681b933f6cb9f3376673440d862a336111a3565b61106c576040517f08c379a0000000000000000000000000000000000000000000000000000000008152600401808060200182810382526024815260200180612dcf6024913960400191505060405180910390fd5b611074611dc8565b565b6000806110a26103e861109460075486611ebc90919063ffffffff16565b611f4290919063ffffffff16565b905060006110b98285611f8c90919063ffffffff16565b90506110e833600860009054906101000a900473ffffffffffffffffffffffffffffffffffffffff1684611974565b6110f23382611fd6565b7feb7b16aba875d0a98bc0e68802e945774aed86b69f8e403aff8c7248ea12bf348686838560405180806020018481526020018381526020018281038252868682818152602001925080828437600081840152601f19601f8201169050808301925050509550505050505060405180910390a16001925050509392505050565b600061119b8260008086815260200190815260200160002060000161219c90919063ffffffff16565b905092915050565b60006111cc826000808681526020019081526020016000206000016121b690919063ffffffff16565b905092915050565b606060058054600181600116156101000203166002900480601f01602080910402602001604051908101604052809291908181526020018280546001816001161561010002031660029004801561126c5780601f106112415761010080835404028352916020019161126c565b820191906000526020600020905b81548152906001019060200180831161124f57829003601f168201915b5050505050905090565b6000801b81565b600061134061128a611775565b8461133b85604051806060016040528060258152602001612df360259139600260006112b4611775565b73ffffffffffffffffffffffffffffffffffffffff1673ffffffffffffffffffffffffffffffffffffffff16815260200190815260200160002060008a73ffffffffffffffffffffffffffffffffffffffff1673ffffffffffffffffffffffffffffffffffffffff16815260200190815260200160002054611a269092919063ffffffff16565b61177d565b6001905092915050565b600061135e611357611775565b8484611974565b6001905092915050565b60006113947f9f2df0fed2c77648de5860a4cc508cd0818c85b8b8a1ab4ceeef8d981c8956a6336111a3565b611406576040517f08c379a000000000000000000000000000000000000000000000000000000000815260040180806020018281038252601c8152602001807f5746494c3a2063616c6c6572206973206e6f742061206d696e7465720000000081525060200191505060405180910390fd5b60006114316103e861142360075486611ebc90919063ffffffff16565b611f4290919063ffffffff16565b905060006114488285611f8c90919063ffffffff16565b9050611476600860009054906101000a900473ffffffffffffffffffffffffffffffffffffffff16836121e6565b61148085826121e6565b7f727200b48f3c812bfb404b578574e1c03694edb122d80fa6dcb352a9e4f8a938858284604051808473ffffffffffffffffffffffffffffffffffffffff168152602001838152602001828152602001935050505060405180910390a160019250505092915050565b60006115086000808481526020019081526020016000206000016123af565b9050919050565b7f9f2df0fed2c77648de5860a4cc508cd0818c85b8b8a1ab4ceeef8d981c8956a681565b61155960008084815260200190815260200160002060020154611554611775565b6111a3565b6115ae576040517f08c379a0000000000000000000000000000000000000000000000000000000008152600401808060200182810382526030815260200180612cc66030913960400191505060405180910390fd5b6115b88282611b79565b5050565b6000600260008473ffffffffffffffffffffffffffffffffffffffff1673ffffffffffffffffffffffffffffffffffffffff16815260200190815260200160002060008373ffffffffffffffffffffffffffffffffffffffff1673ffffffffffffffffffffffffffffffffffffffff16815260200190815260200160002054905092915050565b6000600754905090565b7f65d7a28e3265b37a6474929f336521b332c1681b933f6cb9f3376673440d862a81565b7fe6ad9a47fbda1dc18de1eb5eeb7d935e5e81b4748f3cfc61e233e64f8818206081565b60006116c17fe6ad9a47fbda1dc18de1eb5eeb7d935e5e81b4748f3cfc61e233e64f88182060336111a3565b611733576040517f08c379a00000000000000000000000000000000000000000000000000000000081526004018080602001828103825260208152602001807f5746494c3a2063616c6c6572206973206e6f742061206665652073657474657281525060200191505060405180910390fd5b61173c826123c4565b60019050919050565b600061176d836000018373ffffffffffffffffffffffffffffffffffffffff1660001b61259a565b905092915050565b600033905090565b600073ffffffffffffffffffffffffffffffffffffffff168373ffffffffffffffffffffffffffffffffffffffff161415611803576040517f08c379a0000000000000000000000000000000000000000000000000000000008152600401808060200182810382526024815260200180612dab6024913960400191505060405180910390fd5b600073ffffffffffffffffffffffffffffffffffffffff168273ffffffffffffffffffffffffffffffffffffffff161415611889576040517f08c379a0000000000000000000000000000000000000000000000000000000008152600401808060200182810382526022815260200180612c7e6022913960400191505060405180910390fd5b80600260008573ffffffffffffffffffffffffffffffffffffffff1673ffffffffffffffffffffffffffffffffffffffff16815260200190815260200160002060008473ffffffffffffffffffffffffffffffffffffffff1673ffffffffffffffffffffffffffffffffffffffff168152602001908152602001600020819055508173ffffffffffffffffffffffffffffffffffffffff168373ffffffffffffffffffffffffffffffffffffffff167f8c5be1e5ebec7d5bd14f71427d1e84f3dd0314c0f7b2291e5b200ac8c7c3b925836040518082815260200191505060405180910390a3505050565b3073ffffffffffffffffffffffffffffffffffffffff168273ffffffffffffffffffffffffffffffffffffffff161415611a16576040517f08c379a00000000000000000000000000000000000000000000000000000000081526004018080602001828103825260208152602001807f5746494c3a207472616e7366657220746f20746f6b656e20636f6e747261637481525060200191505060405180910390fd5b611a2183838361260a565b505050565b6000838311158290611ad3576040517f08c379a00000000000000000000000000000000000000000000000000000000081526004018080602001828103825283818151815260200191508051906020019080838360005b83811015611a98578082015181840152602081019050611a7d565b50505050905090810190601f168015611ac55780820380516001836020036101000a031916815260200191505b509250505060405180910390fd5b5060008385039050809150509392505050565b611b0d8160008085815260200190815260200160002060000161174590919063ffffffff16565b15611b7557611b1a611775565b73ffffffffffffffffffffffffffffffffffffffff168173ffffffffffffffffffffffffffffffffffffffff16837f2f8788117e7eff1d82e926ec794901d17c78024a50270940304540a733656f0d60405160405180910390a45b5050565b611ba0816000808581526020019081526020016000206000016128cf90919063ffffffff16565b15611c0857611bad611775565b73ffffffffffffffffffffffffffffffffffffffff168173ffffffffffffffffffffffffffffffffffffffff16837ff6391f5c32d9c69d2a47ea670b442974b53935d1edc7fd64eb21e047a839171b60405160405180910390a45b5050565b600080828401905083811015611c8a576040517f08c379a000000000000000000000000000000000000000000000000000000000815260040180806020018281038252601b8152602001807f536166654d6174683a206164646974696f6e206f766572666c6f77000000000081525060200191505060405180910390fd5b8091505092915050565b600660019054906101000a900460ff16611d16576040517f08c379a00000000000000000000000000000000000000000000000000000000081526004018080602001828103825260148152602001807f5061757361626c653a206e6f742070617573656400000000000000000000000081525060200191505060405180910390fd5b6000600660016101000a81548160ff0219169083151502179055507f5db9ee0a495bf2e6ff9c91a7834c1ba4fdd244a5e8aa4e537bd38aeae4b073aa611d5a611775565b604051808273ffffffffffffffffffffffffffffffffffffffff16815260200191505060405180910390a1565b806007819055507f63fe946ed58429ac3c5e64d4356ff92c26d7fa1e73586515df8ba9f059ab54a5816040518082815260200191505060405180910390a150565b600660019054906101000a900460ff1615611e4b576040517f08c379a00000000000000000000000000000000000000000000000000000000081526004018080602001828103825260108152602001807f5061757361626c653a207061757365640000000000000000000000000000000081525060200191505060405180910390fd5b6001600660016101000a81548160ff0219169083151502179055507f62e78cea01bee320cd4e420270b5ea74000d11b0c9f74754ebdbfc544b05a258611e8f611775565b604051808273ffffffffffffffffffffffffffffffffffffffff16815260200191505060405180910390a1565b600080831415611ecf5760009050611f3c565b6000828402905082848281611ee057fe5b0414611f37576040517f08c379a0000000000000000000000000000000000000000000000000000000008152600401808060200182810382526021815260200180612cf66021913960400191505060405180910390fd5b809150505b92915050565b6000611f8483836040518060400160405280601a81526020017f536166654d6174683a206469766973696f6e206279207a65726f0000000000008152506128ff565b905092915050565b6000611fce83836040518060400160405280601e81526020017f536166654d6174683a207375627472616374696f6e206f766572666c6f770000815250611a26565b905092915050565b600073ffffffffffffffffffffffffffffffffffffffff168273ffffffffffffffffffffffffffffffffffffffff16141561205c576040517f08c379a0000000000000000000000000000000000000000000000000000000008152600401808060200182810382526021815260200180612d656021913960400191505060405180910390fd5b612068826000836129c5565b6120d481604051806060016040528060228152602001612c5c60229139600160008673ffffffffffffffffffffffffffffffffffffffff1673ffffffffffffffffffffffffffffffffffffffff16815260200190815260200160002054611a269092919063ffffffff16565b600160008473ffffffffffffffffffffffffffffffffffffffff1673ffffffffffffffffffffffffffffffffffffffff1681526020019081526020016000208190555061212c81600354611f8c90919063ffffffff16565b600381905550600073ffffffffffffffffffffffffffffffffffffffff168273ffffffffffffffffffffffffffffffffffffffff167fddf252ad1be2c89b69c2b068fc378daa952ba7f163c4a11628f55a4df523b3ef836040518082815260200191505060405180910390a35050565b60006121ab83600001836129d5565b60001c905092915050565b60006121de836000018373ffffffffffffffffffffffffffffffffffffffff1660001b612a58565b905092915050565b600073ffffffffffffffffffffffffffffffffffffffff168273ffffffffffffffffffffffffffffffffffffffff161415612289576040517f08c379a000000000000000000000000000000000000000000000000000000000815260040180806020018281038252601f8152602001807f45524332303a206d696e7420746f20746865207a65726f20616464726573730081525060200191505060405180910390fd5b612295600083836129c5565b6122aa81600354611c0c90919063ffffffff16565b60038190555061230281600160008573ffffffffffffffffffffffffffffffffffffffff1673ffffffffffffffffffffffffffffffffffffffff16815260200190815260200160002054611c0c90919063ffffffff16565b600160008473ffffffffffffffffffffffffffffffffffffffff1673ffffffffffffffffffffffffffffffffffffffff168152602001908152602001600020819055508173ffffffffffffffffffffffffffffffffffffffff16600073ffffffffffffffffffffffffffffffffffffffff167fddf252ad1be2c89b69c2b068fc378daa952ba7f163c4a11628f55a4df523b3ef836040518082815260200191505060405180910390a35050565b60006123bd82600001612a7b565b9050919050565b600073ffffffffffffffffffffffffffffffffffffffff168173ffffffffffffffffffffffffffffffffffffffff161415612467576040517f08c379a00000000000000000000000000000000000000000000000000000000081526004018080602001828103825260128152602001807f5746494c3a2073657420746f207a65726f20000000000000000000000000000081525060200191505060405180910390fd5b3073ffffffffffffffffffffffffffffffffffffffff168173ffffffffffffffffffffffffffffffffffffffff161415612509576040517f08c379a000000000000000000000000000000000000000000000000000000000815260040180806020018281038252601d8152602001807f5746494c3a2073657420746f20636f6e7472616374206164647265737300000081525060200191505060405180910390fd5b80600860006101000a81548173ffffffffffffffffffffffffffffffffffffffff021916908373ffffffffffffffffffffffffffffffffffffffff1602179055507fd7ecd1f497e38c39a3455e0704e1bddc382baa8059756b571ff24b92cab7ff5481604051808273ffffffffffffffffffffffffffffffffffffffff16815260200191505060405180910390a150565b60006125a68383612a58565b6125ff578260000182908060018154018082558091505060019003906000526020600020016000909190919091505582600001805490508360010160008481526020019081526020016000208190555060019050612604565b600090505b92915050565b600073ffffffffffffffffffffffffffffffffffffffff168373ffffffffffffffffffffffffffffffffffffffff161415612690576040517f08c379a0000000000000000000000000000000000000000000000000000000008152600401808060200182810382526025815260200180612d866025913960400191505060405180910390fd5b600073ffffffffffffffffffffffffffffffffffffffff168273ffffffffffffffffffffffffffffffffffffffff161415612716576040517f08c379a0000000000000000000000000000000000000000000000000000000008152600401808060200182810382526023815260200180612c0a6023913960400191505060405180910390fd5b6127218383836129c5565b61278d81604051806060016040528060268152602001612ca060269139600160008773ffffffffffffffffffffffffffffffffffffffff1673ffffffffffffffffffffffffffffffffffffffff16815260200190815260200160002054611a269092919063ffffffff16565b600160008573ffffffffffffffffffffffffffffffffffffffff1673ffffffffffffffffffffffffffffffffffffffff1681526020019081526020016000208190555061282281600160008573ffffffffffffffffffffffffffffffffffffffff1673ffffffffffffffffffffffffffffffffffffffff16815260200190815260200160002054611c0c90919063ffffffff16565b600160008473ffffffffffffffffffffffffffffffffffffffff1673ffffffffffffffffffffffffffffffffffffffff168152602001908152602001600020819055508173ffffffffffffffffffffffffffffffffffffffff168373ffffffffffffffffffffffffffffffffffffffff167fddf252ad1be2c89b69c2b068fc378daa952ba7f163c4a11628f55a4df523b3ef836040518082815260200191505060405180910390a3505050565b60006128f7836000018373ffffffffffffffffffffffffffffffffffffffff1660001b612a8c565b905092915050565b600080831182906129ab576040517f08c379a00000000000000000000000000000000000000000000000000000000081526004018080602001828103825283818151815260200191508051906020019080838360005b83811015612970578082015181840152602081019050612955565b50505050905090810190601f16801561299d5780820380516001836020036101000a031916815260200191505b509250505060405180910390fd5b5060008385816129b757fe5b049050809150509392505050565b6129d0838383612b74565b505050565b600081836000018054905011612a36576040517f08c379a0000000000000000000000000000000000000000000000000000000008152600401808060200182810382526022815260200180612be86022913960400191505060405180910390fd5b826000018281548110612a4557fe5b9060005260206000200154905092915050565b600080836001016000848152602001908152602001600020541415905092915050565b600081600001805490509050919050565b60008083600101600084815260200190815260200160002054905060008114612b685760006001820390506000600186600001805490500390506000866000018281548110612ad757fe5b9060005260206000200154905080876000018481548110612af457fe5b9060005260206000200181905550600183018760010160008381526020019081526020016000208190555086600001805480612b2c57fe5b60019003818190600052602060002001600090559055866001016000878152602001908152602001600020600090556001945050505050612b6e565b60009150505b92915050565b612b7f838383612be2565b612b87610edd565b15612bdd576040517f08c379a000000000000000000000000000000000000000000000000000000000815260040180806020018281038252602a815260200180612e47602a913960400191505060405180910390fd5b505050565b50505056fe456e756d657261626c655365743a20696e646578206f7574206f6620626f756e647345524332303a207472616e7366657220746f20746865207a65726f2061646472657373416363657373436f6e74726f6c3a2073656e646572206d75737420626520616e2061646d696e20746f206772616e7445524332303a206275726e20616d6f756e7420657863656564732062616c616e636545524332303a20617070726f766520746f20746865207a65726f206164647265737345524332303a207472616e7366657220616d6f756e7420657863656564732062616c616e6365416363657373436f6e74726f6c3a2073656e646572206d75737420626520616e2061646d696e20746f207265766f6b65536166654d6174683a206d756c7469706c69636174696f6e206f766572666c6f7745524332303a207472616e7366657220616d6f756e74206578636565647320616c6c6f77616e63655746494c3a206d75737420686176652070617573657220726f6c6520746f20756e706175736545524332303a206275726e2066726f6d20746865207a65726f206164647265737345524332303a207472616e736665722066726f6d20746865207a65726f206164647265737345524332303a20617070726f76652066726f6d20746865207a65726f20616464726573735746494c3a206d75737420686176652070617573657220726f6c6520746f20706175736545524332303a2064656372656173656420616c6c6f77616e63652062656c6f77207a65726f416363657373436f6e74726f6c3a2063616e206f6e6c792072656e6f756e636520726f6c657320666f722073656c6645524332305061757361626c653a20746f6b656e207472616e73666572207768696c6520706175736564a2646970667358221220ac656c0d16b94477300f58afb8bcde8136cbb963e0c0142b4ffbcbfcf489eaae64736f6c63430007030033",
  "immutableReferences": {},
  "source": "/// SPDX-License-Identifier: AGPL-3.0-or-later\npragma solidity 0.7.3;\n\n/// @title WFIL\n/// @author Nazzareno Massari @naszam\n/// @notice Wrapped Filecoin\n/// @dev All function calls are currently implemented without side effects through TDD approach\n/// @dev OpenZeppelin library is used for secure contract development\n\n/*\n    \n    \n    \n  \n      \n*/\n\nimport \"@openzeppelin/contracts/access/AccessControl.sol\";\nimport \"@openzeppelin/contracts/token/ERC20/ERC20.sol\";\nimport \"@openzeppelin/contracts/token/ERC20/ERC20Pausable.sol\";\n\ncontract WFIL is AccessControl, ERC20, ERC20Pausable {\n\n    /// @dev Libraries\n    using SafeMath for uint;\n\n    /// @dev Roles\n    bytes32 public constant MINTER_ROLE = keccak256(\"MINTER_ROLE\");\n    bytes32 public constant FEE_SETTER_ROLE = keccak256(\"FEE_SETTER_ROLE\");\n    bytes32 public constant PAUSER_ROLE = keccak256(\"PAUSER_ROLE\");\n\n    /// @dev Data\n    uint private _fee;\n    address private _feeTo;\n\n    /// @dev Events\n    event Wrapped(address to, uint wrapOut, uint wrapFee);\n    event Unwrapped(string filaddress, uint unwrapOut, uint unwrapFee);\n    event NewFee(uint fee);\n    event NewFeeTo(address feeTo);\n\n    constructor(address feeTo_, uint fee_)\n        ERC20(\"Wrapped Filecoin\", \"WFIL\")\n    {\n        _setupRole(DEFAULT_ADMIN_ROLE, msg.sender);\n\n        _setupRole(MINTER_ROLE, msg.sender);\n        _setupRole(PAUSER_ROLE, msg.sender);\n        _setupRole(FEE_SETTER_ROLE, msg.sender);\n\n        _setFee(fee_);\n        _setFeeTo(feeTo_);\n    }\n\n    /// @notice Fallback function\n    /// @dev Added not payable to revert transactions not matching any other function which send value\n    fallback() external {\n        revert();\n    }\n\n    /// @notice Getter function for the wrap/unwrap fee\n    /// @return _fee current fee\n    function fee() external view returns (uint) {\n        return _fee;\n    }\n\n    /// @notice Set a new fee\n    /// @dev Access restricted only for Fee Setters\n    /// @dev Call internal function _setFee()\n    /// @param wfilFee fee to set\n    /// @return True if wfilFee is successfully set\n    function setFee(uint wfilFee) external returns (bool) {\n        require(hasRole(FEE_SETTER_ROLE, msg.sender), \"WFIL: caller is not a fee setter\");\n        _setFee(wfilFee);\n        return true;\n    }\n\n    /// @notice Set a new feeTo address\n    /// @dev Access restricted only for Fee Setters\n    /// @dev Call internal function _setFeeTo()\n    /// @param feeTo address to set\n    /// @return True if feeTo is successfully set\n    function setFeeTo(address feeTo) external returns (bool) {\n        require(hasRole(FEE_SETTER_ROLE, msg.sender), \"WFIL: caller is not a fee setter\");\n        _setFeeTo(feeTo);\n        return true;\n    }\n\n    /// @notice Wrap WFIL, mint amount (wrapFee + wrapOut)\n    /// @dev Access restricted only for Minters\n    /// @param to Address of the recipient\n    /// @param amount Amount of WFIL issued\n    /// @return True if WFIL is successfully wrapped\n    function wrap(address to, uint amount) external returns (bool) {\n        require(hasRole(MINTER_ROLE, msg.sender), \"WFIL: caller is not a minter\");\n        uint wrapFee = amount.mul(_fee).div(1000);\n        uint wrapOut = amount.sub(wrapFee);\n        _mint(_feeTo, wrapFee);\n        _mint(to, wrapOut);\n        emit Wrapped(to, wrapOut, wrapFee);\n        return true;\n    }\n\n    /// @notice Unwrap WFIL, transfer unwrapFee + burn uwnrapOut\n    /// @dev Emit an event with the Filecoin Address to UI\n    /// @param filaddress The Filecoin Address to uwrap WFIL\n    /// @param amount The amount of WFIL to unwrap\n    /// @return True if WFIL is successfully unwrapped\n    function unwrap(string calldata filaddress, uint amount) external returns (bool) {\n        uint unwrapFee = amount.mul(_fee).div(1000);\n        uint unwrapOut = amount.sub(unwrapFee);\n        _transfer(msg.sender, _feeTo, unwrapFee);\n        _burn(msg.sender, unwrapOut);\n        emit Unwrapped(filaddress, unwrapOut, unwrapFee);\n        return true;\n    }\n\n    /// @notice Pause all the functions\n    /// @dev the caller must have the 'PAUSER_ROLE'\n    function pause() external {\n        require(hasRole(PAUSER_ROLE, msg.sender), \"WFIL: must have pauser role to pause\");\n        _pause();\n    }\n\n    /// @notice Unpause all the functions\n    /// @dev the caller must have the 'PAUSER_ROLE'\n    function unpause() external {\n        require(hasRole(PAUSER_ROLE, msg.sender), \"WFIL: must have pauser role to unpause\");\n        _unpause();\n    }\n\n    /// @notice Prevent transfer to the token contract\n    /// @dev Override ERC20 _transfer()\n    /// @param sender Sender address\n    /// @param recipient Recipient address\n    /// @param amount Token amount\n    function _transfer(address sender, address recipient, uint amount) internal override {\n         require(recipient != address(this), \"WFIL: transfer to token contract\");\n         super._transfer(sender, recipient, amount);\n    }\n\n    /// @notice Hook to pause _mint(), _transfer() and _burn()\n    /// @dev Override ERC20 and ERC20Pausable Hooks\n    /// @param from Sender address\n    /// @param to Recipient address\n    /// @param amount Token amount\n    function _beforeTokenTransfer(address from, address to, uint amount) internal override(ERC20, ERC20Pausable) {\n        super._beforeTokenTransfer(from, to, amount);\n    }\n\n    /// @notice Internal function to set fee\n    /// @dev set function visibility to private\n    /// @param wfilFee fee to set\n    function _setFee(uint wfilFee) private {\n        _fee = wfilFee;\n        emit NewFee(wfilFee);\n    }\n\n    /// @notice Internal function to set feeTo address\n    /// @dev set function visibility to private\n    /// @param feeTo address to set\n    function _setFeeTo(address feeTo) private {\n        require(feeTo != address(0), \"WFIL: set to zero \");\n        require(feeTo != address(this), \"WFIL: set to contract address\");\n        _feeTo = feeTo;\n        emit NewFeeTo(feeTo);\n    }\n}\n",
  "sourcePath": "/Users/cristiamdasilva/apps/hackfs/wfil/contracts/WFIL.sol",
  "compiler": {
    "name": "solc",
    "version": "0.7.3+commit.9bfce1f6.Emscripten.clang"
  },
  "schemaVersion": "3.3.1",
  "updatedAt": "2020-11-02T00:22:40.902Z",
  "networkType": "ethereum",
  "devdoc": {
    "events": {
      "Wrapped(address,uint256,uint256)": {
        "details": "Events"
      }
    },
    "kind": "dev",
    "methods": {
      "allowance(address,address)": {
        "details": "See {IERC20-allowance}."
      },
      "approve(address,uint256)": {
        "details": "See {IERC20-approve}. Requirements: - `spender` cannot be the zero address."
      },
      "balanceOf(address)": {
        "details": "See {IERC20-balanceOf}."
      },
      "decimals()": {
        "details": "Returns the number of decimals used to get its user representation. For example, if `decimals` equals `2`, a balance of `505` tokens should be displayed to a user as `5,05` (`505 / 10 ** 2`). Tokens usually opt for a value of 18, imitating the relationship between Ether and Wei. This is the value {ERC20} uses, unless {_setupDecimals} is called. NOTE: This information is only used for _display_ purposes: it in no way affects any of the arithmetic of the contract, including {IERC20-balanceOf} and {IERC20-transfer}."
      },
      "decreaseAllowance(address,uint256)": {
        "details": "Atomically decreases the allowance granted to `spender` by the caller. This is an alternative to {approve} that can be used as a mitigation for problems described in {IERC20-approve}. Emits an {Approval} event indicating the updated allowance. Requirements: - `spender` cannot be the zero address. - `spender` must have allowance for the caller of at least `subtractedValue`."
      },
      "fee()": {
        "returns": {
          "_0": "_fee current fee"
        }
      },
      "getRoleAdmin(bytes32)": {
        "details": "Returns the admin role that controls `role`. See {grantRole} and {revokeRole}. To change a role's admin, use {_setRoleAdmin}."
      },
      "getRoleMember(bytes32,uint256)": {
        "details": "Returns one of the accounts that have `role`. `index` must be a value between 0 and {getRoleMemberCount}, non-inclusive. Role bearers are not sorted in any particular way, and their ordering may change at any point. WARNING: When using {getRoleMember} and {getRoleMemberCount}, make sure you perform all queries on the same block. See the following https://forum.openzeppelin.com/t/iterating-over-elements-on-enumerableset-in-openzeppelin-contracts/2296[forum post] for more information."
      },
      "getRoleMemberCount(bytes32)": {
        "details": "Returns the number of accounts that have `role`. Can be used together with {getRoleMember} to enumerate all bearers of a role."
      },
      "grantRole(bytes32,address)": {
        "details": "Grants `role` to `account`. If `account` had not been already granted `role`, emits a {RoleGranted} event. Requirements: - the caller must have ``role``'s admin role."
      },
      "hasRole(bytes32,address)": {
        "details": "Returns `true` if `account` has been granted `role`."
      },
      "increaseAllowance(address,uint256)": {
        "details": "Atomically increases the allowance granted to `spender` by the caller. This is an alternative to {approve} that can be used as a mitigation for problems described in {IERC20-approve}. Emits an {Approval} event indicating the updated allowance. Requirements: - `spender` cannot be the zero address."
      },
      "name()": {
        "details": "Returns the name of the token."
      },
      "pause()": {
        "details": "the caller must have the 'PAUSER_ROLE'"
      },
      "paused()": {
        "details": "Returns true if the contract is paused, and false otherwise."
      },
      "renounceRole(bytes32,address)": {
        "details": "Revokes `role` from the calling account. Roles are often managed via {grantRole} and {revokeRole}: this function's purpose is to provide a mechanism for accounts to lose their privileges if they are compromised (such as when a trusted device is misplaced). If the calling account had been granted `role`, emits a {RoleRevoked} event. Requirements: - the caller must be `account`."
      },
      "revokeRole(bytes32,address)": {
        "details": "Revokes `role` from `account`. If `account` had been granted `role`, emits a {RoleRevoked} event. Requirements: - the caller must have ``role``'s admin role."
      },
      "setFee(uint256)": {
        "details": "Access restricted only for Fee SettersCall internal function _setFee()",
        "params": {
          "wfilFee": "fee to set"
        },
        "returns": {
          "_0": "True if wfilFee is successfully set"
        }
      },
      "setFeeTo(address)": {
        "details": "Access restricted only for Fee SettersCall internal function _setFeeTo()",
        "params": {
          "feeTo": "address to set"
        },
        "returns": {
          "_0": "True if feeTo is successfully set"
        }
      },
      "symbol()": {
        "details": "Returns the symbol of the token, usually a shorter version of the name."
      },
      "totalSupply()": {
        "details": "See {IERC20-totalSupply}."
      },
      "transfer(address,uint256)": {
        "details": "See {IERC20-transfer}. Requirements: - `recipient` cannot be the zero address. - the caller must have a balance of at least `amount`."
      },
      "transferFrom(address,address,uint256)": {
        "details": "See {IERC20-transferFrom}. Emits an {Approval} event indicating the updated allowance. This is not required by the EIP. See the note at the beginning of {ERC20}; Requirements: - `sender` and `recipient` cannot be the zero address. - `sender` must have a balance of at least `amount`. - the caller must have allowance for ``sender``'s tokens of at least `amount`."
      },
      "unpause()": {
        "details": "the caller must have the 'PAUSER_ROLE'"
      },
      "unwrap(string,uint256)": {
        "details": "Emit an event with the Filecoin Address to UI",
        "params": {
          "amount": "The amount of WFIL to unwrap",
          "filaddress": "The Filecoin Address to uwrap WFIL"
        },
        "returns": {
          "_0": "True if WFIL is successfully unwrapped"
        }
      },
      "wrap(address,uint256)": {
        "details": "Access restricted only for Minters",
        "params": {
          "amount": "Amount of WFIL issued",
          "to": "Address of the recipient"
        },
        "returns": {
          "_0": "True if WFIL is successfully wrapped"
        }
      }
    },
    "stateVariables": {
      "MINTER_ROLE": {
        "details": "Roles"
      },
      "_fee": {
        "details": "Data"
      }
    },
    "version": 1
  },
  "userdoc": {
    "kind": "user",
    "methods": {
      "fee()": {
        "notice": "Getter function for the wrap/unwrap fee"
      },
      "pause()": {
        "notice": "Pause all the functions"
      },
      "setFee(uint256)": {
        "notice": "Set a new fee"
      },
      "setFeeTo(address)": {
        "notice": "Set a new feeTo address"
      },
      "unpause()": {
        "notice": "Unpause all the functions"
      },
      "unwrap(string,uint256)": {
        "notice": "Unwrap WFIL, transfer unwrapFee + burn uwnrapOut"
      },
      "wrap(address,uint256)": {
        "notice": "Wrap WFIL, mint amount (wrapFee + wrapOut)"
      }
    },
    "version": 1
  }
}