{
  "contractName": "WFIL",
  "abi": [
    {
      "inputs": [
        {
          "internalType": "address",
          "name": "minter_",
          "type": "address"
        },
        {
          "internalType": "address",
          "name": "feeTo_",
          "type": "address"
        },
        {
          "internalType": "uint256",
          "name": "fee_",
          "type": "uint256"
        }
      ],
      "stateMutability": "nonpayable",
      "type": "constructor"
    },
    {
      "anonymous": false,
      "inputs": [
        {
          "indexed": true,
          "internalType": "address",
          "name": "owner",
          "type": "address"
        },
        {
          "indexed": true,
          "internalType": "address",
          "name": "spender",
          "type": "address"
        },
        {
          "indexed": false,
          "internalType": "uint256",
          "name": "value",
          "type": "uint256"
        }
      ],
      "name": "Approval",
      "type": "event"
    },
    {
      "anonymous": false,
      "inputs": [
        {
          "indexed": false,
          "internalType": "uint256",
          "name": "fee",
          "type": "uint256"
        }
      ],
      "name": "NewFee",
      "type": "event"
    },
    {
      "anonymous": false,
      "inputs": [
        {
          "indexed": false,
          "internalType": "address",
          "name": "feeTo",
          "type": "address"
        }
      ],
      "name": "NewFeeTo",
      "type": "event"
    },
    {
      "anonymous": false,
      "inputs": [
        {
          "indexed": false,
          "internalType": "address",
          "name": "account",
          "type": "address"
        }
      ],
      "name": "Paused",
      "type": "event"
    },
    {
      "anonymous": false,
      "inputs": [
        {
          "indexed": true,
          "internalType": "bytes32",
          "name": "role",
          "type": "bytes32"
        },
        {
          "indexed": true,
          "internalType": "bytes32",
          "name": "previousAdminRole",
          "type": "bytes32"
        },
        {
          "indexed": true,
          "internalType": "bytes32",
          "name": "newAdminRole",
          "type": "bytes32"
        }
      ],
      "name": "RoleAdminChanged",
      "type": "event"
    },
    {
      "anonymous": false,
      "inputs": [
        {
          "indexed": true,
          "internalType": "bytes32",
          "name": "role",
          "type": "bytes32"
        },
        {
          "indexed": true,
          "internalType": "address",
          "name": "account",
          "type": "address"
        },
        {
          "indexed": true,
          "internalType": "address",
          "name": "sender",
          "type": "address"
        }
      ],
      "name": "RoleGranted",
      "type": "event"
    },
    {
      "anonymous": false,
      "inputs": [
        {
          "indexed": true,
          "internalType": "bytes32",
          "name": "role",
          "type": "bytes32"
        },
        {
          "indexed": true,
          "internalType": "address",
          "name": "account",
          "type": "address"
        },
        {
          "indexed": true,
          "internalType": "address",
          "name": "sender",
          "type": "address"
        }
      ],
      "name": "RoleRevoked",
      "type": "event"
    },
    {
      "anonymous": false,
      "inputs": [
        {
          "indexed": true,
          "internalType": "address",
          "name": "from",
          "type": "address"
        },
        {
          "indexed": true,
          "internalType": "address",
          "name": "to",
          "type": "address"
        },
        {
          "indexed": false,
          "internalType": "uint256",
          "name": "value",
          "type": "uint256"
        }
      ],
      "name": "Transfer",
      "type": "event"
    },
    {
      "anonymous": false,
      "inputs": [
        {
          "indexed": false,
          "internalType": "address",
          "name": "account",
          "type": "address"
        }
      ],
      "name": "Unpaused",
      "type": "event"
    },
    {
      "anonymous": false,
      "inputs": [
        {
          "indexed": false,
          "internalType": "string",
          "name": "filaddress",
          "type": "string"
        },
        {
          "indexed": false,
          "internalType": "uint256",
          "name": "unwrapOut",
          "type": "uint256"
        },
        {
          "indexed": false,
          "internalType": "uint256",
          "name": "unwrapFee",
          "type": "uint256"
        }
      ],
      "name": "Unwrapped",
      "type": "event"
    },
    {
      "anonymous": false,
      "inputs": [
        {
          "indexed": false,
          "internalType": "address",
          "name": "to",
          "type": "address"
        },
        {
          "indexed": false,
          "internalType": "uint256",
          "name": "wrapOut",
          "type": "uint256"
        },
        {
          "indexed": false,
          "internalType": "uint256",
          "name": "wrapFee",
          "type": "uint256"
        }
      ],
      "name": "Wrapped",
      "type": "event"
    },
    {
      "stateMutability": "nonpayable",
      "type": "fallback"
    },
    {
      "inputs": [],
      "name": "DEFAULT_ADMIN_ROLE",
      "outputs": [
        {
          "internalType": "bytes32",
          "name": "",
          "type": "bytes32"
        }
      ],
      "stateMutability": "view",
      "type": "function",
      "constant": true
    },
    {
      "inputs": [],
      "name": "FEE_SETTER_ROLE",
      "outputs": [
        {
          "internalType": "bytes32",
          "name": "",
          "type": "bytes32"
        }
      ],
      "stateMutability": "view",
      "type": "function",
      "constant": true
    },
    {
      "inputs": [],
      "name": "MINTER_ROLE",
      "outputs": [
        {
          "internalType": "bytes32",
          "name": "",
          "type": "bytes32"
        }
      ],
      "stateMutability": "view",
      "type": "function",
      "constant": true
    },
    {
      "inputs": [],
      "name": "PAUSER_ROLE",
      "outputs": [
        {
          "internalType": "bytes32",
          "name": "",
          "type": "bytes32"
        }
      ],
      "stateMutability": "view",
      "type": "function",
      "constant": true
    },
    {
      "inputs": [
        {
          "internalType": "address",
          "name": "owner",
          "type": "address"
        },
        {
          "internalType": "address",
          "name": "spender",
          "type": "address"
        }
      ],
      "name": "allowance",
      "outputs": [
        {
          "internalType": "uint256",
          "name": "",
          "type": "uint256"
        }
      ],
      "stateMutability": "view",
      "type": "function",
      "constant": true
    },
    {
      "inputs": [
        {
          "internalType": "address",
          "name": "spender",
          "type": "address"
        },
        {
          "internalType": "uint256",
          "name": "amount",
          "type": "uint256"
        }
      ],
      "name": "approve",
      "outputs": [
        {
          "internalType": "bool",
          "name": "",
          "type": "bool"
        }
      ],
      "stateMutability": "nonpayable",
      "type": "function"
    },
    {
      "inputs": [
        {
          "internalType": "address",
          "name": "account",
          "type": "address"
        }
      ],
      "name": "balanceOf",
      "outputs": [
        {
          "internalType": "uint256",
          "name": "",
          "type": "uint256"
        }
      ],
      "stateMutability": "view",
      "type": "function",
      "constant": true
    },
    {
      "inputs": [],
      "name": "decimals",
      "outputs": [
        {
          "internalType": "uint8",
          "name": "",
          "type": "uint8"
        }
      ],
      "stateMutability": "view",
      "type": "function",
      "constant": true
    },
    {
      "inputs": [
        {
          "internalType": "address",
          "name": "spender",
          "type": "address"
        },
        {
          "internalType": "uint256",
          "name": "subtractedValue",
          "type": "uint256"
        }
      ],
      "name": "decreaseAllowance",
      "outputs": [
        {
          "internalType": "bool",
          "name": "",
          "type": "bool"
        }
      ],
      "stateMutability": "nonpayable",
      "type": "function"
    },
    {
      "inputs": [
        {
          "internalType": "bytes32",
          "name": "role",
          "type": "bytes32"
        }
      ],
      "name": "getRoleAdmin",
      "outputs": [
        {
          "internalType": "bytes32",
          "name": "",
          "type": "bytes32"
        }
      ],
      "stateMutability": "view",
      "type": "function",
      "constant": true
    },
    {
      "inputs": [
        {
          "internalType": "bytes32",
          "name": "role",
          "type": "bytes32"
        },
        {
          "internalType": "uint256",
          "name": "index",
          "type": "uint256"
        }
      ],
      "name": "getRoleMember",
      "outputs": [
        {
          "internalType": "address",
          "name": "",
          "type": "address"
        }
      ],
      "stateMutability": "view",
      "type": "function",
      "constant": true
    },
    {
      "inputs": [
        {
          "internalType": "bytes32",
          "name": "role",
          "type": "bytes32"
        }
      ],
      "name": "getRoleMemberCount",
      "outputs": [
        {
          "internalType": "uint256",
          "name": "",
          "type": "uint256"
        }
      ],
      "stateMutability": "view",
      "type": "function",
      "constant": true
    },
    {
      "inputs": [
        {
          "internalType": "bytes32",
          "name": "role",
          "type": "bytes32"
        },
        {
          "internalType": "address",
          "name": "account",
          "type": "address"
        }
      ],
      "name": "grantRole",
      "outputs": [],
      "stateMutability": "nonpayable",
      "type": "function"
    },
    {
      "inputs": [
        {
          "internalType": "bytes32",
          "name": "role",
          "type": "bytes32"
        },
        {
          "internalType": "address",
          "name": "account",
          "type": "address"
        }
      ],
      "name": "hasRole",
      "outputs": [
        {
          "internalType": "bool",
          "name": "",
          "type": "bool"
        }
      ],
      "stateMutability": "view",
      "type": "function",
      "constant": true
    },
    {
      "inputs": [
        {
          "internalType": "address",
          "name": "spender",
          "type": "address"
        },
        {
          "internalType": "uint256",
          "name": "addedValue",
          "type": "uint256"
        }
      ],
      "name": "increaseAllowance",
      "outputs": [
        {
          "internalType": "bool",
          "name": "",
          "type": "bool"
        }
      ],
      "stateMutability": "nonpayable",
      "type": "function"
    },
    {
      "inputs": [],
      "name": "name",
      "outputs": [
        {
          "internalType": "string",
          "name": "",
          "type": "string"
        }
      ],
      "stateMutability": "view",
      "type": "function",
      "constant": true
    },
    {
      "inputs": [],
      "name": "paused",
      "outputs": [
        {
          "internalType": "bool",
          "name": "",
          "type": "bool"
        }
      ],
      "stateMutability": "view",
      "type": "function",
      "constant": true
    },
    {
      "inputs": [
        {
          "internalType": "bytes32",
          "name": "role",
          "type": "bytes32"
        },
        {
          "internalType": "address",
          "name": "account",
          "type": "address"
        }
      ],
      "name": "renounceRole",
      "outputs": [],
      "stateMutability": "nonpayable",
      "type": "function"
    },
    {
      "inputs": [
        {
          "internalType": "bytes32",
          "name": "role",
          "type": "bytes32"
        },
        {
          "internalType": "address",
          "name": "account",
          "type": "address"
        }
      ],
      "name": "revokeRole",
      "outputs": [],
      "stateMutability": "nonpayable",
      "type": "function"
    },
    {
      "inputs": [],
      "name": "symbol",
      "outputs": [
        {
          "internalType": "string",
          "name": "",
          "type": "string"
        }
      ],
      "stateMutability": "view",
      "type": "function",
      "constant": true
    },
    {
      "inputs": [],
      "name": "totalSupply",
      "outputs": [
        {
          "internalType": "uint256",
          "name": "",
          "type": "uint256"
        }
      ],
      "stateMutability": "view",
      "type": "function",
      "constant": true
    },
    {
      "inputs": [
        {
          "internalType": "address",
          "name": "recipient",
          "type": "address"
        },
        {
          "internalType": "uint256",
          "name": "amount",
          "type": "uint256"
        }
      ],
      "name": "transfer",
      "outputs": [
        {
          "internalType": "bool",
          "name": "",
          "type": "bool"
        }
      ],
      "stateMutability": "nonpayable",
      "type": "function"
    },
    {
      "inputs": [
        {
          "internalType": "address",
          "name": "sender",
          "type": "address"
        },
        {
          "internalType": "address",
          "name": "recipient",
          "type": "address"
        },
        {
          "internalType": "uint256",
          "name": "amount",
          "type": "uint256"
        }
      ],
      "name": "transferFrom",
      "outputs": [
        {
          "internalType": "bool",
          "name": "",
          "type": "bool"
        }
      ],
      "stateMutability": "nonpayable",
      "type": "function"
    },
    {
      "inputs": [],
      "name": "fee",
      "outputs": [
        {
          "internalType": "uint256",
          "name": "",
          "type": "uint256"
        }
      ],
      "stateMutability": "view",
      "type": "function",
      "constant": true
    },
    {
      "inputs": [
        {
          "internalType": "uint256",
          "name": "wfilFee",
          "type": "uint256"
        }
      ],
      "name": "setFee",
      "outputs": [
        {
          "internalType": "bool",
          "name": "",
          "type": "bool"
        }
      ],
      "stateMutability": "nonpayable",
      "type": "function"
    },
    {
      "inputs": [
        {
          "internalType": "address",
          "name": "feeTo",
          "type": "address"
        }
      ],
      "name": "setFeeTo",
      "outputs": [
        {
          "internalType": "bool",
          "name": "",
          "type": "bool"
        }
      ],
      "stateMutability": "nonpayable",
      "type": "function"
    },
    {
      "inputs": [
        {
          "internalType": "address",
          "name": "to",
          "type": "address"
        },
        {
          "internalType": "uint256",
          "name": "amount",
          "type": "uint256"
        }
      ],
      "name": "wrap",
      "outputs": [
        {
          "internalType": "bool",
          "name": "",
          "type": "bool"
        }
      ],
      "stateMutability": "nonpayable",
      "type": "function"
    },
    {
      "inputs": [
        {
          "internalType": "string",
          "name": "filaddress",
          "type": "string"
        },
        {
          "internalType": "uint256",
          "name": "amount",
          "type": "uint256"
        }
      ],
      "name": "unwrap",
      "outputs": [
        {
          "internalType": "bool",
          "name": "",
          "type": "bool"
        }
      ],
      "stateMutability": "nonpayable",
      "type": "function"
    },
    {
      "inputs": [
        {
          "internalType": "address",
          "name": "account",
          "type": "address"
        }
      ],
      "name": "addMinter",
      "outputs": [
        {
          "internalType": "bool",
          "name": "",
          "type": "bool"
        }
      ],
      "stateMutability": "nonpayable",
      "type": "function"
    },
    {
      "inputs": [
        {
          "internalType": "address",
          "name": "account",
          "type": "address"
        }
      ],
      "name": "removeMinter",
      "outputs": [
        {
          "internalType": "bool",
          "name": "",
          "type": "bool"
        }
      ],
      "stateMutability": "nonpayable",
      "type": "function"
    },
    {
      "inputs": [
        {
          "internalType": "address",
          "name": "account",
          "type": "address"
        }
      ],
      "name": "addFeeSetter",
      "outputs": [
        {
          "internalType": "bool",
          "name": "",
          "type": "bool"
        }
      ],
      "stateMutability": "nonpayable",
      "type": "function"
    },
    {
      "inputs": [
        {
          "internalType": "address",
          "name": "account",
          "type": "address"
        }
      ],
      "name": "removeFeeSetter",
      "outputs": [
        {
          "internalType": "bool",
          "name": "",
          "type": "bool"
        }
      ],
      "stateMutability": "nonpayable",
      "type": "function"
    },
    {
      "inputs": [],
      "name": "pause",
      "outputs": [],
      "stateMutability": "nonpayable",
      "type": "function"
    },
    {
      "inputs": [],
      "name": "unpause",
      "outputs": [],
      "stateMutability": "nonpayable",
      "type": "function"
    }
  ],
  "bytecode": "0x60806040523480156200001157600080fd5b506040516200394a3803806200394a833981810160405260608110156200003757600080fd5b810190808051906020019092919080519060200190929190805190602001909291905050506040518060400160405280601081526020017f577261707065642046696c65636f696e000000000000000000000000000000008152506040518060400160405280600481526020017f5746494c000000000000000000000000000000000000000000000000000000008152508160049080519060200190620000e0929190620005ea565b508060059080519060200190620000f9929190620005ea565b506012600660006101000a81548160ff021916908360ff16021790555050506000600660016101000a81548160ff021916908315150217905550620001486000801b336200023b60201b60201c565b6200017a7f9f2df0fed2c77648de5860a4cc508cd0818c85b8b8a1ab4ceeef8d981c8956a6336200023b60201b60201c565b620001ac7f65d7a28e3265b37a6474929f336521b332c1681b933f6cb9f3376673440d862a336200023b60201b60201c565b620001de7fe6ad9a47fbda1dc18de1eb5eeb7d935e5e81b4748f3cfc61e233e64f88182060336200023b60201b60201c565b620002107f9f2df0fed2c77648de5860a4cc508cd0818c85b8b8a1ab4ceeef8d981c8956a6846200023b60201b60201c565b62000221816200025160201b60201c565b62000232826200029260201b60201c565b50505062000690565b6200024d82826200046a60201b60201c565b5050565b806007819055507f63fe946ed58429ac3c5e64d4356ff92c26d7fa1e73586515df8ba9f059ab54a5816040518082815260200191505060405180910390a150565b600073ffffffffffffffffffffffffffffffffffffffff168173ffffffffffffffffffffffffffffffffffffffff16141562000336576040517f08c379a00000000000000000000000000000000000000000000000000000000081526004018080602001828103825260198152602001807f5746494c3a2073657420746f207a65726f20616464726573730000000000000081525060200191505060405180910390fd5b3073ffffffffffffffffffffffffffffffffffffffff168173ffffffffffffffffffffffffffffffffffffffff161415620003d9576040517f08c379a000000000000000000000000000000000000000000000000000000000815260040180806020018281038252601d8152602001807f5746494c3a2073657420746f20636f6e7472616374206164647265737300000081525060200191505060405180910390fd5b80600860006101000a81548173ffffffffffffffffffffffffffffffffffffffff021916908373ffffffffffffffffffffffffffffffffffffffff1602179055507fd7ecd1f497e38c39a3455e0704e1bddc382baa8059756b571ff24b92cab7ff5481604051808273ffffffffffffffffffffffffffffffffffffffff16815260200191505060405180910390a150565b62000498816000808581526020019081526020016000206000016200050d60201b62001afb1790919060201c565b156200050957620004ae6200054560201b60201c565b73ffffffffffffffffffffffffffffffffffffffff168173ffffffffffffffffffffffffffffffffffffffff16837f2f8788117e7eff1d82e926ec794901d17c78024a50270940304540a733656f0d60405160405180910390a45b5050565b60006200053d836000018373ffffffffffffffffffffffffffffffffffffffff1660001b6200054d60201b60201c565b905092915050565b600033905090565b6000620005618383620005c760201b60201c565b620005bc578260000182908060018154018082558091505060019003906000526020600020016000909190919091505582600001805490508360010160008481526020019081526020016000208190555060019050620005c1565b600090505b92915050565b600080836001016000848152602001908152602001600020541415905092915050565b828054600181600116156101000203166002900490600052602060002090601f016020900481019282601f106200062d57805160ff19168380011785556200065e565b828001600101855582156200065e579182015b828111156200065d57825182559160200191906001019062000640565b5b5090506200066d919062000671565b5090565b5b808211156200068c57600081600090555060010162000672565b5090565b6132aa80620006a06000396000f3fe608060405234801561001057600080fd5b506004361061020a5760003560e01c80639010d07c1161011a578063bf376c7a116100ad578063dd62ed3e1161007c578063dd62ed3e14610b0e578063ddca3f4314610b86578063e63ab1e914610ba4578063e934768314610bc2578063f46901ed14610be05761020b565b8063bf376c7a146109fc578063ca15c87314610a60578063d539139314610aa2578063d547741f14610ac05761020b565b8063a217fddf116100e9578063a217fddf146108bc578063a457c2d7146108da578063a9059cbb1461093e578063b5b12e27146109a25761020b565b80639010d07c1461071957806391d148541461077b57806395d89b41146107df578063983b2d56146108625761020b565b806336568abe1161019d57806367a234b11161016c57806367a234b11461058057806369fe0e2d146105da57806370a082311461061e5780638456cb59146106765780638c70c3bd146106805761020b565b806336568abe146104a457806339509351146104f25780633f4ba83a146105565780635c975abb146105605761020b565b8063248a9ca3116101d9578063248a9ca3146103995780632f2ff15d146103db5780633092afd514610429578063313ce567146104835761020b565b806306fdde0314610210578063095ea7b31461029357806318160ddd146102f757806323b872dd146103155761020b565b5b600080fd5b610218610c3a565b6040518080602001828103825283818151815260200191508051906020019080838360005b8381101561025857808201518184015260208101905061023d565b50505050905090810190601f1680156102855780820380516001836020036101000a031916815260200191505b509250505060405180910390f35b6102df600480360360408110156102a957600080fd5b81019080803573ffffffffffffffffffffffffffffffffffffffff16906020019092919080359060200190929190505050610cdc565b60405180821515815260200191505060405180910390f35b6102ff610cfa565b6040518082815260200191505060405180910390f35b6103816004803603606081101561032b57600080fd5b81019080803573ffffffffffffffffffffffffffffffffffffffff169060200190929190803573ffffffffffffffffffffffffffffffffffffffff16906020019092919080359060200190929190505050610d04565b60405180821515815260200191505060405180910390f35b6103c5600480360360208110156103af57600080fd5b8101908080359060200190929190505050610ddd565b6040518082815260200191505060405180910390f35b610427600480360360408110156103f157600080fd5b8101908080359060200190929190803573ffffffffffffffffffffffffffffffffffffffff169060200190929190505050610dfc565b005b61046b6004803603602081101561043f57600080fd5b81019080803573ffffffffffffffffffffffffffffffffffffffff169060200190929190505050610e85565b60405180821515815260200191505060405180910390f35b61048b610f1c565b604051808260ff16815260200191505060405180910390f35b6104f0600480360360408110156104ba57600080fd5b8101908080359060200190929190803573ffffffffffffffffffffffffffffffffffffffff169060200190929190505050610f33565b005b61053e6004803603604081101561050857600080fd5b81019080803573ffffffffffffffffffffffffffffffffffffffff16906020019092919080359060200190929190505050610fcc565b60405180821515815260200191505060405180910390f35b61055e61107f565b005b610568611108565b60405180821515815260200191505060405180910390f35b6105c26004803603602081101561059657600080fd5b81019080803573ffffffffffffffffffffffffffffffffffffffff16906020019092919050505061111f565b60405180821515815260200191505060405180910390f35b610606600480360360208110156105f057600080fd5b81019080803590602001909291905050506111b6565b60405180821515815260200191505060405180910390f35b6106606004803603602081101561063457600080fd5b81019080803573ffffffffffffffffffffffffffffffffffffffff169060200190929190505050611249565b6040518082815260200191505060405180910390f35b61067e611292565b005b6107016004803603604081101561069657600080fd5b81019080803590602001906401000000008111156106b357600080fd5b8201836020820111156106c557600080fd5b803590602001918460018302840111640100000000831117156106e757600080fd5b90919293919293908035906020019092919050505061131b565b60405180821515815260200191505060405180910390f35b61074f6004803603604081101561072f57600080fd5b810190808035906020019092919080359060200190929190505050611417565b604051808273ffffffffffffffffffffffffffffffffffffffff16815260200191505060405180910390f35b6107c76004803603604081101561079157600080fd5b8101908080359060200190929190803573ffffffffffffffffffffffffffffffffffffffff169060200190929190505050611448565b60405180821515815260200191505060405180910390f35b6107e7611479565b6040518080602001828103825283818151815260200191508051906020019080838360005b8381101561082757808201518184015260208101905061080c565b50505050905090810190601f1680156108545780820380516001836020036101000a031916815260200191505b509250505060405180910390f35b6108a46004803603602081101561087857600080fd5b81019080803573ffffffffffffffffffffffffffffffffffffffff16906020019092919050505061151b565b60405180821515815260200191505060405180910390f35b6108c46115b2565b6040518082815260200191505060405180910390f35b610926600480360360408110156108f057600080fd5b81019080803573ffffffffffffffffffffffffffffffffffffffff169060200190929190803590602001909291905050506115b9565b60405180821515815260200191505060405180910390f35b61098a6004803603604081101561095457600080fd5b81019080803573ffffffffffffffffffffffffffffffffffffffff16906020019092919080359060200190929190505050611686565b60405180821515815260200191505060405180910390f35b6109e4600480360360208110156109b857600080fd5b81019080803573ffffffffffffffffffffffffffffffffffffffff1690602001909291905050506116a4565b60405180821515815260200191505060405180910390f35b610a4860048036036040811015610a1257600080fd5b81019080803573ffffffffffffffffffffffffffffffffffffffff1690602001909291908035906020019092919050505061173b565b60405180821515815260200191505060405180910390f35b610a8c60048036036020811015610a7657600080fd5b81019080803590602001909291905050506118bc565b6040518082815260200191505060405180910390f35b610aaa6118e2565b6040518082815260200191505060405180910390f35b610b0c60048036036040811015610ad657600080fd5b8101908080359060200190929190803573ffffffffffffffffffffffffffffffffffffffff169060200190929190505050611906565b005b610b7060048036036040811015610b2457600080fd5b81019080803573ffffffffffffffffffffffffffffffffffffffff169060200190929190803573ffffffffffffffffffffffffffffffffffffffff16906020019092919050505061198f565b6040518082815260200191505060405180910390f35b610b8e611a16565b6040518082815260200191505060405180910390f35b610bac611a20565b6040518082815260200191505060405180910390f35b610bca611a44565b6040518082815260200191505060405180910390f35b610c2260048036036020811015610bf657600080fd5b81019080803573ffffffffffffffffffffffffffffffffffffffff169060200190929190505050611a68565b60405180821515815260200191505060405180910390f35b606060048054600181600116156101000203166002900480601f016020809104026020016040519081016040528092919081815260200182805460018160011615610100020316600290048015610cd25780601f10610ca757610100808354040283529160200191610cd2565b820191906000526020600020905b815481529060010190602001808311610cb557829003601f168201915b5050505050905090565b6000610cf0610ce9611b2b565b8484611b33565b6001905092915050565b6000600354905090565b6000610d11848484611d2a565b610dd284610d1d611b2b565b610dcd856040518060600160405280602881526020016130d460289139600260008b73ffffffffffffffffffffffffffffffffffffffff1673ffffffffffffffffffffffffffffffffffffffff1681526020019081526020016000206000610d83611b2b565b73ffffffffffffffffffffffffffffffffffffffff1673ffffffffffffffffffffffffffffffffffffffff16815260200190815260200160002054611dbf9092919063ffffffff16565b611b33565b600190509392505050565b6000806000838152602001908152602001600020600201549050919050565b610e2260008084815260200190815260200160002060020154610e1d611b2b565b611448565b610e77576040517f08c379a000000000000000000000000000000000000000000000000000000000815260040180806020018281038252602f815260200180612fc6602f913960400191505060405180910390fd5b610e818282611e7f565b5050565b6000610e946000801b33611448565b610ee9576040517f08c379a00000000000000000000000000000000000000000000000000000000081526004018080602001828103825260258152602001806131d26025913960400191505060405180910390fd5b610f137f9f2df0fed2c77648de5860a4cc508cd0818c85b8b8a1ab4ceeef8d981c8956a683611906565b60019050919050565b6000600660009054906101000a900460ff16905090565b610f3b611b2b565b73ffffffffffffffffffffffffffffffffffffffff168173ffffffffffffffffffffffffffffffffffffffff1614610fbe576040517f08c379a000000000000000000000000000000000000000000000000000000000815260040180806020018281038252602f81526020018061321c602f913960400191505060405180910390fd5b610fc88282611f12565b5050565b6000611075610fd9611b2b565b846110708560026000610fea611b2b565b73ffffffffffffffffffffffffffffffffffffffff1673ffffffffffffffffffffffffffffffffffffffff16815260200190815260200160002060008973ffffffffffffffffffffffffffffffffffffffff1673ffffffffffffffffffffffffffffffffffffffff16815260200190815260200160002054611fa590919063ffffffff16565b611b33565b6001905092915050565b6110a97f65d7a28e3265b37a6474929f336521b332c1681b933f6cb9f3376673440d862a33611448565b6110fe576040517f08c379a00000000000000000000000000000000000000000000000000000000081526004018080602001828103825260268152602001806130fc6026913960400191505060405180910390fd5b61110661202d565b565b6000600660019054906101000a900460ff16905090565b600061112e6000801b33611448565b611183576040517f08c379a00000000000000000000000000000000000000000000000000000000081526004018080602001828103825260258152602001806131d26025913960400191505060405180910390fd5b6111ad7fe6ad9a47fbda1dc18de1eb5eeb7d935e5e81b4748f3cfc61e233e64f8818206083611906565b60019050919050565b60006111e27fe6ad9a47fbda1dc18de1eb5eeb7d935e5e81b4748f3cfc61e233e64f8818206033611448565b611237576040517f08c379a00000000000000000000000000000000000000000000000000000000081526004018080602001828103825260228152602001806131436022913960400191505060405180910390fd5b61124082612120565b60019050919050565b6000600160008373ffffffffffffffffffffffffffffffffffffffff1673ffffffffffffffffffffffffffffffffffffffff168152602001908152602001600020549050919050565b6112bc7f65d7a28e3265b37a6474929f336521b332c1681b933f6cb9f3376673440d862a33611448565b611311576040517f08c379a00000000000000000000000000000000000000000000000000000000081526004018080602001828103825260248152602001806131ae6024913960400191505060405180910390fd5b611319612161565b565b6000806113476103e86113396007548661225590919063ffffffff16565b6122db90919063ffffffff16565b9050600061135e828561232590919063ffffffff16565b905061138d33600860009054906101000a900473ffffffffffffffffffffffffffffffffffffffff1684611d2a565b611397338261236f565b7feb7b16aba875d0a98bc0e68802e945774aed86b69f8e403aff8c7248ea12bf348686838560405180806020018481526020018381526020018281038252868682818152602001925080828437600081840152601f19601f8201169050808301925050509550505050505060405180910390a16001925050509392505050565b60006114408260008086815260200190815260200160002060000161253590919063ffffffff16565b905092915050565b60006114718260008086815260200190815260200160002060000161254f90919063ffffffff16565b905092915050565b606060058054600181600116156101000203166002900480601f0160208091040260200160405190810160405280929190818152602001828054600181600116156101000203166002900480156115115780601f106114e657610100808354040283529160200191611511565b820191906000526020600020905b8154815290600101906020018083116114f457829003601f168201915b5050505050905090565b600061152a6000801b33611448565b61157f576040517f08c379a00000000000000000000000000000000000000000000000000000000081526004018080602001828103825260258152602001806131d26025913960400191505060405180910390fd5b6115a97f9f2df0fed2c77648de5860a4cc508cd0818c85b8b8a1ab4ceeef8d981c8956a683610dfc565b60019050919050565b6000801b81565b600061167c6115c6611b2b565b84611677856040518060600160405280602581526020016131f760259139600260006115f0611b2b565b73ffffffffffffffffffffffffffffffffffffffff1673ffffffffffffffffffffffffffffffffffffffff16815260200190815260200160002060008a73ffffffffffffffffffffffffffffffffffffffff1673ffffffffffffffffffffffffffffffffffffffff16815260200190815260200160002054611dbf9092919063ffffffff16565b611b33565b6001905092915050565b600061169a611693611b2b565b8484611d2a565b6001905092915050565b60006116b36000801b33611448565b611708576040517f08c379a00000000000000000000000000000000000000000000000000000000081526004018080602001828103825260258152602001806131d26025913960400191505060405180910390fd5b6117327fe6ad9a47fbda1dc18de1eb5eeb7d935e5e81b4748f3cfc61e233e64f8818206083610dfc565b60019050919050565b60006117677f9f2df0fed2c77648de5860a4cc508cd0818c85b8b8a1ab4ceeef8d981c8956a633611448565b6117d9576040517f08c379a000000000000000000000000000000000000000000000000000000000815260040180806020018281038252601c8152602001807f5746494c3a2063616c6c6572206973206e6f742061206d696e7465720000000081525060200191505060405180910390fd5b60006118046103e86117f66007548661225590919063ffffffff16565b6122db90919063ffffffff16565b9050600061181b828561232590919063ffffffff16565b9050611849600860009054906101000a900473ffffffffffffffffffffffffffffffffffffffff168361257f565b611853858261257f565b7f727200b48f3c812bfb404b578574e1c03694edb122d80fa6dcb352a9e4f8a938858284604051808473ffffffffffffffffffffffffffffffffffffffff168152602001838152602001828152602001935050505060405180910390a160019250505092915050565b60006118db600080848152602001908152602001600020600001612748565b9050919050565b7f9f2df0fed2c77648de5860a4cc508cd0818c85b8b8a1ab4ceeef8d981c8956a681565b61192c60008084815260200190815260200160002060020154611927611b2b565b611448565b611981576040517f08c379a000000000000000000000000000000000000000000000000000000000815260040180806020018281038252603081526020018061305f6030913960400191505060405180910390fd5b61198b8282611f12565b5050565b6000600260008473ffffffffffffffffffffffffffffffffffffffff1673ffffffffffffffffffffffffffffffffffffffff16815260200190815260200160002060008373ffffffffffffffffffffffffffffffffffffffff1673ffffffffffffffffffffffffffffffffffffffff16815260200190815260200160002054905092915050565b6000600754905090565b7f65d7a28e3265b37a6474929f336521b332c1681b933f6cb9f3376673440d862a81565b7fe6ad9a47fbda1dc18de1eb5eeb7d935e5e81b4748f3cfc61e233e64f8818206081565b6000611a947fe6ad9a47fbda1dc18de1eb5eeb7d935e5e81b4748f3cfc61e233e64f8818206033611448565b611ae9576040517f08c379a00000000000000000000000000000000000000000000000000000000081526004018080602001828103825260228152602001806131436022913960400191505060405180910390fd5b611af28261275d565b60019050919050565b6000611b23836000018373ffffffffffffffffffffffffffffffffffffffff1660001b612933565b905092915050565b600033905090565b600073ffffffffffffffffffffffffffffffffffffffff168373ffffffffffffffffffffffffffffffffffffffff161415611bb9576040517f08c379a000000000000000000000000000000000000000000000000000000000815260040180806020018281038252602481526020018061318a6024913960400191505060405180910390fd5b600073ffffffffffffffffffffffffffffffffffffffff168273ffffffffffffffffffffffffffffffffffffffff161415611c3f576040517f08c379a00000000000000000000000000000000000000000000000000000000081526004018080602001828103825260228152602001806130176022913960400191505060405180910390fd5b80600260008573ffffffffffffffffffffffffffffffffffffffff1673ffffffffffffffffffffffffffffffffffffffff16815260200190815260200160002060008473ffffffffffffffffffffffffffffffffffffffff1673ffffffffffffffffffffffffffffffffffffffff168152602001908152602001600020819055508173ffffffffffffffffffffffffffffffffffffffff168373ffffffffffffffffffffffffffffffffffffffff167f8c5be1e5ebec7d5bd14f71427d1e84f3dd0314c0f7b2291e5b200ac8c7c3b925836040518082815260200191505060405180910390a3505050565b3073ffffffffffffffffffffffffffffffffffffffff168273ffffffffffffffffffffffffffffffffffffffff161415611daf576040517f08c379a00000000000000000000000000000000000000000000000000000000081526004018080602001828103825260248152602001806130b06024913960400191505060405180910390fd5b611dba8383836129a3565b505050565b6000838311158290611e6c576040517f08c379a00000000000000000000000000000000000000000000000000000000081526004018080602001828103825283818151815260200191508051906020019080838360005b83811015611e31578082015181840152602081019050611e16565b50505050905090810190601f168015611e5e5780820380516001836020036101000a031916815260200191505b509250505060405180910390fd5b5060008385039050809150509392505050565b611ea681600080858152602001908152602001600020600001611afb90919063ffffffff16565b15611f0e57611eb3611b2b565b73ffffffffffffffffffffffffffffffffffffffff168173ffffffffffffffffffffffffffffffffffffffff16837f2f8788117e7eff1d82e926ec794901d17c78024a50270940304540a733656f0d60405160405180910390a45b5050565b611f3981600080858152602001908152602001600020600001612c6890919063ffffffff16565b15611fa157611f46611b2b565b73ffffffffffffffffffffffffffffffffffffffff168173ffffffffffffffffffffffffffffffffffffffff16837ff6391f5c32d9c69d2a47ea670b442974b53935d1edc7fd64eb21e047a839171b60405160405180910390a45b5050565b600080828401905083811015612023576040517f08c379a000000000000000000000000000000000000000000000000000000000815260040180806020018281038252601b8152602001807f536166654d6174683a206164646974696f6e206f766572666c6f77000000000081525060200191505060405180910390fd5b8091505092915050565b600660019054906101000a900460ff166120af576040517f08c379a00000000000000000000000000000000000000000000000000000000081526004018080602001828103825260148152602001807f5061757361626c653a206e6f742070617573656400000000000000000000000081525060200191505060405180910390fd5b6000600660016101000a81548160ff0219169083151502179055507f5db9ee0a495bf2e6ff9c91a7834c1ba4fdd244a5e8aa4e537bd38aeae4b073aa6120f3611b2b565b604051808273ffffffffffffffffffffffffffffffffffffffff16815260200191505060405180910390a1565b806007819055507f63fe946ed58429ac3c5e64d4356ff92c26d7fa1e73586515df8ba9f059ab54a5816040518082815260200191505060405180910390a150565b600660019054906101000a900460ff16156121e4576040517f08c379a00000000000000000000000000000000000000000000000000000000081526004018080602001828103825260108152602001807f5061757361626c653a207061757365640000000000000000000000000000000081525060200191505060405180910390fd5b6001600660016101000a81548160ff0219169083151502179055507f62e78cea01bee320cd4e420270b5ea74000d11b0c9f74754ebdbfc544b05a258612228611b2b565b604051808273ffffffffffffffffffffffffffffffffffffffff16815260200191505060405180910390a1565b60008083141561226857600090506122d5565b600082840290508284828161227957fe5b04146122d0576040517f08c379a000000000000000000000000000000000000000000000000000000000815260040180806020018281038252602181526020018061308f6021913960400191505060405180910390fd5b809150505b92915050565b600061231d83836040518060400160405280601a81526020017f536166654d6174683a206469766973696f6e206279207a65726f000000000000815250612c98565b905092915050565b600061236783836040518060400160405280601e81526020017f536166654d6174683a207375627472616374696f6e206f766572666c6f770000815250611dbf565b905092915050565b600073ffffffffffffffffffffffffffffffffffffffff168273ffffffffffffffffffffffffffffffffffffffff1614156123f5576040517f08c379a00000000000000000000000000000000000000000000000000000000081526004018080602001828103825260218152602001806131226021913960400191505060405180910390fd5b61240182600083612d5e565b61246d81604051806060016040528060228152602001612ff560229139600160008673ffffffffffffffffffffffffffffffffffffffff1673ffffffffffffffffffffffffffffffffffffffff16815260200190815260200160002054611dbf9092919063ffffffff16565b600160008473ffffffffffffffffffffffffffffffffffffffff1673ffffffffffffffffffffffffffffffffffffffff168152602001908152602001600020819055506124c58160035461232590919063ffffffff16565b600381905550600073ffffffffffffffffffffffffffffffffffffffff168273ffffffffffffffffffffffffffffffffffffffff167fddf252ad1be2c89b69c2b068fc378daa952ba7f163c4a11628f55a4df523b3ef836040518082815260200191505060405180910390a35050565b60006125448360000183612d6e565b60001c905092915050565b6000612577836000018373ffffffffffffffffffffffffffffffffffffffff1660001b612df1565b905092915050565b600073ffffffffffffffffffffffffffffffffffffffff168273ffffffffffffffffffffffffffffffffffffffff161415612622576040517f08c379a000000000000000000000000000000000000000000000000000000000815260040180806020018281038252601f8152602001807f45524332303a206d696e7420746f20746865207a65726f20616464726573730081525060200191505060405180910390fd5b61262e60008383612d5e565b61264381600354611fa590919063ffffffff16565b60038190555061269b81600160008573ffffffffffffffffffffffffffffffffffffffff1673ffffffffffffffffffffffffffffffffffffffff16815260200190815260200160002054611fa590919063ffffffff16565b600160008473ffffffffffffffffffffffffffffffffffffffff1673ffffffffffffffffffffffffffffffffffffffff168152602001908152602001600020819055508173ffffffffffffffffffffffffffffffffffffffff16600073ffffffffffffffffffffffffffffffffffffffff167fddf252ad1be2c89b69c2b068fc378daa952ba7f163c4a11628f55a4df523b3ef836040518082815260200191505060405180910390a35050565b600061275682600001612e14565b9050919050565b600073ffffffffffffffffffffffffffffffffffffffff168173ffffffffffffffffffffffffffffffffffffffff161415612800576040517f08c379a00000000000000000000000000000000000000000000000000000000081526004018080602001828103825260198152602001807f5746494c3a2073657420746f207a65726f20616464726573730000000000000081525060200191505060405180910390fd5b3073ffffffffffffffffffffffffffffffffffffffff168173ffffffffffffffffffffffffffffffffffffffff1614156128a2576040517f08c379a000000000000000000000000000000000000000000000000000000000815260040180806020018281038252601d8152602001807f5746494c3a2073657420746f20636f6e7472616374206164647265737300000081525060200191505060405180910390fd5b80600860006101000a81548173ffffffffffffffffffffffffffffffffffffffff021916908373ffffffffffffffffffffffffffffffffffffffff1602179055507fd7ecd1f497e38c39a3455e0704e1bddc382baa8059756b571ff24b92cab7ff5481604051808273ffffffffffffffffffffffffffffffffffffffff16815260200191505060405180910390a150565b600061293f8383612df1565b61299857826000018290806001815401808255809150506001900390600052602060002001600090919091909150558260000180549050836001016000848152602001908152602001600020819055506001905061299d565b600090505b92915050565b600073ffffffffffffffffffffffffffffffffffffffff168373ffffffffffffffffffffffffffffffffffffffff161415612a29576040517f08c379a00000000000000000000000000000000000000000000000000000000081526004018080602001828103825260258152602001806131656025913960400191505060405180910390fd5b600073ffffffffffffffffffffffffffffffffffffffff168273ffffffffffffffffffffffffffffffffffffffff161415612aaf576040517f08c379a0000000000000000000000000000000000000000000000000000000008152600401808060200182810382526023815260200180612fa36023913960400191505060405180910390fd5b612aba838383612d5e565b612b268160405180606001604052806026815260200161303960269139600160008773ffffffffffffffffffffffffffffffffffffffff1673ffffffffffffffffffffffffffffffffffffffff16815260200190815260200160002054611dbf9092919063ffffffff16565b600160008573ffffffffffffffffffffffffffffffffffffffff1673ffffffffffffffffffffffffffffffffffffffff16815260200190815260200160002081905550612bbb81600160008573ffffffffffffffffffffffffffffffffffffffff1673ffffffffffffffffffffffffffffffffffffffff16815260200190815260200160002054611fa590919063ffffffff16565b600160008473ffffffffffffffffffffffffffffffffffffffff1673ffffffffffffffffffffffffffffffffffffffff168152602001908152602001600020819055508173ffffffffffffffffffffffffffffffffffffffff168373ffffffffffffffffffffffffffffffffffffffff167fddf252ad1be2c89b69c2b068fc378daa952ba7f163c4a11628f55a4df523b3ef836040518082815260200191505060405180910390a3505050565b6000612c90836000018373ffffffffffffffffffffffffffffffffffffffff1660001b612e25565b905092915050565b60008083118290612d44576040517f08c379a00000000000000000000000000000000000000000000000000000000081526004018080602001828103825283818151815260200191508051906020019080838360005b83811015612d09578082015181840152602081019050612cee565b50505050905090810190601f168015612d365780820380516001836020036101000a031916815260200191505b509250505060405180910390fd5b506000838581612d5057fe5b049050809150509392505050565b612d69838383612f0d565b505050565b600081836000018054905011612dcf576040517f08c379a0000000000000000000000000000000000000000000000000000000008152600401808060200182810382526022815260200180612f816022913960400191505060405180910390fd5b826000018281548110612dde57fe5b9060005260206000200154905092915050565b600080836001016000848152602001908152602001600020541415905092915050565b600081600001805490509050919050565b60008083600101600084815260200190815260200160002054905060008114612f015760006001820390506000600186600001805490500390506000866000018281548110612e7057fe5b9060005260206000200154905080876000018481548110612e8d57fe5b9060005260206000200181905550600183018760010160008381526020019081526020016000208190555086600001805480612ec557fe5b60019003818190600052602060002001600090559055866001016000878152602001908152602001600020600090556001945050505050612f07565b60009150505b92915050565b612f18838383612f7b565b612f20611108565b15612f76576040517f08c379a000000000000000000000000000000000000000000000000000000000815260040180806020018281038252602a81526020018061324b602a913960400191505060405180910390fd5b505050565b50505056fe456e756d657261626c655365743a20696e646578206f7574206f6620626f756e647345524332303a207472616e7366657220746f20746865207a65726f2061646472657373416363657373436f6e74726f6c3a2073656e646572206d75737420626520616e2061646d696e20746f206772616e7445524332303a206275726e20616d6f756e7420657863656564732062616c616e636545524332303a20617070726f766520746f20746865207a65726f206164647265737345524332303a207472616e7366657220616d6f756e7420657863656564732062616c616e6365416363657373436f6e74726f6c3a2073656e646572206d75737420626520616e2061646d696e20746f207265766f6b65536166654d6174683a206d756c7469706c69636174696f6e206f766572666c6f775746494c3a207472616e7366657220746f2074686520746f6b656e20636f6e747261637445524332303a207472616e7366657220616d6f756e74206578636565647320616c6c6f77616e63655746494c3a206d75737420686176652070617573657220726f6c6520746f20756e706175736545524332303a206275726e2066726f6d20746865207a65726f20616464726573735746494c3a2063616c6c6572206973206e6f7420746865206665652073657474657245524332303a207472616e736665722066726f6d20746865207a65726f206164647265737345524332303a20617070726f76652066726f6d20746865207a65726f20616464726573735746494c3a206d75737420686176652070617573657220726f6c6520746f2070617573655746494c3a2063616c6c6572206973206e6f74207468652064656661756c742061646d696e45524332303a2064656372656173656420616c6c6f77616e63652062656c6f77207a65726f416363657373436f6e74726f6c3a2063616e206f6e6c792072656e6f756e636520726f6c657320666f722073656c6645524332305061757361626c653a20746f6b656e207472616e73666572207768696c6520706175736564a264697066735822122013d82536aee11bc887dee8b37fdd459d6a4b32eee8713582b288b74d027142ec64736f6c634300060c0033",
  "immutableReferences": {},
  "source": "/// SPDX-License-Identifier: AGPL-3.0-or-later\npragma solidity 0.6.12;\n\n/// @title WFIL\n/// @author Nazzareno Massari @naszam\n/// @notice Wrapped Filecoin\n/// @dev All function calls are currently implemented without side effects through TDD approach\n/// @dev OpenZeppelin library is used for secure contract development\n\n/*\n    \n    \n    \n  \n      \n*/\n\nimport \"@openzeppelin/contracts/access/AccessControl.sol\";\nimport \"@openzeppelin/contracts/token/ERC20/ERC20.sol\";\nimport \"@openzeppelin/contracts/token/ERC20/ERC20Pausable.sol\";\n\ncontract WFIL is AccessControl, ERC20, ERC20Pausable {\n\n    /// @dev Libraries\n    using SafeMath for uint;\n\n    /// @dev Roles\n    bytes32 public constant MINTER_ROLE = keccak256(\"MINTER_ROLE\");\n    bytes32 public constant FEE_SETTER_ROLE = keccak256(\"FEE_SETTER_ROLE\");\n    bytes32 public constant PAUSER_ROLE = keccak256(\"PAUSER_ROLE\");\n\n    /// @dev Data\n    uint private _fee;\n    address private _feeTo;\n\n    /// @dev Events\n    event Wrapped(address to, uint wrapOut, uint wrapFee);\n    event Unwrapped(string filaddress, uint unwrapOut, uint unwrapFee);\n    event NewFee(uint fee);\n    event NewFeeTo(address feeTo);\n\n    constructor(address minter_, address feeTo_, uint fee_)\n        public\n        ERC20(\"Wrapped Filecoin\", \"WFIL\")\n    {\n        _setupRole(DEFAULT_ADMIN_ROLE, msg.sender);\n\n        _setupRole(MINTER_ROLE, msg.sender);\n        _setupRole(PAUSER_ROLE, msg.sender);\n        _setupRole(FEE_SETTER_ROLE, msg.sender);\n\n        _setupRole(MINTER_ROLE, minter_);\n        _setFee(fee_);\n        _setFeeTo(feeTo_);\n    }\n\n    /// @notice Fallback function\n    /// @dev Added not payable to revert transactions not matching any other function which send value\n    fallback() external {\n        revert();\n    }\n\n    /// @notice Getter function for the wrap/unwrap fee\n    /// @return _fee current fee\n    function fee() external view returns (uint) {\n        return _fee;\n    }\n\n    /// @notice Set a new fee\n    /// @dev Access restricted only for Fee Setters\n    /// @dev Call internal function _setFee()\n    /// @param wfilFee fee to set\n    /// @return True if wfilFee is successfully set\n    function setFee(uint wfilFee) external returns (bool) {\n        require(hasRole(FEE_SETTER_ROLE, msg.sender), \"WFIL: caller is not the fee setter\");\n        _setFee(wfilFee);\n        return true;\n    }\n\n    /// @notice Set a new feeTo address\n    /// @dev Access restricted only for Fee Setters\n    /// @dev Call internal function _setFeeTo()\n    /// @param feeTo address to set\n    /// @return True if feeTo is successfully set\n    function setFeeTo(address feeTo) external returns (bool) {\n        require(hasRole(FEE_SETTER_ROLE, msg.sender), \"WFIL: caller is not the fee setter\");\n        _setFeeTo(feeTo);\n        return true;\n    }\n\n    /// @notice Wrap WFIL, mint amount (wrapFee + wrapOut)\n    /// @dev Access restricted only for Minters\n    /// @param to Address of the recipient\n    /// @param amount Amount of WFIL issued\n    /// @return True if WFIL is successfully wrapped\n    function wrap(address to, uint amount) external returns (bool) {\n        require(hasRole(MINTER_ROLE, msg.sender), \"WFIL: caller is not a minter\");\n        uint wrapFee = amount.mul(_fee).div(1000);\n        uint wrapOut = amount.sub(wrapFee);\n        _mint(_feeTo, wrapFee);\n        _mint(to, wrapOut);\n        emit Wrapped(to, wrapOut, wrapFee);\n        return true;\n    }\n\n    /// @notice Unwrap WFIL, transfer unwrapFee + burn uwnrapOut\n    /// @dev Emit an event with the Filecoin Address to UI\n    /// @param filaddress The Filecoin Address to uwrap WFIL\n    /// @param amount The amount of WFIL to unwrap\n    /// @return True if WFIL is successfully unwrapped\n    function unwrap(string calldata filaddress, uint amount) external returns (bool) {\n        uint unwrapFee = amount.mul(_fee).div(1000);\n        uint unwrapOut = amount.sub(unwrapFee);\n        _transfer(msg.sender, _feeTo, unwrapFee);\n        _burn(msg.sender, unwrapOut);\n        emit Unwrapped(filaddress, unwrapOut, unwrapFee);\n        return true;\n    }\n\n    /// @notice Add a new Minter\n    /// @dev Access restricted only for Default Admin\n    /// @param account Address of the new Minter\n    /// @return True if the account address is added as Minter\n    function addMinter(address account) external returns (bool) {\n        require(hasRole(DEFAULT_ADMIN_ROLE, msg.sender), \"WFIL: caller is not the default admin\");\n        grantRole(MINTER_ROLE, account);\n        return true;\n    }\n\n    /// @notice Remove a Minter\n    /// @dev Access restricted only for Default Admin\n    /// @param account Address of the Minter\n    /// @return True if the account address is removed as Minter\n    function removeMinter(address account) external returns (bool) {\n        require(hasRole(DEFAULT_ADMIN_ROLE, msg.sender), \"WFIL: caller is not the default admin\");\n        revokeRole(MINTER_ROLE, account);\n        return true;\n    }\n\n    /// @notice Add a new Fee Setter\n    /// @dev Access restricted only for Default Admin\n    /// @param account Address of the new Fee Setter\n    /// @return True if the account address is added as Fee Setter\n    function addFeeSetter(address account) external returns (bool) {\n        require(hasRole(DEFAULT_ADMIN_ROLE, msg.sender), \"WFIL: caller is not the default admin\");\n        grantRole(FEE_SETTER_ROLE, account);\n        return true;\n    }\n\n    /// @notice Remove a Fee Setter\n    /// @dev Access restricted only for Default Admin\n    /// @param account Address of the Fee Setter\n    /// @return True if the account address is removed as Fee Setter\n    function removeFeeSetter(address account) external returns (bool) {\n        require(hasRole(DEFAULT_ADMIN_ROLE, msg.sender), \"WFIL: caller is not the default admin\");\n        revokeRole(FEE_SETTER_ROLE, account);\n        return true;\n    }\n\n    /// @notice Pause all the functions\n    /// @dev the caller must have the 'PAUSER_ROLE'\n    function pause() external {\n        require(hasRole(PAUSER_ROLE, msg.sender), \"WFIL: must have pauser role to pause\");\n        _pause();\n    }\n\n    /// @notice Unpause all the functions\n    /// @dev the caller must have the 'PAUSER_ROLE'\n    function unpause() external {\n        require(hasRole(PAUSER_ROLE, msg.sender), \"WFIL: must have pauser role to unpause\");\n        _unpause();\n    }\n\n    /// @notice Prevent transfer to the token contract\n    /// @dev Override ERC20 _transfer()\n    /// @param sender Sender address\n    /// @param recipient Recipient address\n    /// @param amount Token amount\n    function _transfer(address sender, address recipient, uint amount) internal override {\n         require(recipient != address(this), \"WFIL: transfer to the token contract\");\n         super._transfer(sender, recipient, amount);\n    }\n\n    /// @notice Hook to pause _mint(), _transfer() and _burn()\n    /// @dev Override ERC20 and ERC20Pausable Hooks\n    /// @param from Sender address\n    /// @param to Recipient address\n    /// @param amount Token amount\n    function _beforeTokenTransfer(address from, address to, uint amount) internal override(ERC20, ERC20Pausable) {\n        super._beforeTokenTransfer(from, to, amount);\n    }\n\n    /// @notice Internal function to set fee\n    /// @dev set function visibility to private\n    /// @param wfilFee fee to set\n    function _setFee(uint wfilFee) private {\n        _fee = wfilFee;\n        emit NewFee(wfilFee);\n    }\n\n    /// @notice Internal function to set feeTo address\n    /// @dev set function visibility to private\n    /// @param feeTo address to set\n    function _setFeeTo(address feeTo) private {\n        require(feeTo != address(0), \"WFIL: set to zero address\");\n        require(feeTo != address(this), \"WFIL: set to contract address\");\n        _feeTo = feeTo;\n        emit NewFeeTo(feeTo);\n    }\n}\n",
  "sourcePath": "/home/hackfs/wfil/contracts/WFIL.sol",
  "compiler": {
    "name": "solc",
    "version": "0.6.12+commit.27d51765.Emscripten.clang"
  },
  "schemaVersion": "3.3.1",
  "updatedAt": "2020-11-03T17:24:02.802Z",
  "networkType": "ethereum",
  "devdoc": {
    "events": {
      "Wrapped(address,uint256,uint256)": {
        "details": "Events"
      }
    },
    "kind": "dev",
    "methods": {
      "addFeeSetter(address)": {
        "details": "Access restricted only for Default Admin",
        "params": {
          "account": "Address of the new Fee Setter"
        },
        "returns": {
          "_0": "True if the account address is added as Fee Setter"
        }
      },
      "addMinter(address)": {
        "details": "Access restricted only for Default Admin",
        "params": {
          "account": "Address of the new Minter"
        },
        "returns": {
          "_0": "True if the account address is added as Minter"
        }
      },
      "allowance(address,address)": {
        "details": "See {IERC20-allowance}."
      },
      "approve(address,uint256)": {
        "details": "See {IERC20-approve}. Requirements: - `spender` cannot be the zero address."
      },
      "balanceOf(address)": {
        "details": "See {IERC20-balanceOf}."
      },
      "decimals()": {
        "details": "Returns the number of decimals used to get its user representation. For example, if `decimals` equals `2`, a balance of `505` tokens should be displayed to a user as `5,05` (`505 / 10 ** 2`). Tokens usually opt for a value of 18, imitating the relationship between Ether and Wei. This is the value {ERC20} uses, unless {_setupDecimals} is called. NOTE: This information is only used for _display_ purposes: it in no way affects any of the arithmetic of the contract, including {IERC20-balanceOf} and {IERC20-transfer}."
      },
      "decreaseAllowance(address,uint256)": {
        "details": "Atomically decreases the allowance granted to `spender` by the caller. This is an alternative to {approve} that can be used as a mitigation for problems described in {IERC20-approve}. Emits an {Approval} event indicating the updated allowance. Requirements: - `spender` cannot be the zero address. - `spender` must have allowance for the caller of at least `subtractedValue`."
      },
      "fee()": {
        "returns": {
          "_0": "_fee current fee"
        }
      },
      "getRoleAdmin(bytes32)": {
        "details": "Returns the admin role that controls `role`. See {grantRole} and {revokeRole}. To change a role's admin, use {_setRoleAdmin}."
      },
      "getRoleMember(bytes32,uint256)": {
        "details": "Returns one of the accounts that have `role`. `index` must be a value between 0 and {getRoleMemberCount}, non-inclusive. Role bearers are not sorted in any particular way, and their ordering may change at any point. WARNING: When using {getRoleMember} and {getRoleMemberCount}, make sure you perform all queries on the same block. See the following https://forum.openzeppelin.com/t/iterating-over-elements-on-enumerableset-in-openzeppelin-contracts/2296[forum post] for more information."
      },
      "getRoleMemberCount(bytes32)": {
        "details": "Returns the number of accounts that have `role`. Can be used together with {getRoleMember} to enumerate all bearers of a role."
      },
      "grantRole(bytes32,address)": {
        "details": "Grants `role` to `account`. If `account` had not been already granted `role`, emits a {RoleGranted} event. Requirements: - the caller must have ``role``'s admin role."
      },
      "hasRole(bytes32,address)": {
        "details": "Returns `true` if `account` has been granted `role`."
      },
      "increaseAllowance(address,uint256)": {
        "details": "Atomically increases the allowance granted to `spender` by the caller. This is an alternative to {approve} that can be used as a mitigation for problems described in {IERC20-approve}. Emits an {Approval} event indicating the updated allowance. Requirements: - `spender` cannot be the zero address."
      },
      "name()": {
        "details": "Returns the name of the token."
      },
      "pause()": {
        "details": "the caller must have the 'PAUSER_ROLE'"
      },
      "paused()": {
        "details": "Returns true if the contract is paused, and false otherwise."
      },
      "removeFeeSetter(address)": {
        "details": "Access restricted only for Default Admin",
        "params": {
          "account": "Address of the Fee Setter"
        },
        "returns": {
          "_0": "True if the account address is removed as Fee Setter"
        }
      },
      "removeMinter(address)": {
        "details": "Access restricted only for Default Admin",
        "params": {
          "account": "Address of the Minter"
        },
        "returns": {
          "_0": "True if the account address is removed as Minter"
        }
      },
      "renounceRole(bytes32,address)": {
        "details": "Revokes `role` from the calling account. Roles are often managed via {grantRole} and {revokeRole}: this function's purpose is to provide a mechanism for accounts to lose their privileges if they are compromised (such as when a trusted device is misplaced). If the calling account had been granted `role`, emits a {RoleRevoked} event. Requirements: - the caller must be `account`."
      },
      "revokeRole(bytes32,address)": {
        "details": "Revokes `role` from `account`. If `account` had been granted `role`, emits a {RoleRevoked} event. Requirements: - the caller must have ``role``'s admin role."
      },
      "setFee(uint256)": {
        "details": "Access restricted only for Fee SettersCall internal function _setFee()",
        "params": {
          "wfilFee": "fee to set"
        },
        "returns": {
          "_0": "True if wfilFee is successfully set"
        }
      },
      "setFeeTo(address)": {
        "details": "Access restricted only for Fee SettersCall internal function _setFeeTo()",
        "params": {
          "feeTo": "address to set"
        },
        "returns": {
          "_0": "True if feeTo is successfully set"
        }
      },
      "symbol()": {
        "details": "Returns the symbol of the token, usually a shorter version of the name."
      },
      "totalSupply()": {
        "details": "See {IERC20-totalSupply}."
      },
      "transfer(address,uint256)": {
        "details": "See {IERC20-transfer}. Requirements: - `recipient` cannot be the zero address. - the caller must have a balance of at least `amount`."
      },
      "transferFrom(address,address,uint256)": {
        "details": "See {IERC20-transferFrom}. Emits an {Approval} event indicating the updated allowance. This is not required by the EIP. See the note at the beginning of {ERC20}; Requirements: - `sender` and `recipient` cannot be the zero address. - `sender` must have a balance of at least `amount`. - the caller must have allowance for ``sender``'s tokens of at least `amount`."
      },
      "unpause()": {
        "details": "the caller must have the 'PAUSER_ROLE'"
      },
      "unwrap(string,uint256)": {
        "details": "Emit an event with the Filecoin Address to UI",
        "params": {
          "amount": "The amount of WFIL to unwrap",
          "filaddress": "The Filecoin Address to uwrap WFIL"
        },
        "returns": {
          "_0": "True if WFIL is successfully unwrapped"
        }
      },
      "wrap(address,uint256)": {
        "details": "Access restricted only for Minters",
        "params": {
          "amount": "Amount of WFIL issued",
          "to": "Address of the recipient"
        },
        "returns": {
          "_0": "True if WFIL is successfully wrapped"
        }
      }
    },
    "stateVariables": {
      "MINTER_ROLE": {
        "details": "Roles"
      },
      "_fee": {
        "details": "Data"
      }
    },
    "version": 1
  },
  "userdoc": {
    "kind": "user",
    "methods": {
      "addFeeSetter(address)": {
        "notice": "Add a new Fee Setter"
      },
      "addMinter(address)": {
        "notice": "Add a new Minter"
      },
      "fee()": {
        "notice": "Getter function for the wrap/unwrap fee"
      },
      "pause()": {
        "notice": "Pause all the functions"
      },
      "removeFeeSetter(address)": {
        "notice": "Remove a Fee Setter"
      },
      "removeMinter(address)": {
        "notice": "Remove a Minter"
      },
      "setFee(uint256)": {
        "notice": "Set a new fee"
      },
      "setFeeTo(address)": {
        "notice": "Set a new feeTo address"
      },
      "unpause()": {
        "notice": "Unpause all the functions"
      },
      "unwrap(string,uint256)": {
        "notice": "Unwrap WFIL, transfer unwrapFee + burn uwnrapOut"
      },
      "wrap(address,uint256)": {
        "notice": "Wrap WFIL, mint amount (wrapFee + wrapOut)"
      }
    },
    "version": 1
  }
}